:02000002B0004C
:1040000000400B00D6E20B00000006000C00050289
:084010000401D51700000000B7
:0440180074CF0B0056
:1040200081F0004102E000BF83F0004330B54FEA69
:1040300041044FEA430594EA050F08BF90EA020FD6
:104040001FBF54EA000C55EA020C7FEA645C7FEA69
:10405000655C00F0E2804FEA5454D4EB5555B8BF8C
:104060006D420CDD2C4480EA020281EA030382EAFD
:10407000000083EA010180EA020281EA0303362D8F
:1040800088BF30BD11F0004F4FEA01314FF4801C62
:104090004CEA113102D0404261EB410113F0004F74
:1040A0004FEA03334CEA133302D0524263EB43032B
:1040B00094EA050F00F0A780A4F10104D5F1200EC9
:1040C0000DDB02FA0EFC22FA05F2801841F1000124
:1040D00003FA0EF2801843FA05F359410EE0A5F1F8
:1040E00020050EF1200E012A03FA0EFC28BF4CF029
:1040F000020C43FA05F3C01851EBE37101F00045DF
:1041000007D54FF0000EDCF1000C7EEB00006EEBEB
:104110000101B1F5801F1BD3B1F5001F0CD3490875
:104120005FEA30004FEA3C0C04F101044FEA4452CC
:1041300012F5800F80F09A80BCF1004F08BF5FEA53
:10414000500C50F1000041EB045141EA050130BD33
:104150005FEA4C0C404141EB0101013C28BFB1F545
:10416000801FE9D291F0000F04BF01460020B1FA90
:1041700081F308BF2033A3F10B03B3F120020CDA63
:104180000C3208DD02F1140CC2F10C0201FA0CF041
:1041900021FA02F10CE002F11402D8BFC2F1200CA6
:1041A00001FA02F120FA0CFCDCBF41EA0C0190405C
:1041B000E41AA2BF01EB0451294330BD6FEA0404A5
:1041C0001F3C1CDA0C340EDC04F11404C4F1200290
:1041D00020FA04F001FA02F340EA030021FA04F3A2
:1041E00045EA030130BDC4F10C04C4F1200220FAF9
:1041F00002F001FA04F340EA0300294630BD21FA37
:1042000004F0294630BD94F0000F83F4801306BFFC
:1042100081F480110134013D4EE77FEA645C18BFF0
:104220007FEA655C29D094EA050F08BF90EA020F87
:1042300005D054EA000C04BF1946104630BD91EA7F
:10424000030F1EBF0021002030BD5FEA545C05D182
:104250004000494128BF41F0004130BD14F58004C1
:104260003CBF01F5801130BD01F0004545F0FE4135
:1042700041F470014FF0000030BD7FEA645C1ABF6A
:10428000194610467FEA655C1CBF0B46024650EAA1
:10429000013406BF52EA033591EA030F41F40021CD
:1042A00030BD00BF90F0000F04BF0021704730B553
:1042B0004FF4806404F132044FF000054FF0000128
:1042C00050E700BF90F0000F04BF0021704730B5E9
:1042D0004FF4806404F1320410F0004548BF4042BE
:1042E0004FF000013EE700BF42004FEAE2014FEA13
:1042F00031014FEA02701FBF12F07F4393F07F4FEE
:1043000081F06051704732F07F4208BF704793F0F0
:104310007F4F04BF41F40021704730B54FF4607403
:1043200001F0004521F000411CE700BF50EA010206
:1043300008BF704730B54FF000050AE050EA0102AF
:1043400008BF704730B511F0004502D5404261EB1F
:1043500041014FF4806404F132045FEA915C3FF460
:10436000D8AE4FF003025FEADC0C18BF03325FEAFD
:10437000DC0C18BF033202EBDC02C2F1200300FAAE
:1043800003FC20FA02F001FA03FE40EA0E0021FAD3
:1043900002F11444BDE600BF70B54FF0FF0C4CF4C1
:1043A000E06C1CEA11541DBF1CEA135594EA0C0F73
:1043B00095EA0C0F00F0DEF82C4481EA030621EAAE
:1043C0004C5123EA4C5350EA013518BF52EA0335E9
:1043D00041F4801143F4801338D0A0FB02CE4FF09B
:1043E0000005E1FB02E506F00042E0FB03E54FF0CB
:1043F0000006E1FB03569CF0000F18BF4EF0010EC3
:10440000A4F1FF04B6F5007F64F5407404D25FEABE
:104410004E0E6D4146EB060642EAC62141EA555171
:104420004FEAC52040EA5E504FEACE2EB4F1FD0CB3
:1044300088BFBCF5E06F1ED8BEF1004F08BF5FEA31
:10444000500E50F1000041EB045170BD06F00046E3
:1044500046EA010140EA020081EA0301B4EB5C0490
:10446000C2BFD4EB0C0541EA045170BD41F4801188
:104470004FF0000E013C00F3AB8014F1360FDEBFAD
:10448000002001F0004170BDC4F10004203C35DA89
:104490000C341BDC04F11404C4F1200500FA05F30C
:1044A00020FA04F001FA05F240EA020001F00042AD
:1044B00021F0004110EBD37021FA04F642EB060123
:1044C0005EEA430E08BF20EAD37070BDC4F10C044D
:1044D000C4F1200500FA04F320FA05F001FA04F211
:1044E00040EA020001F0004110EBD37041F10001FD
:1044F0005EEA430E08BF20EAD37070BDC4F1200508
:1045000000FA05F24EEA020E20FA04F301FA05F26F
:1045100043EA020321FA04F001F0004121FA04F217
:1045200020EA020000EBD3705EEA430E08BF20EAE7
:10453000D37070BD94F0000F0FD101F00046400021
:1045400041EB010111F4801F08BF013CF7D041EAA3
:10455000060195F0000F18BF704703F000465200A7
:1045600043EB030313F4801F08BF013DF7D043EA78
:104570000603704794EA0C0F0CEA135518BF95EA2E
:104580000C0F0CD050EA410618BF52EA4306D1D1B5
:1045900081EA030101F000414FF0000070BD50EAD4
:1045A000410606BF1046194652EA430619D094EA5E
:1045B0000C0F02D150EA013613D195EA0C0F05D148
:1045C00052EA03361CBF104619460AD181EA03019C
:1045D00001F0004141F0FE4141F470014FF0000054
:1045E00070BD41F0FE4141F4780170BD70B54FF0EF
:1045F000FF0C4CF4E06C1CEA11541DBF1CEA13556F
:1046000094EA0C0F95EA0C0F00F0A7F8A4EB050450
:1046100081EA030E52EA03354FEA013100F0888047
:104620004FEA03334FF0805545EA131343EA126310
:104630004FEA022245EA111545EA10654FEA0026C5
:104640000EF000419D4208BF964244F1FD0404F57E
:10465000407402D25B084FEA3202B61A65EB0305DA
:104660005B084FEA32024FF480104FF4002CB6EB97
:10467000020E75EB030E22BFB61A754640EA0C0017
:104680005B084FEA3202B6EB020E75EB030E22BF57
:10469000B61A754640EA5C005B084FEA3202B6EB98
:1046A000020E75EB030E22BFB61A754640EA9C0057
:1046B0005B084FEA3202B6EB020E75EB030E22BF27
:1046C000B61A754640EADC0055EA060E18D04FEAE5
:1046D000051545EA16754FEA06164FEAC30343EA85
:1046E00052734FEAC2025FEA1C1CC0D111F4801F52
:1046F0000BD141EA00014FF000004FF0004CB6E74B
:1047000011F4801F04BF01430020B4F1FD0C88BFE9
:10471000BCF5E06F3FF6AFAEB5EB030C04BFB6EBF4
:10472000020C5FEA500C50F1000041EB045170BDE7
:104730000EF0004E4EEA113114EB5C04C2BFD4EB14
:104740000C0541EA045170BD41F480114FF0000E98
:10475000013C90E645EA060E8DE60CEA135594EA14
:104760000C0F08BF95EA0C0F3FF43BAF94EA0C0F17
:104770000AD150EA01347FF434AF95EA0C0F7FF48C
:1047800025AF104619462CE795EA0C0F06D152EAE0
:1047900003353FF4FDAE1046194622E750EA4106C4
:1047A00018BF52EA43067FF4C5AE50EA41047FF4D5
:1047B0000DAF52EA43057FF4EBAE12E74FF0FF3C3A
:1047C00006E000BF4FF0010C02E000BF4FF0010C0B
:1047D0004DF804CD4FEA410C7FEA6C5C4FEA430C84
:1047E00018BF7FEA6C5C1BD001B050EA410C0CBFD3
:1047F00052EA430C91EA030F02BF90EA020F002035
:10480000704710F1000F91EA030F58BF994208BF9B
:1048100090422CBFD8176FEAE37040F00100704758
:104820004FEA410C7FEA6C5C02D150EA013C07D1AF
:104830004FEA430C7FEA6C5CD6D152EA033CD3D0FA
:104840005DF8040B704700BF8446104662468C46F4
:104850001946634600E000BF01B5FFF7B7FF002827
:1048600048BF10F1000F01BD4DF808EDFFF7F4FF50
:104870000CBF012000205DF808FB00BF4DF808EDDB
:10488000FFF7EAFF34BF012000205DF808FB00BFFE
:104890004DF808EDFFF7E0FF94BF012000205DF820
:1048A00008FB00BF4DF808EDFFF7CEFF94BF0120D5
:1048B00000205DF808FB00BF4DF808EDFFF7C4FFCE
:1048C00034BF012000205DF808FB00BF4FEA410C17
:1048D0007FEA6C5C02D150EA013C0AD14FEA430CFA
:1048E0007FEA6C5C02D152EA033C02D14FF0000037
:1048F00070474FF0010070474FEA410212F5001275
:1049000015D211D56FF47873B3EB625212D94FEA16
:10491000C12343F0004343EA505311F0004F23FA00
:1049200002F018BF404270474FF00000704750EA55
:10493000013005D111F0004008BF6FF00040704712
:104940004FF00000704700BF4A0011D212F500126C
:1049500011D20DD56FF47873B3EB62520ED44FEAD7
:10496000C12343F0004343EA505323FA02F0704757
:104970004FF00000704750EA013002D14FF0FF3095
:1049800070474FF0000070474FEA4102B2F1E04338
:1049900024BFB3F5001CDCF1FE5C0DD901F0004C26
:1049A0004FEAC0024CEA5070B2F1004F40EB830076
:1049B00008BF20F00100704711F0804F21D113F1A2
:1049C0003872BCBF01F00040704741F480114FEADB
:1049D0005252C2F11802C2F1200C10FA0CF320FA64
:1049E00002F018BF40F001004FEAC1234FEAD32381
:1049F00003FA0CFC40EA0C0023FA02F34FEA4303EB
:104A0000CCE77FEA625307D150EA01331EBF4FF073
:104A1000FE4040F44000704701F0004040F0FE408E
:104A200040F40000704700BFD0B50C4B0022064692
:104A30000F46FFF7B1FCFFF787FF0446FFF732FC94
:104A4000074B0022FFF7A8FC02460B4630463946CA
:104A5000FFF7EAFAFFF778FF2146D0BD0000F03DEE
:104A60000000F04110F8012B11F8013B012A28BF8A
:104A70009A42F7D0D01A7047034613F8012B002A48
:104A8000FBD1181A0138704738B5002200230446BC
:104A90000D46FFF7F3FE28B920462946BDE8384009
:104AA000FFF7C2BF204605F10041FFF7BDFF4042BE
:104AB00061EB410138BD00BF09480A49884208B589
:104AC00005D0094A824202D0121A06F081F907483D
:104AD000074A0021121A06F0A3F9014808BD00BFD9
:104AE00064DF0320C0E00B004CE103204CE1032015
:104AF000FCE7032070B5074E074C04F0E5FDA41B4E
:104B0000A4080025AC4200D170BD56F8043B98477C
:104B10000135F7E774E00B009CE00B0000F028BDC6
:104B200008B500F0B9FDBDE8084004F085BD02F00D
:104B3000DFBB02F0DDBB02F0E3BB02F0E1BB000033
:104B400008B5034A03490C2002F0CEFAFEE700BF85
:104B5000496E0B0088CF0B000078B0FA80F0400956
:104B6000704701230370704710B52DED048B90ED55
:104B70001E8AB0EE480A044604F0C0FFF0EE408AF8
:104B8000B0EE480A04F0F2FFD4ED1D9AB0EE408A70
:104B9000B0EE690A04F0B2FFB0EE409AB0EE690AD6
:104BA00004F0E4FF94ED0A7AD4ED096A67EE080A8E
:104BB000F0EE407A60EE800A94ED0B0A28EE408A0F
:104BC000E6EE890AA7EE288A60EE286AB1EE480A66
:104BD000E6EEA70A05F038F8BDEC048B84ED1F0A59
:104BE00010BD70B52DED028B00F1E00600F1EC0573
:104BF0008CB02A463146044601F02EFBF6EE008AC0
:104C000020EE680A2A4603A920468DED010A01F02C
:104C10005EFB9DED010A324606A9204601F057FBD6
:104C200003AA33461146204601F064FB06AA2B4630
:104C30001146204601F05EFB06AB03AA09A92046F7
:104C400001F01AFB03AA1146204601F005FBB0EE65
:104C5000088A38EE400A03AA20EE280A3146204688
:104C600001F035FB06AA1146204601F0F5FA38EEB0
:104C7000400A06AA20EE280A2946204601F027FB12
:104C800009AA1146204601F0E7FA38EE400A09AABF
:104C900020EE280A04F1F801204601F018FB0CB0C0
:104CA000BDEC028B70BD00002DE9F0412DED048BB1
:104CB00090ED210AD0ED207ADFED458A20EE000A42
:104CC0000446A7EEA70A04F1C80504F1F808D0EDE0
:104CD000227AA7EEA70A04F0B9FFDFED3E6ADFED06
:104CE0003E0AB7EE007AF0EE477AE0EE667A2046AA
:104CF00004F1A407F0EE006AF5EEC07AF1EE10FAC6
:104D0000D8BFF1EE677AA7EEE67A04F1D406B7EEE3
:104D1000001AB0EE470A01F071FC434604F180022C
:104D200029462046B0EE408A01F0A6FA9FED2B0AF4
:104D30002A4628EE000A3946204601F0C8FA28EE35
:104D4000280A2A46204604F1B005254901F0BFFA99
:104D5000234B2A462946204601F0CCFA94ED1F9AAF
:104D6000B0EE490A04F0CAFEB0EE408AB0EE490A3D
:104D700004F0FCFE94ED3B7AD4ED387A27EE487AC5
:104D80004246A7EE807A31462046B0EE470A01F04F
:104D90009EFA9FED140A14493246204601F097FA14
:104DA000114B3A463946204601F0A4FA32462046D5
:104DB0000B49B0EE680A01F08AFABDEC048B2A4672
:104DC00029462046064BBDE8F04101F093BA00BFEA
:104DD000ACC5A7370000803B000000000AD7A33C09
:104DE0004CE103209A99993F58E10320000000000C
:104DF00038B50446406DFFF777FA45A3D3E90023A1
:104E0000FFF7CAFAFFF7C0FDC4F88C00A06DFFF7EA
:104E10006BFA3FA3D3E90023FFF7BEFAFFF7B4FD17
:104E2000C4F89000E06DFFF75FFA39A3D3E90023DF
:104E3000FFF7B2FAFFF7A8FD2368C4F88030636873
:104E4000C4F8843004F1BC05A368C4F89400C4F825
:104E5000883004F18C0204F1B0032946204601F0A9
:104E600049FA04F1A4032A4604F19801204601F00E
:104E700041FAD4ED557AD4ED286A27EEE67A67EE4A
:104E8000A66A84ED427A94ED277AC4ED446A27EE4F
:104E9000876AD4ED266A84ED436A27EEC77A27EE47
:104EA000E66A67EEA67A0023C4F80431C4F8143128
:104EB000C4F8243184ED466A04F5947384ED477A8E
:104EC000C4ED487A04F5827204F1E001204601F055
:104ED0001EFA04F12403D4ED387A94ED4A7A77EE81
:104EE000877A94ED4B7AC4ED387AD4ED397A77EE3F
:104EF000877A94ED4C7AC4ED397AD4ED3A7A77EE2C
:104F0000877A0C34C4ED377AA342E4D138BD00BFB0
:104F100001FFA8C4D4E4533F10B590ED3E0A044607
:104F200004F05EFEB1EE400AD4ED400A84ED1D0AA5
:104F300094ED3F0A04F088FED4ED380A84ED1E0A91
:104F400094ED3B0A04F080FE84ED1C0A10BD0000C5
:104F50002DE9F0471946064610469DF82070144684
:104F60001D46FFF7B3FC28B14C493046BDE8F04779
:104F700004F0D6B825F00049494B4FF0FF322046E7
:104F80004946FFF7A3FC48B9454B4FF0FF32204696
:104F90004946FFF77DFC08B94249E6E7424B4FF02E
:104FA000604220462946FFF787FC08B13F49DCE70D
:104FB0003F4B4FF0604220462946FFF75FFC002838
:104FC000F4D10022002320462946FFF757FC30B1D8
:104FD0002D21304604F0A8F805F100431D4635495F
:104FE000DFF8D8904FF0000A00204FF000085FFA79
:104FF0008AF39F4206D942464B46FFF7F7FA0AF179
:10500000010AF4E722462B46FFF710F80D46044646
:10501000FFF79AFC8046FFF745F902460B4620460B
:105020002946FFF701F80A2204460D46304641465C
:1050300004F093F87FB32049DFF88090304604F005
:105040006FF84FF0000837B342464B4620462946DA
:10505000FFF7A2F904460D46FFF74EFCB0F1000A37
:1050600017DA2D21304604F05FF8CAF100010A2258
:10507000304604F072F85046FFF724F902460B461A
:1050800020462946FEF7D0FF013F04460D46FFB2F9
:10509000D9E75146EBE7BDE8F08700BF9DCF0B0095
:1050A000FFFFEF7FA1CF0B00FFFFEF41A5CF0B006C
:1050B000FFFFEFC10000E03FA9CF0B00000024403C
:1050C00037B5054610EE100A0C46FFF70DF9E4B2AD
:1050D00002460B4600942846FFF73AFF03B030BD66
:1050E0002DE9F04104460D4600293ED104F01EFA98
:1050F0006749684E684F04F013F8F4EC017A94EDB8
:10510000027AF4EEC77A94ED057AF1EE10FAF4EE35
:10511000C77A48BFC4ED027AF1EE10FAC8BFC4EDF9
:10512000057A04F003FA94ED020A0221FFF7C8FFA2
:1051300004F0FCF9314603F0F3FF04F0F7F994EDC5
:10514000050A0221FFF7BCFF022D09D004F0EEF999
:10515000394603F0E5FF0135032DCED1BDE8F081DE
:1051600004F0E4F903F0E3FFF5E701293FD104F08F
:10517000DDF94A49474E484F03F0D2FF2434002559
:10518000F4EC017A94ED027AF4EEC77A94ED057AA4
:10519000F1EE10FAF4EEC77A48BFC4ED027AF1EEF0
:1051A00010FAC8BFC4ED057A04F0C0F994ED020A04
:1051B0000221FFF785FF04F0B9F9314603F0B0FF93
:1051C00004F0B4F994ED050A0221FFF779FF022DEE
:1051D00008D004F0ABF9394603F0A2FF0135032DE6
:1051E000CED1BBE704F0A2F903F0A1FFF6E7022954
:1051F000B4D1D0ED187A90ED157AC36E254FDFF853
:10520000988077EE877A90ED167AC0ED187AD0ED17
:10521000197A77EE877A90ED177AC0ED197AD0ED8A
:105220001A7A77EE877A0133C0ED1A7AC36604F0F2
:105230007DF91B4903F074FF04F15406002504F0C6
:1052400075F9B6EC010A0221FFF73AFF04F06EF996
:10525000394603F065FF04F069F9D4ED1B7A96ED49
:10526000020AF8EEE77A022180EE270AFFF728FF0C
:10527000022D08D004F05AF9414603F051FF0135E0
:10528000032DDCD16AE704F051F903F050FFF6E793
:10529000ABCF0B00C4CF0B0037D80B00C6CF0B0031
:1052A000DECF0B007047000070B5104B104E1D682C
:1052B00086B00446A868FFF717F8CDE904016868CE
:1052C000FFF712F8CDE902012868FFF70DF8094A47
:1052D000CDE900014FF40071304602F021F831466B
:1052E000204603F0DEFF204606B070BD78E10320C3
:1052F00080E1032029D10B0070B5104B104E1D68C2
:1053000086B00446A868FEF7EFFFCDE9040168689F
:10531000FEF7EAFFCDE902012868FEF7E5FF094A3A
:10532000CDE900014FF40071304601F0F9FF31463C
:10533000204603F0B6FF204606B070BD70E503209E
:1053400080E1032029D10B0070B5104B104E1D6871
:1053500086B00446A868FEF7C7FFCDE90401686877
:10536000FEF7C2FFCDE902012868FEF7BDFF094A3A
:10537000CDE900014FF40071304601F0D1FF314614
:10538000204603F08EFF204606B070BD80E3032068
:1053900080E1032029D10B0030B5144B144D89B0A6
:1053A00004461868FEF7A0FFCDE90601114B186806
:1053B000FEF79AFFCDE904010F4B1868FEF794FF42
:1053C000CDE902010D4B1868FEF78EFF0C4ACDE9BE
:1053D00000014FF40071284601F0A2FF2946204643
:1053E00003F05FFF204609B030BD00BF74E5032025
:1053F00080E103207CE5032078E5032080E503209D
:1054000023D10B0030B5114B114D87B004461868FD
:10541000FEF76AFFCDE904010E4B1868FEF764FF42
:10542000CDE902010C4B1868FEF75EFF0B4ACDE98F
:1054300000014FF40071284601F072FF2946204612
:1054400003F02FFF204607B030BD00BF7CE10320F2
:1054500080E103206CE5032000E50320FECF0B0074
:105460001FB50023CDE901330C23ADF80430044B04
:105470000393042201AB01F093FE05B05DF804FB39
:1054800085540B0030B585B00346144668460D467A
:1054900098470298206001F02BFF286050B12268E5
:1054A000009905F095FC0024684603F0AFFE204605
:1054B00005B030BD004CF7E7FCFEFFFF0A4B10B50E
:1054C0000446036002F034FF214603F07EF904F045
:1054D0002DF804F01DF82046044B40F8043B02F080
:1054E000FDFF204610BD00BF30D40B0018D40B00C8
:1054F00010B50446FFF7E2FF20462421FFF71DFB0D
:10550000204610BD70B5B0B10B4600F10802026034
:1055100053F8084B9C420FD11C4601F1180554F872
:10552000046B42F8046BAC42F9D14A680B6000236B
:1055300042604B600B7270BD8A6804608260F4E761
:105540000EB400B58CB00DAA4FF0200C52F8041B1D
:105550000392CDE900120023016804AA1E20CDE9C0
:1055600004C301F0C9FD0CB05DF804EB03B0704753
:1055700037B5002304223449344801F011FE344980
:105580003448FFF76DFF34493448FFF769FF344969
:105590003448FFF765FF34493448FFF761FF0024C2
:1055A00033493448FFF75CFF22460123CDE900442C
:1055B0003149324801F01CFE3149324801F04AFBC2
:1055C0003149304801F0C2FB03F0B0FF4FF46141B4
:1055D00003F09AFF204601F047FC41F2883504466B
:1055E000002001F041FC001B61F10001A84271F1B3
:1055F000000307D203F09AFF03F08DFF10B901F00A
:10560000D7FDEDE703F092FF03F085FF01210720AE
:1056100004F0CAF80121062004F0C6F80121052093
:1056200004F0C2F80121042004F0BEF8022108466B
:1056300004F0BAF8052001F0ABFE14491448FFF756
:105640007FFF03B030BD00BF10D00B0060D00B0057
:10565000A9520B004ED40B00F9520B006AD40B0078
:1056600049530B0019D00B0099530B0023D00B00AA
:1056700005540B0039D00B006D5C0B0045D00B00BE
:105680005BD00B0004E503202D580B0069D00B0004
:10569000A8E603200000000010B5294C204600F0C9
:1056A00089FD284B206F1C60274B04F124021A60EF
:1056B000264B04F154021A60FEF716FE1EA3D3E92E
:1056C0000023FEF769FEFFF75FF9214B1860606F5A
:1056D000FEF70AFE18A3D3E90023FEF75DFEFFF7ED
:1056E00053F91C4B1860A06FFEF7FEFD12A3D3E91F
:1056F0000023FEF751FEFFF747F9174BE26F1860E2
:10570000164B174C1A6001F0A7FB2368C01A42F22F
:10571000107398420FD9134801F0D2FA01F09CFBA4
:10572000114920601148FFF70BFFBDE810404FF40E
:105730007A7001F02DBE10BDB0CB631ADCA54C40D1
:1057400084E3032078E1032070E5032080E3032055
:1057500080E5032078E503207CE5032074E5032041
:1057600074E1032004E503207ED00B00A8E60320AB
:1057700038B5046805467CB16368013B63605BB97A
:10578000236820469B689847A368013BA3601BB928
:1057900023682046DB689847284638BD70B5D0E9B5
:1057A00000531426044606FB0356AE4204D0284696
:1057B00003F02CFD1435F8E7206801F0A1FD204628
:1057C00070BD000010B5D0E900420648121BD2108F
:1057D0004243914202D3044804F09DF8182000FB94
:1057E000014010BDABAAAAAA88D00B0038B5046846
:1057F000002001F0B1FC20B1637813B901F0D8FCAE
:10580000FAE76378BFF35B8F651C0BB9002038BDE6
:10581000002001F0A1FC20B12B7813B901F0C8FCE5
:10582000FAE72378012BF1D1207BF0E72DE9F04F47
:10583000984A994FDFF8A48287ED001A2DED048B6A
:1058400082ED000A954ADFF89892C2ED000AA5B0F1
:105850000021062010EE105A10EE904A8DED211A0C
:1058600003F0B3FF0121042003F0AFFF8C498D4802
:10587000DFF870A2DFF870B2FFF762FE4FF47A70C3
:1058800001F086FD2846FEF72FFD41EC180B20465F
:10589000FEF72AFD41EC190BD8F80000D9F800609A
:1058A000DAF80050DBF80040FEF71EFDCDE91E01DE
:1058B0007D4A1068FEF718FDCDE91C017B4A10688F
:1058C000FEF712FDCDE91A01794A1068FEF70CFDCA
:1058D000CDE91801B068FEF707FDCDE91601706843
:1058E000FEF702FDCDE914013068FEF7FDFCCDE9BD
:1058F0001201A868FEF7F8FCCDE910016868FEF710
:10590000F3FCCDE90E012868FEF7EEFCCDE90C01B1
:10591000A068FEF7E9FCCDE90A016068FEF7E4FC47
:10592000CDE908012068FEF7DFFCCDE90601219BE7
:105930001846FEF7D9FC5F4ACDE904018DED029BC4
:105940004FF400718DED008B5B4801F0E9FC5B4B7F
:10595000594A1B785A498DF8003022A83C2301F09F
:10596000A9FE22A8FFF742FF044623A8FFF700FF85
:1059700024B103F0DBFD534903F0E5FBD8F8000048
:10598000D9F80060DAF80050DBF80040FEF7ACFC14
:10599000CDE91E01444B1868FEF7A6FCCDE91C01B9
:1059A000424B1868FEF7A0FCCDE91A01404B18687D
:1059B000FEF79AFCCDE91801B068FEF795FCCDE939
:1059C00016017068FEF790FCCDE914013068FEF70F
:1059D0008BFCCDE91201A868FEF786FCCDE9100129
:1059E0006868FEF781FCCDE90E012868FEF77CFCB3
:1059F000CDE90C01A068FEF777FCCDE90A016068EB
:105A0000FEF772FCCDE908012068FEF76DFCCDE9D8
:105A100006013868FEF768FC2B4B2C4ACDE90401DF
:105A20004FF400718DED029B23488DED008B01F04A
:105A300077FC03F07BFD204903F085FB244B1E4AD5
:105A40001B7824498DF8003022A83C2301F032FE57
:105A500022A8FFF7CBFE044623A8FFF789FE24B156
:105A600003F064FD1C4903F06EFB0021042003F0E9
:105A7000ACFE0121052003F0A8FE40F2EA3001F05F
:105A800087FC0021052025B0BDEC048BBDE8F04F5C
:105A900003F09BBE00E503207CE103206CE50320BE
:105AA000D2D00B00A8E603207CE5032078E5032094
:105AB00080E50320DBD00B0080E1032070E10320B0
:105AC00045D00B003BD10B005BD10B0069D10B0023
:105AD00071E1032076D20B008AD20B0074E503201B
:105AE00080E3032070E5032078E103208842F8B5C5
:105AF00004460D46164616D9904215D2A2F1140658
:105B0000751AA1F114072C44B7421CD02CB13146B0
:105B1000204603F0F8FB337C2374304603F076FB19
:105B2000143E143CF0E70ED0B5420CD02CB12946FF
:105B3000204603F0E8FB2B7C2374284603F066FB29
:105B400014351434F0E7F8BD2DE9F0410023C0E925
:105B5000003383604F689F4204460E4623DD4FF0BA
:105B6000140808FB07F001F0C3FB0546D8B1D4E9DF
:105B7000001208FB0212FFF7B9FF206801F0C0FB1A
:105B80002560A760D6E9007308FB0378B84508D004
:105B90003946284603F0D1FB3B7C2B74143714356F
:105BA000F4E7736863602046BDE8F0812DE9F74FA4
:105BB000D0E9008A2A4CAAEB08038946DB1011467B
:105BC000284A63439342074602D1274803F0A0FEC8
:105BD000012B1C4638BF0124E418A9EB08051CD290
:105BE000ECB1944228BF1446182060430191FEF79F
:105BF0009EFF019906467019FFF784FC4546304622
:105C0000A94500F1180B0CD02946FFF77BFC28466C
:105C100003F05AFF18355846F2E71446E4E72646E3
:105C2000E9E755450AD029465846FFF76BFC284658
:105C300003F04AFF18350BF1180BF2E7B8F1000F2B
:105C400005D0B9684046A1EB0801FEF776FF1820A1
:105C500000FB0464C7E9006BBC6003B0BDE8F08FD3
:105C6000ABAAAAAA55555505BAD20B002DE9F043A7
:105C70008BB000AF0C4603F059FC03F058FA03F068
:105C800055FCCB49CB4D03F05EFA03F04FFC2146A7
:105C900003F059FA03F04AFC03F049FA00232046C6
:105CA000C7E90133FB60FEF7E7FE073020F007008D
:105CB000ADEB000D2146684605F0FFF8BD4968468A
:105CC00005F078FF0446002C39D007F11803204670
:105CD0003B61FEF7D1FE0F2804EB0006386008D9BF
:105CE0000022394607F1100003F0CCFE3B68386112
:105CF000BB6138693246214603F0FAFE3B683A69D7
:105D00007B610021D154D7E90203984210D007F1FA
:105D10001001FFF7F7FBBB681833BB6007F11000F9
:105D200003F0D2FE2946002005F044FF0446CAE7EE
:105D3000014607F11002381DFFF738FFEEE79E4DD0
:105D40009E4EDFF8CC82D7E901239B1ADB106B4310
:105D5000A34240F216810F2C46D8DFE814F0100061
:105D600045004500470045004500760045004500D8
:105D7000A50045004500D40045004500030103F09F
:105D8000D5FB8F4903F0CCF903F0D0FB8D4903F02C
:105D9000C7F903F0CBFB00218146381DFFF712FD48
:105DA0000168484603F0BCF903F0C0FB864903F0E4
:105DB000B7F903F0BBFB01218146381DFFF702FD57
:105DC0000168484603F0ACF903F0B0FB7F4903F0EB
:105DD000A7F903F0ABFB02218146381DFFF7F2FC67
:105DE0000168484603F0AFF90334ACE703F09EFBCB
:105DF000774903F095F903F099FB764903F090F9A0
:105E000003F094FB03218146381DFFF7DBFC01689A
:105E1000484603F085F903F089FB6F4903F080F9E8
:105E200003F084FB042181467818FFF7CBFC01685E
:105E3000484603F075F903F079FB684903F070F9FF
:105E400003F074FB05218146C7E703F06FFB64494B
:105E500003F066F903F06AFB624903F061F903F0AD
:105E600065FB06218146381DFFF7ACFC01684846FA
:105E700003F056F903F05AFB5B4903F051F903F0C4
:105E800055FB07218146381DFFF79CFC01684846F9
:105E900003F046F903F04AFB544903F041F903F0DB
:105EA00045FB0821814698E703F040FB504903F089
:105EB00037F903F03BFB4F4903F032F903F036FBAF
:105EC00009218146381DFFF77DFC0168484603F033
:105ED00027F903F02BFB484903F022F903F026FBD6
:105EE0000A218146381DFFF76DFC0168484603F022
:105EF00017F903F01BFB414903F012F903F016FBFD
:105F00000B21814669E703F011FB3D4903F008F9D5
:105F100003F00CFB3B4903F003F903F007FB0C21F2
:105F20008146381DFFF74EFC0168484603F0F8F83B
:105F300003F0FCFA344903F0F3F803F0F7FA0D210B
:105F40008146381DFFF73EFC0168484603F0E8F83B
:105F500003F0ECFA2D4903F0E3F803F0E7FA0E2121
:105F600081463AE703F0E2FA314603F0D9F803F04C
:105F7000DDFA414603F0D4F803F0D8FA0F21814648
:105F80002BE703F0D3FA03F0D2F8D7E90145A54295
:105F900004D0204603F098FD1834F8E7786818B16B
:105FA000F968091AFEF7C9FD2C37BD46BDE8F08334
:105FB000D4D20B000BD30B00ABAAAAAAFDD30B00C3
:105FC0000DD30B001BD30B0026D30B0033D30B00D8
:105FD0003FD30B004FD30B005AD30B0066D30B00FB
:105FE00072D30B0081D30B008CD30B0098D30B0022
:105FF000A4D30B00B0D30B00BAD30B00C5D30B0056
:10600000D0D30B00E6D30B00ECD30B00F4D30B0082
:106010000AD40B0070B5294B294800241C70294B69
:1060200001258CB01D7000F043FA274800F0ECFD0C
:106030002146284601F088F8244B254A9A60C3E996
:106040000044284601F070F8CDE90044029403F0C2
:106050006DFA204C0546694603A8FFF775FD2646F4
:1060600003A906A8FFF770FD1B4B46F8043B06A9E1
:1060700009A8FFF769FD09AA1E21304602F046FC77
:1060800009A8FFF78BFB06A8FFF788FB134B2360DB
:10609000256203A8FFF782FB114B236003F046FA49
:1060A0004FF4165103F030FA02F042F9214602F0A3
:1060B00045FB6846FFF772FB0CB070BD70E1032032
:1060C00084E3032071E1032004E5032064E103205D
:1060D0000000FFFF48E5032018D40B0060D60B003A
:1060E00030D40B0010B5044600F04AFC204600F006
:1060F000E9FA2046BDE8104000F078BB9FED147A25
:10610000D0ED007A67EE877AC0ED007AD0ED017AA3
:1061100067EE877AC0ED017AD0ED027A67EE877A72
:106120009FED0C7AC0ED027AD0ED097A67EE877A9E
:10613000C0ED097AD0ED0A7A67EE877AC0ED0A7A67
:10614000D0ED0B7A67EE877AC0ED0B7A704700BF0F
:106150006F12833FABAA2A3E90F860311BB3024610
:1061600052F8183B8361436853608368936002462A
:1061700052F80C3BC3604368536083689360436A82
:10618000C363836A0364C36A4364436A0363836AC1
:106190004363C36A836300220023C2668366436647
:1061A000036680F860217047002180F858110720AD
:1061B00003F00BBB10B5044600F04EFED4F84C3192
:1061C000C01A13282FD9C4F8503100F045FED4F876
:1061D0005031C4F84C0183423DBFC01A07EE900A0B
:1061E000DFED1B6A9FED1B7A38BFF8EE677A204619
:1061F00038BF87EEA67A84ED557AFFF773FFD4F89F
:1062000070318BB92046FFF7A7FF94F8583113B9C6
:1062100094F8593123B1D4F85C112046FEF760FFA1
:10622000012384F8593110BD012BF9D12046FFF725
:1062300065FFFEF799FC2046FEF7DAFD2046FEF7E3
:10624000D0FC2046FEF730FD2046FEF765FEE7E76E
:1062500000007A44000000009FED060A01F10C03E3
:10626000B1EC017AF2EC017A9942A7EE270AF7D154
:10627000704700BF0000000092ED027AD3ED017A72
:10628000D2ED016A67EEC77A93ED027AE6EE877A7D
:10629000C1ED007A92ED007AD3ED027AD2ED026A76
:1062A00067EEC77A93ED007AE6EE877AC1ED017A60
:1062B00092ED017AD3ED007AD2ED006A67EEC77AEB
:1062C00093ED017AE6EE877AC1ED027A7047D2ED5E
:1062D000007A67EE807AC1ED007AD2ED017A67EE3E
:1062E000807AC1ED017AD2ED027A27EE800A81ED43
:1062F000020A704702F10C00F2EC017AB3EC017A69
:1063000077EE877A8242E1EC017AF5D1704770B579
:1063100001F1240502F10C0610461C46B0EC017A8E
:10632000D1ED017AD0ED026A67EEA67AD1ED006A6E
:10633000E6EE877A8642D1ED026A90ED057AE6EEC6
:10634000877AE4EC017AE9D10C318D4203F10C0338
:10635000E2D170BD10B52DED068BF0EE40AAB0EE87
:10636000410A0C46B0EE608AF0EE418A03F0C6FBAB
:10637000B0EE409AB0EE680A03F0F8FBF0EE409AF7
:10638000B0EE480A03F0BAFBB0EE40AAB0EE480AFD
:1063900003F0ECFBF0EE408AB0EE6A0A03F0AEFBCD
:1063A000B0EE408AB0EE6A0A03F0E0FB6AEE087ACB
:1063B00020EE497AC4ED007A69EE887A29EE088ADF
:1063C000A7EEA87A84ED017A28EE287AA9EE807AE1
:1063D00084ED027A2AEE007A84ED037A29EEA87A17
:1063E00069EE8A9AA7EE008A29EE287A29EE0A9A9F
:1063F000F1EE688A84ED048AC4ED068AC4ED079A3A
:1064000084ED089ABDEC068BD7EE007AC4ED057AD0
:1064100010BD10B52DED028B8AB04FF07E530446AF
:106420000793002308930993FFF75CFE00F014FD27
:1064300094ED020AD4ED017AC4F84C0120EE000A72
:1064400094ED008AA7EEA70A03F000FCF0EE400AE4
:10645000B0EE480A03F0F8FBB1EE400A204601A96D
:1064600084ED1D0A07AB2246FFF706FF0B4607AA7D
:1064700004A9FFF701FFDDED060A9DED050A03F013
:10648000E3FB204684ED1E0AFEF76EFB94ED1F0A27
:1064900094ED1E1AD4ED1D0A84ED1C0A04F1E001EE
:1064A0002046FFF757FF0AB0BDEC028B10BD00007D
:1064B0002DE9F041504E00254FF00008B446044647
:1064C000C0F86C80056745678567C567C0F8805070
:1064D000C0F88450C0F88850C0F88C50C0F8905074
:1064E000C0F89450C0F89850C0F89C50C0F8A05024
:1064F000C0F8A450C0F8A850C0F8AC50C0F8B050D4
:10650000C0F8B450C0F8B850C0F8BC50C0F8C05083
:10651000C0F8C450C0F8C850C0F8CC50C0F8D05033
:10652000C0F8D450C0F8D850C0F8DC5000F1E007F3
:10653000BCE80F000FC7BCE80F000FC72436DCF81B
:1065400000303B600FCE04F582770FC70FCE0FC728
:1065500033683B602422414604F5947004F060FCEB
:1065600040F20113A4F858310123C4E95B8384F895
:1065700060314146C4E95388C4E95988C4F854518C
:10658000C4F85C81C4F8748184F8788125666565F7
:10659000E56325636562A561E56025606566A565BF
:1065A00025646563A562E56125616560A566E565AD
:1065B0006564A5630720E56225626561A56003F057
:1065C00004F9322000F0E4FE204600F028F82046CE
:1065D00000F02CF8204600F0D5F8204600F06CF9C9
:1065E000142000F0D5FE2046FFF713FF2046FFF7EA
:1065F000DBFD2046BDE8F0812CCF0B00B4EEC10AD4
:10660000F1EE10FAD8BFB0EE401AB4EEE01AF1EE97
:1066100010FA54BFB0EE410AB0EE600A704708B5F8
:1066200003F008F9BDE8084001F038BA08B503F0F6
:1066300001F9532101F068FA03F0FCF803682D21F9
:106640009B68984703F0F6F8036808219B68984711
:1066500003F0F0F801F05FFA052000F099FE03F076
:10666000E9F8532101F050FA03F0E4F8036831210E
:106670009B68984703F0DEF8036808219B689847F9
:1066800003F0D8F801F047FA052000F081FE03F08E
:10669000D1F8532101F038FA03F0CCF803682C212B
:1066A0009B68984703F0C6F8036809219B689847E0
:1066B00003F0C0F801F02FFABDE80840052000F013
:1066C00067BE000073B5044603F0B4F8532101F02F
:1066D0001BFA03F0AFF8036832219B68984703F078
:1066E000A9F801F018FA03F0A5F8532101F00CFA0B
:1066F00003F0A0F80622532101F0FFF96E460025B1
:1067000003F098F803681B69984740B103F092F8CA
:1067100003685B699847013506F8010BF0E703F061
:1067200089F801F0F8F9062D19D1BDF9023007EE0C
:10673000903ABDF90030F8EEE77AC4ED007A07EE42
:10674000903ABDF90430F8EEE77AC4ED017A07EE2D
:10675000903AF8EEE77AC4ED027A02B070BDD4F850
:1067600064310133C4F8643194F87831002BF4D0EB
:1067700002F0DCFE024902B0BDE8704002F0E3BC6A
:1067800040D40B0008B503F055F81E2101F0BCF908
:1067900003F050F8036802219B68984703F04AF819
:1067A000036800219B68984703F044F801F0B3F9AF
:1067B000052000F0EDFD03F03DF81E2101F0A4F9E5
:1067C00003F038F8036800219B68984703F032F81B
:1067D000036818219B68984703F02CF801F09BF997
:1067E000BDE80840052000F0D3BD000073B50446A5
:1067F00003F020F81E2101F087F903F01BF803686D
:1068000003219B68984703F015F801F084F903F021
:1068100011F81E2101F078F903F00CF806221E2170
:1068200001F06BF96E46002503F004F803681B695C
:10683000984740B102F0FEFF03685B699847013555
:1068400006F8010BF0E702F0F5FF01F064F9062D00
:106850001FD1BDF800305BBA9BB207EE903ABDF88D
:106860000230F8EEE77ADBBA5B42C4ED097A07EE54
:10687000903ABDF80430F8EEE77ADBBA5B42C4ED3B
:106880000A7A07EE903AF8EEE77AC4ED0B7A02B096
:1068900070BDD4F868310133C4F8683194F87831A8
:1068A000002BF4D002F042FE024902B0BDE8704075
:1068B00002F049BC5CD40B0008B502F0BBFF6821B4
:1068C00001F022F902F0B6FF03683E219B68984769
:1068D00002F0B0FF036880219B68984702F0AAFF8E
:1068E00001F019F9052000F053FD02F0A3FF682123
:1068F00001F00AF902F09EFF036816219B68984791
:1069000002F098FF03681B219B68984702F092FFF2
:1069100001F001F9052000F03BFD02F08BFF68213A
:1069200001F0F2F802F086FF036815219B68984792
:1069300002F080FF03680A219B68984702F07AFF03
:1069400001F0E9F8052000F023FD02F073FF682153
:1069500001F0DAF802F06EFF03683E219B68984769
:1069600002F068FF036800219B68984702F062FF0D
:1069700001F0D1F8BDE80840052000F009BD000095
:1069800073B5044602F056FF682101F0BDF802F02D
:1069900051FF03681D219B68984702F04BFF01F0EF
:1069A000BAF802F047FF682101F0AEF802F042FFAA
:1069B0000622682101F0A1F86E46002502F03AFF98
:1069C00003681B69984740B102F034FF03685B69B4
:1069D0009847013506F8010BF0E702F02BFF01F0B4
:1069E0009AF8062D1FD1BDF80230DBBA5B4207EEE4
:1069F000903ABDF80030F8EEE77ADBBA5B42C4EDBE
:106A0000157A07EE903ABDF80430F8EEE77ADBBA73
:106A10005B42C4ED167A07EE903AF8EEE77AC4EDE1
:106A2000177A02B070BDD4F86C310133C4F86C3100
:106A300094F87831002BF4D002F078FD024902B0CE
:106A4000BDE8704002F07FBB77D40B0010B5064B59
:106A5000044640F82C3B02F0D9FB04F10C0002F094
:106A6000D5FB204610BD00BF1CD50B0010B5044659
:106A7000FFF7ECFF20464421FEF75FF8204610BDEB
:106A800070B5194D90F82E302E68184C16F8011C70
:106A9000174A88B0A41B0793436B069390F82B30DA
:106AA000059390F82A30049390F82930039390F8D6
:106AB0002830029390F82730019390F82630009305
:106AC0000C4B30465B2918BF13460B4A214600F099
:106AD00027FC844206D32B68084A184413682860B0
:106AE0000133136008B070BD84E6032081E6032003
:106AF0000BD30B002AD60B008FD40B008CE603209F
:106B00002DE9F04304462DED028B636A83B01046F5
:106B1000002B38D004F0DAF91D4901AA054605F02A
:106B2000A5F868B304F048F9194901AA002057EC08
:106B3000106B05F09BF818B304F03EF9144901AA54
:106B4000002059EC108B05F091F8C8B104F034F92D
:106B500051EC100BFDF718FF494608EE900A40462D
:106B6000FDF712FF394608EE100A3046FDF70CFF1C
:106B7000636A00EE100AB0EE681AF0EE480A984711
:106B8000284600F0BDFB03B0BDEC028BBDE8F083EE
:106B90000BD30B0070B4036809685C689D681B68C0
:106BA0001268661005EB6400E40744BFAC59E35873
:106BB00070BC1847012A38B5044602D10B6823601F
:106BC00003E0022A03D0032A0DD0002038BD0C2098
:106BD0000D68FDF7ACFF03460028F0D095E80700EC
:106BE00083E80700EBE700680028EED00C21FDF7F2
:106BF000A4FFEAE710B58368044613B103220146F7
:106C00009847204610BD000038B50F4B03600025A3
:106C100042F210730446C0E901530C490C3002F0F3
:106C200040FB4FF4FA53A362C4E907550849656273
:106C300004F12C0002F035FB4FF49B724FF4CD733E
:106C4000C4E90F23204638BD1CD50B00C5D40B006A
:106C5000D3D40B0010B504460C3002F079FB20466B
:106C600010BD0000F8B5114D114C124F12492560AE
:106C7000002628463E6004F020F923680F4803F1FF
:106C80000B0222605B229A72314600F025FA2368DB
:106C90005D221A707D225A709A70DE701A1D3B6850
:106CA000226003B92B700148F8BD00BF84E50320C2
:106CB00084E603208CE60320D8D40B00816A0B0005
:106CC00010B586B00446FFF7CDFF15490390024684
:106CD0001448FEF735FC039A1378F3B100F070FA0C
:106CE000039AD0B1104B1B788DF80030E1683C233B
:106CF00004A800F0DFFC059C7CB16368013B636085
:106D00005BB9236820469B689847A368013BA36052
:106D10001BB923682046DB68984706B010BD00BF4A
:106D2000E3D40B00A8E6032088E6032038B500234F
:106D300083608B6804460D462BB102229847EB68AE
:106D4000E360AB68A360204638BD000030B58DB06D
:106D5000C3684162044608A8039300F039FA089A10
:106D6000039B00924FF480711A4A1B4800F0D8FA36
:106D700008A802F04BFA00250C200695FDF7D7FE77
:106D800018B1164B8460C0E90035154B0490079389
:106D900004A9144B069308A8FFF7C8FF0A9B7BB110
:106DA0001020FDF7C4FE054650B108A9FFF7BEFF4D
:106DB0000023CDE900330C4907482A4600F018FAB1
:106DC00008A8FFF717FF04A8FFF714FF20460DB02F
:106DD00030BD00BFFFD40B0084E50320016B0B0026
:106DE000956B0B00B56B0B00CB740B00014B0122B4
:106DF0001A70704788E6032008B5024B1B685B6C6D
:106E0000019308BD4802030008B5024B1B689B6C48
:106E1000019308BD4802030008B5024B1B68DB6CF8
:106E2000019308BD4802030008B5024B1B685B6D67
:106E3000019308BD4802030008B5024B1B685B685C
:106E4000019308BD1802030008B5024B1B68DB68FC
:106E5000019308BD1802030008B5024B1B685B696B
:106E6000019308BD1802030008B5024B1B68DB6DD7
:106E7000019308BD1802030008B5024B1B689B680C
:106E8000019308BD2C02030008B5024B1B68DB68A8
:106E9000019308BD2C02030008B5024B1B681B6957
:106EA000019308BD2C02030008B5024B1B68DB6888
:106EB000019308BD2802030008B5024B1B689B69BB
:106EC000019308BD2802030008B5024B1B68DB696B
:106ED000019308BD2802030008B5024B1B681B6A1A
:106EE000019308BD2802030008B5024B1B685B6ACA
:106EF000019308BD2802030008B5024B1B689B6A7A
:106F0000019308BD2802030008B5024B1B68DB6A29
:106F1000019308BD2802030008B5024B1B681B6BD8
:106F2000019308BD2802030008B5024B1B685B6B88
:106F3000019308BD2802030008B5024B1B681B6CB7
:106F4000019308BD2802030008B5024B1B681B6DA6
:106F5000019308BD2802030008B5024B1B685B695A
:106F6000019308BD6402030008B5024B1B689B68CF
:106F7000019308BD6802030008B5024B1B68DB687B
:106F8000019308BD6802030008B5024B1B68DB696A
:106F9000019308BD3002030008B5024B1B681B6A51
:106FA000019308BD3002030008B5024B1B689B68C3
:106FB000019308BD3C02030008B5024B1B68DB6867
:106FC000019308BD3C02030008B5024B1B681B6916
:106FD000019308BD3C02030008B5024B1B685B69C6
:106FE000019308BD3C02030008B5024B1B689B6976
:106FF000019308BD3C02030008B5024B1B68DB6926
:10700000019308BD3C02030008B5024B1B681B6AD4
:10701000019308BD3C02030008B5024B1B689B6A44
:10702000019308BD3C02030008B5024B1B68DB6AF4
:10703000019308BD3C02030008B5024B1B681B6CA2
:10704000019308BD3C02030008B5024B1B681B6896
:10705000019308BD4C02030008B5024B1B685B6836
:10706000019308BD4C02030008B5024B1B689B68E6
:10707000019308BD4C02030008B5024B1B681B6955
:10708000019308BD4C02030008B5024B1B685B6905
:10709000019308BD4C02030008B5024B1B689B69B5
:1070A000019308BD4C02030008B5024B1B68DB6965
:1070B000019308BD4C02030008B5024B1B681B6A14
:1070C000019308BD4C02030008B5024B1B689B6A84
:1070D000019308BD4C02030008B5024B1B68DB6D31
:1070E000019308BD7402030008B5024B1B685B6B7B
:1070F000019308BD6002030008B5024B1B685B6D7D
:10710000019308BD6002030008B5024B1B68DB6EEB
:10711000019308BD6002030008B5024B1B681B6F9A
:10712000019308BD6002030008B5024B1B685B6851
:10713000019308BD2002030008B5024B1B685B6980
:10714000019308BD2002030008B5024B1B68DB6AEF
:10715000019308BD2002030008B5024B1B68DB6CDD
:10716000019308BD2002030008B5024B1B685B6D4C
:10717000019308BD2002030008B5034B1B68D3F838
:107180008830019308BD00002002030008B5034BBE
:107190001B68D3F89430019308BD0000200203005F
:1071A00008B5024B1B681B68019308BD440203002D
:1071B00008B5024B1B689B68019308BD440203009D
:1071C00008B5024B1B685B69019308BD44020300CC
:1071D00008B5024B1B68DB69019308BD440203003C
:1071E00008B5024B1B681B6A019308BD44020300EB
:1071F00008B5024B1B685B6A019308BD440203009B
:1072000008B5024B1B68DB6B019308BD4402030009
:1072100008B5024B1B685B68019308BD4002030080
:1072200008B5024B1B689B68019308BD4002030030
:1072300008B5024B1B68DB68019308BD40020300E0
:1072400008B5024B1B681B69019308BD400203008F
:1072500008B5024B1B685B69019308BD400203003F
:1072600008B5024B1B689B69019308BD40020300EF
:1072700008B5024B1B68DB69019308BD400203009F
:1072800008B5024B1B681B6A019308BD400203004E
:1072900008B5024B1B681B6B019308BD400203003D
:1072A00008B5024B1B685B6B019308BD40020300ED
:1072B00008B5024B1B681B6C019308BD400203001C
:1072C00008B5024B1B685B6C019308BD40020300CC
:1072D00008B5024B1B685B6D019308BD40020300BB
:1072E00008B5024B1B689B6D019308BD400203006B
:1072F00008B5024B1B681B68019308BD1C02030004
:1073000008B5024B1B685B68019308BD1C020300B3
:1073100008B5024B1B689B68019308BD1C02030063
:1073200008B5024B1B68DB69019308BD1C02030012
:1073300008B5024B1B685B6A019308BD1C02030081
:1073400008B5024B1B68DB6A019308BD1C020300F1
:1073500008B5024B1B681B6B019308BD1C020300A0
:1073600008B5024B1B68DB6B019308BD1C020300D0
:1073700008B5024B1B681B6C019308BD1C0203007F
:1073800008B5024B1B685B6C019308BD1C0203002F
:107390000021FFF7D1BE10B5836804460BB902F097
:1073A000D6FAC3689847A3681BB10322214620463A
:1073B000984720461021BDE81040FDF7BEBB10B530
:1073C0004368013B0446436063B903689B68984780
:1073D000A368013BA3602BB923682046DB68BDE8A6
:1073E0001040184710BD70B5D0E90053044605EBB6
:1073F0000316AE4204D0284601F008FF1035F8E726
:107400002068FFF77DFF204670BD13B50B4602468E
:10741000D0E900016C4684E8030093E8030082E8A9
:10742000030094E8030083E8030002B010BD0000ED
:10743000024800230360FFF7DFBC00BF90E6032093
:1074400070470020704710B510210446FDF775FB0A
:10745000204610BD08B5FFF7F6FF08BD30B5002285
:107460004FF69C74026084808D888C800C688580C7
:1074700004600A6030BD10B504460068FFF740FFA5
:10748000204610BD38B5C468F4B12378022B03D16F
:1074900004F10C00FFF7EFFF656835B12846FFF7F0
:1074A000A9FB10212846FDF748FBA56835B1284601
:1074B000FFF7A0FB10212846FDF73FFB20461421D3
:1074C000BDE83840FDF739BB38BD07B5CDE900123E
:1074D00082680AB902F03BFAC36801AA6946984774
:1074E00003B05DF804FB0B6803604B68436013B1A5
:1074F0005A6801325A60704737B5044668460D46EF
:10750000FFF7F1FF009B019A23606260002301A84E
:1075100001930093FEF72CF935B1281DFEF728F9E9
:1075200008212846FDF709FB204603B030BD8268DC
:1075300010B50AB902F00BFABDE81040C36818474D
:1075400008B5006800F11001FFF7F1FF08BD82687F
:1075500010B50AB902F0FBF9BDE81040C36818473E
:1075600008B5006800F11001FFF7F1FF08BD000049
:1075700038B500230446036010200D46FDF7D7FA06
:1075800028B10123C0E90133024B0360C5602060CC
:10759000204638BD2CD50B0038B5002383608B689E
:1075A00004460D462BB102229847EB68E360AB68B6
:1075B000A360204638BD0000F0B589B00468684675
:1075C000FFF74CFF4FF00203D4E84F2F002A03D1FE
:1075D000C4E8413F0029F7D125D104F10C056946E3
:1075E0002846FFF73BFFBFF35B8F0123637000204A
:1075F00004F10803BFF35B8F53E8006F43E8000218
:10760000002AF9D1BFF35B8F6EB1FFF7A5FD78B10A
:1076100029463046FFF78BFF3046FFF7EBFA102183
:107620003046FDF78AFA6846FFF725FF09B0F0BD3E
:10763000314602A8FFF7B0FFE068B4F9105008B176
:1076400003F044FC06901020ADF81C50FDF76FFAD3
:107650000546E8B1002787601820FDF768FA044660
:1076600088B10146876002A8FFF7CFFE049BA2689D
:10767000A360059B049206A9E268E36004F1100090
:107680000592FFF7EBFE084BEB60084B2C60AB60FC
:1076900006A8FFF7F0FE02A8FFF7ACFA0022294681
:1076A0000348FFF761FDB7E741750B00C5770B0095
:1076B00097730B002DE9F04F8BB005469DF850A055
:1076C0000F4690469946FFF77BFD07AE834638BBD1
:1076D0004FF62E73059005A93046ADF81830FFF728
:1076E000BDFE1420FDF723FA044648B102230370BF
:1076F0000123C0E901BB437031460C30FFF7AEFEF9
:107700002846214640F8044BFFF732FF3046FFF78A
:10771000B2FE05A8FFF7AFFE28460BB0BDE8F08F1C
:107720000C2300241420CDE908440793FDF7FFF94A
:10773000014618B1C0E901440470447004A80391E3
:10774000FFF716FF1E4B08930820FDF7F0F90446DB
:1077500010B103A9FFF7C7FE00965FFA8AF34A4605
:10776000414638460994FFF73BFDB8B9039B5B7867
:1077700003F0FF0293B94FF69C7305A903A8059285
:10778000ADF81830FFF718FF05A8FFF774FE05A83D
:107790000999FFF7B1FE06A8FDF7EAFF03A905A8BE
:1077A000FFF7A1FE059B069A2B606A60002306A8DE
:1077B00006930593FDF7DCFF04A8FDF7D9FFABE7BF
:1077C00089780B00012AF8B5054603D10B680360E0
:1077D0000020F8BD022A10D0032AF9D10468002C39
:1077E000F6D004F11000FFF746FE2046FFF702FA3C
:1077F00018212046FDF7A1F9EAE718200E68FDF7E9
:1078000096F9044650B13146FFF7C6FE3069B6F925
:10781000147008B103F05AFB2061A7822C60D7E7EF
:1078200038B5002383608B6804460D462BB10222D5
:107830009847EB68E360AB68A360204638BD012A37
:1078400070B5044603D10B680360002070BD022AA6
:107850000CD0032AF9D10468002CF6D02046FFF79B
:10786000C9F914212046FDF768F9EEE714200E68E7
:10787000FDF75DF9054620B13146FFF7D1FF337CB6
:107880002B742560E1E70000F0B589B004460D4691
:1078900001A81146FFF730FEA4B124B21DB128465D
:1078A00003F014FB054601A803A90395ADF81040A9
:1078B000FFF782FE03A8FFF7DEFD02A8FDF758FFE1
:1078C00009B0F0BD019D0123D5E84F2F002A03D157
:1078D000C5E8413F0029F7D1EFD12B73BFF35B8F90
:1078E0006B702B1DBFF35B8F53E8006F43E80042C2
:1078F000002AF9D1BFF35B8F002EDED02046FFF7C0
:107900002BFC074660B105F10C013046FFF71FFE66
:107910003046FFF76FF910213046FDF70EF9CCE73E
:10792000314603A8FFF77CFF2B7B8DF81C3010201D
:10793000FDF7FDF80546D0B187601420FDF7F7F894
:10794000044678B18760014603A8FFF75EFD059BFA
:10795000A268A360069B0592E268E3609DF81C3074
:1079600006922374064BEB60064B2C60AB6003A8B9
:10797000FFF740F9002229460348FFF7F5FBC7E768
:1079800061750B003F780B0097730B000022406875
:107990001146FFF775BC002240681146FFF780BC16
:1079A00040680022FFF774BC4068002281F00101AA
:1079B000FFF75EBC002340681A461946FFF750BC2B
:1079C000002340681A461946FFF742BC002240686F
:1079D0001146FFF735BC002240681146FFF720BC76
:1079E000406800220221FFF723BC002340681A46AA
:1079F000FFF70EBC024B03225A60024A1A6070471E
:107A000094E6032048D50B007047F8B506461546A6
:107A10000C468F18BC4206D0336814F8011B9B68D3
:107A200030469847F6E72846F8BD007C0022FFF76D
:107A300053BA007C0021FFF757BA007C0021FFF702
:107A40005BBA007C0021FFF75FBA007C0021FFF7E2
:107A500063BA10B514210446FDF76FF8204610BD37
:107A600038B5044615464FF47A730022C4E9012361
:107A7000094B2174084623602946FFF75DFABF30A1
:107A800008D16B69DB0705D56868FFF739FCE86842
:107A9000FFF736FC204638BD8CD50B000023007C58
:107AA0001A461946FFF700BA7FB500221423CDE924
:107AB0000122ADF804300B788DF808304B68039341
:107AC000CB680493007C0B7A059301A9FFF73CFA7D
:107AD00007B05DF804FB1FB5003B8DF800104FF0B8
:107AE0006401039118BF0123694601928DF80830A3
:107AF000FFF7DAFF05B05DF804FB0123FFF7EBBFEA
:107B0000007C0022FFF7D8B9C9B2FFF7F9BF007CAB
:107B10000022FFF7D9B90121FFF7F9BF704710B56F
:107B200018210446FDF709F8204610BDF0B5037D85
:107B3000062B8DB00E4600F104074FF0000412D062
:107B400000F1080515F8011D0A22304601F005FB79
:107B5000AF42044419D0002CF4D02E21304601F05D
:107B6000E3FA0444EEE72F236A4639460A208DF8EB
:107B70000040FFF7F1F96846FCF77EFF33680246E4
:107B8000DB68694630469847044620460DB0F0BD94
:107B900010B5054B0446112240F8043B002103F0C8
:107BA0003FF9204610BD00BFB8D50B000346074A79
:107BB00010B543F8042B01F1100251F8044B43F8BF
:107BC000044B9142F9D10A781A7010BDB8D50B0058
:107BD00010B59DF8084044EA032343EA024242EA12
:107BE000016104234160037510BD000007B5064B19
:107BF0000360CB7800938B784A780978FFF7E8FF29
:107C000003B05DF804FB00BFB8D50B0000F1100312
:107C1000012213F8101C0129184608D153F8041C3E
:107C200002EB4102013A03F11003F2D1704702293D
:107C300004BF53F8041C5218F4E70EB4F0B588B032
:107C400000AF07F13405102155F8042B7A60044683
:107C50002B467818FD60FFF76BFB0F287A681AD95E
:107C600000F1080323F007036E46ADEB030D411C42
:107C70002B466846FD60FFF75BFB021E04DD2368B0
:107C800069469B6820469847B5462037BD46BDE803
:107C9000F04003B070470028F7D0236802469B6885
:107CA00007F1100120469847EFE738B50B680360ED
:107CB0004D6843689D42044608D015B16B68013396
:107CC0006B60606808B1FFF77AFB656038BD07B587
:107CD00003688DF807109B6801220DF10701984792
:107CE00003B05DF804FB0B461146002210B5C0E955
:107CF0000022044683600BB9204610BDFFF7D5FF74
:107D0000FAE78368EBB11A78032A1AD8DFE802F0A1
:107D10000417021B0520704702685B685268D05C3C
:107D20002D2812D0A0F13003092B0ED974280ED0C3
:107D300066280CD0A0F16E035842584170470620C7
:107D400070470020704704207047032070470220CE
:107D5000704710B50446FFF7D4FF02280ED0C31EAB
:107D6000DBB2012B14D82268A36850685B68BDE8B9
:107D700010400A220021184403F0FEBF2268A368C5
:107D800052685B68D05CA0F174035842584110BD42
:107D90000020FCE738B50023C0E9003304460E4854
:107DA000C4E90203A9B10B78032B06D08BB9136881
:107DB00058684B68C35C6E2B07D013684D685868D1
:107DC0008B6828445B1BA060E36011462046FFF7E8
:107DD0006CFF204638BD00BF2AD60B0038B5002501
:107DE0000B46C0E90055C0E90255C0E904550446F8
:107DF00011464BB11A78012A06D103F11002DB6853
:107E000082604361FFF751FF204638BD10B54369DA
:107E1000044663B18068E060013B1030A0602061DF
:107E2000636113B1FFF7F2FEA060012000E0184685
:107E300010BD10B57D210446FFF749FF01232371D2
:107E4000204610BD08B50379012B02D0022B04D0C7
:107E500008BD2C21FFF73BFFFAE73A21FAE710B5FE
:107E60000446FFF7EFFF20467B21FFF730FF00239A
:107E70002371204610BD000013B504460191FFF7A1
:107E8000E1FF2368019ADB680349204698470123F4
:107E90002046237102B010BDC4D50B0013B50446B3
:107EA0000191FFF7CFFF2368019ADB680349204661
:107EB000984701232046237102B010BDC7D50B009F
:107EC0002DE9F0470D46222190460446FFF7FFFEBC
:107ED000DFF8A490A8442F464745BA463DD017F88E
:107EE000016B222E06D05C2E04D0304602F068FFD3
:107EF0000028F1D12368AAEB05029B682946204699
:107F000098475C212046FFF7E2FE0D2E0AD8072E87
:107F10001CD9A6F10803052B18D8DFE803F00D0FD4
:107F200011171315222E01D05C2E0FD13146204699
:107F3000FFF7CDFE3D46CFE76221F8E77421F6E773
:107F40006E21F4E76621F2E77221F0E723683246FA
:107F5000DB68494620469847ECE7BD4205D02368D8
:107F60007A1B9B6829462046984722212046FFF726
:107F7000AEFEBDE8F08700BFCAD50B0013B50446BE
:107F8000CDE90021FFF75EFF2046DDE90021FFF784
:107F900097FF02232046237102B010BD13B504469B
:107FA000CDE90021FFF74EFF2046DDE90021FFF774
:107FB00087FF01232046237102B010BD8842F8B527
:107FC00004460D46164614D9904213D2A2F110066B
:107FD000751AA1F110072C44B74218D01CB13146D4
:107FE000204601F090F9304601F010F9103E103CA7
:107FF000F2E70CD0B5420AD01CB12946204601F068
:1080000082F9284601F002F910351034F2E7F8BD84
:1080100070B50E1E054611DD3001FFF769F9044603
:1080200058B1D5E9001201EB0212FFF7C7FF28682B
:10803000FFF766F92C60AE60012070BD0024F6E702
:1080400010B5044680680368DB689847E368184405
:10805000E06010BD7047084611B10B685B681847B7
:108060007047704770477047704738B504460D46F3
:1080700000682E2102F017FF2368C31A2B6023B17A
:10808000037803B1013023682060184638BD10B56D
:1080900010210446FCF751FD204610BD10B5042107
:1080A0000446FCF74AFD204610BD10B504210446E5
:1080B000FCF743FD204610BDFEF7AEBE08B5FCF749
:1080C000D1FCB0FA80F0400908BD704710B50C46ED
:1080D00001F02CFA844210D001F0ECFB844205D16F
:1080E00001F0E8FBBDE8104001F0B9B92CB12368FC
:1080F00020465B68BDE81040184710BD0B68036060
:108100004B68436013B15A6801325A60704713B527
:10811000044608460191FCF7AFFC0199024620464F
:1081200002B0BDE81040FFF739BF13B5044608465A
:108130000191FCF7A1FC23680199DB680246204607
:1081400002B0BDE81040184707B503688DF8071066
:10815000DB6801220DF10701984703B05DF804FBCD
:108160002DE9F74FD0E900844FF0140A00930AFB81
:1081700004F4184BA41017465C434546002C21DD3F
:1081800066100AFB06F005EB00093A46B9F804B0A0
:10819000285801915F4528BF5A4602F0B4FE0028D6
:1081A00001994FF001030BD15F4503D1009A137081
:1081B0003446E3E7FCD9A61B09F11405013EF7E7B5
:1081C000F9DBF5E7A5EB08050248AD10684303B0FD
:1081D000BDE8F08FCDCCCCCC7FB50369057E019195
:1081E00003B3F9B1002600F10C04039603A901A81A
:1081F000FFF73BFF0146A8B10DF10B03039A8DF881
:108200000B602046FFF7ACFF9DF80B3053B123689D
:10821000142404FB0034083434F9023C002BA8BFBA
:10822000DDB2E3E7284604B070BD0EB4F0B58CB003
:1082300000AF07F14405044655F8042B7A602B463D
:10824000202107F11000FD60FFF772F81F287A68FF
:108250001AD900F1080323F007036E46ADEB030DB6
:10826000411C2B466846FD60FFF762F8021E04DDE4
:1082700023686946DB6820469847B5463037BD46D7
:10828000BDE8F04003B070470028F7D023680246ED
:10829000DB6807F1100120469847EFE710B5094C5D
:1082A0002378BFF35B8FDB0709D42046FCF754FC2F
:1082B00028B12046FCF755FC034802F077FD03483F
:1082C00010BD00BFA0E6032063800B0064DF032025
:1082D00010B5094C2378BFF35B8FDB0709D4204628
:1082E000FCF73AFC28B12046FCF73BFC034802F0BF
:1082F0005DFD034810BD00BFA4E60320CB800B004A
:1083000068DF032038B500250446C0E90055C0E900
:1083100004558560856140F8245FFEF76DFDFFF729
:10832000BDFFE061FFF7D4FF25732062204638BD12
:1083300010B50A4C2378BFF35B8FDB070CD42046C3
:10834000FCF70AFC40B10648FFF7DCFF2046FCF7CB
:1083500008FC044802F02AFD014810BD9CE60320F9
:10836000ACE60320A9880B00024A03490348002316
:10837000FEF7D2BE8D860B0019860B0099850B0087
:1083800000231A4619461846FEF7C6BE37B58D6853
:1083900004466846FFF7B2FE6A4629462046FFF7C4
:1083A0001DFD01A8FDF7E4F9204603B030BD37B547
:1083B000CD6804466846FFF7A1FE6A462946204676
:1083C000FFF7E8FC01A8FDF7D3F9204603B030BD64
:1083D00037B50D6904466846FFF790FE6A462946A0
:1083E0002046FFF780FC01A8FDF7C2F9204603B044
:1083F00030BD000070B58AB00D46014604A8FFF7F5
:10840000C5FF144E04A8FFF701FDE8B104A96846B2
:10841000FFF7CDFF02983146FFF750FE044610B13A
:108420002C1E18BF012401A8FDF7A2F9002CE9D0E9
:1084300004A96846FFF7CCFF6846FFF78AFC28606E
:1084400001A8FDF795F9DDE705A8FDF791F90AB058
:1084500070BD00BFD0D50B0037B50C462046134980
:108460001546FCF7FFFA50B901F060F84FF41651C9
:1084700001F04AF803B0BDE8304001F057B80C49AC
:108480002046FCF7EFFA78B94FF4165301A92846B5
:108490000193FFF7AFFF01F00DFA019900F0DCFF47
:1084A00001F008FA03B030BD0020FBE7D5D50B0082
:1084B000DCD50B0070B5D0E900531426044606FB4A
:1084C0000356AE4205D005F10800FFF7F3FF14355F
:1084D000F7E72068FEF714FF204670BD10B504468C
:1084E0000C30FFF7E7FF2046FEF77DFF204610BD6A
:1084F00010B5044B044640F8043BFFF7EFFF20465D
:1085000010BD00BF18D40B0010B50446FFF7F0FFF4
:1085100020462421FCF711FB204610BD10B5034B6B
:1085200003600446FFF7E4FF204610BD78D60B0039
:1085300010B50446FFF7F2FF20462421FCF7FDFAB0
:10854000204610BD0A6802604A6842600022C0E905
:10855000022210B502618C688460CC68C4600C692A
:108560008A60CA6004610A6110BD0022C0E900226D
:1085700010B582600C6804604C6844608C680A60C6
:108580004A6084608A6010BD10B5036804461868AC
:10859000FEF74AFC204610BD2DE9F04F87B080461B
:1085A00003931C4B5B68C3F30803894616466BB9FB
:1085B000FFF7BEFE044600F12403406A0593FFF76F
:1085C0007BFD237B2BB105A8FFF7DEFF07B0BDE8DD
:1085D000F08F01232373D4E900535FFA89F905EB87
:1085E000830AAA4512D055F8047B3146381DFFF79F
:1085F000F3FD8145F5D33B68039A0092D3F808B0A8
:108600004A46334641463846D847EAE700232373B3
:10861000D9E700BF00ED00E02DE9F74F9B461A4B6C
:108620005B68C3F308038046894616466BB9FFF7BB
:108630007FFE044600F12403406A0193FFF73CFDEE
:10864000237B2BB101A8FFF79FFF03B0BDE8F08F9C
:1086500001232373D4E90053F6B205EB830A554591
:108660000ED055F8047B5946381DFFF7B5FD8642FC
:10867000F5D33B684A46DB68414638469847EEE703
:1086800000232373DEE700BF00ED00E02DE9F34196
:10869000164B5B68C3F3080305460F461BBBFFF789
:1086A00047FE00F124030446406A0193FFF704FDEE
:1086B000D4E90063462406EB8308B04509D101A83C
:1086C000FFF762FFA542B4BF0020012002B0BDE861
:1086D000F08156F8040B39460430FFF77DFD8442E3
:1086E000A8BF0446E9E70020F0E700BF00ED00E086
:1086F000F8B5D0E901539D4204460E460DDB6F1CD0
:10870000002F006804DDB900FEF702FE18B9F8BDBD
:10871000FEF7F6FD00202060A7602768626807EB7F
:1087200085019200A2EB8502081D02F05FFB47F86D
:1087300025606368013363600120E8E737B500F125
:1087400024030446406A01930D46FFF7B5FCD4E9C3
:10875000003203EB8202934219460BD00968A9420A
:1087600003F10403F7D101A8FFF70EFF0025284607
:1087700003B030BD29462046FFF7BAFF0546002862
:10878000F1D06368012B01D1FFF7EEFD01A8FFF7DF
:10879000FBFEECE770B50446D0E900020B4600EBA7
:1087A000820282420FD001461D6851F8046BAE422E
:1087B00007D1521A02F01AFB6368013B6360012083
:1087C00070BD0846EDE70020FAE71FB500F124036D
:1087D0000446406A01910393FFF76EFC01A920460D
:1087E000FFF7D8FF18B163680BB9FFF7C9FD03A8FD
:1087F000FFF7CAFE04B010BD70B5D0E904561823C7
:10880000044603FB0656AE4215D005F11001204682
:10881000FFF7C0FF63680BB9FFF7B2FDE069296994
:108820000368DB689847696919B1206A0368DB68E7
:1088300098471835E7E7D4E90453182606FB035692
:10884000AE4204D0284600F0E1FC1835F8E70023DA
:10885000636170BD73B50446FFF792FD04F1240314
:10886000606A0193FFF728FC2046FFF7C5FF01A8C7
:10887000FFF78AFE606A08B1FEF7C6FAD4E904532E
:10888000182606FB0356AE4204D0284600F0BEFC74
:108890001835F8E72069FEF733FD2068FEF730FD54
:1088A000204602B070BD00000148FFF7D3BF00BFF3
:1088B000ACE603208842F8B504460D46164615D9A5
:1088C000904214D2A2F11406751AA1F114072C4497
:1088D000B7421AD01CB131462046FFF733FE06F1ED
:1088E0000800FFF7E7FD143E143CF1E70DD0B54258
:1088F0000BD01CB129462046FFF724FE05F10800E5
:10890000FFF7D8FD14351434F1E7F8BD2DE9F04F29
:10891000904695B000230391D8F804100A9346229C
:108920009942C0E90033C0E90233C0E90433CDE91C
:1089300008330446027623DCD8E90057142303FBEE
:108940000757AF423BD029460BA800F0DCFC0BA92F
:108950000FA8099E00F0D7FCDDE9091399421BDA44
:10896000089B099A03EB061603EB0212314606F147
:108970001000FFF723FBEEB9099B0133099311E0C7
:1089800008A8FFF745FB0028D6D108A8FEF72BFD65
:10899000204615B0BDE8F08F013108A8FFF738FB7D
:1089A0000028DDD10FA800F031FC0BA800F02EFC50
:1089B0001435C6E70FA9304600F0A5FCDCE7002619
:1089C000CDE90B660D964FF01409DDE908239E42B0
:1089D0007CDA3301D35806930BB90136F5E700234F
:1089E000079309FB06F302930BAD07A906A8FFF74F
:1089F0003CFB82460028F0D04FF000038DF8173082
:108A00000146079A0DF117032846FFF7A9FB9DF8C9
:108A100017700190002F4AD1BDF81C30ADF84030DE
:108A2000CDE911774FF6FF73CDF83CA0ADF8423099
:108A30001397D5E90132934217DB03F1010ABAF12A
:108A4000000F30DD09FB0AF0FEF752FC834660B3ED
:108A5000D5E9001209FB0212FFF72CFF2868FEF788
:108A60004FFCC5F800B0C5F808A02B68019A09FBB7
:108A7000023A6A68514609FB02320AF11400FFF714
:108A800019FFBAF1000F03D00FA95046FFF75AFDA6
:108A90006B6801336B6011A8FFF70CFD3FB10BA8A9
:108AA000FFF708FD71E7BB46D8E70127F3E7019B15
:108AB0002D6809FB0355069B1B782BB9D8F80030AD
:108AC000029A13441B7CEB8008358EE721682260F4
:108AD00062686360A36809920A9A0A93E368A260D5
:108AE0000B9A0B932369E2600C9A0C9363692261E1
:108AF0000D9A0D93039B089162612376CFE70000E6
:108B0000F0B5044687B00D46264619466846174616
:108B1000FDF71AF80B4B46F8043B694603A8FDF72E
:108B200013F803AA39463046FFF7F0FE03A8FCF716
:108B300035FE6846FCF732FE034B23602046256273
:108B400007B0F0BD18D40B0060D60B00F0B50F468F
:108B500085B01D490A9C384616461D46FBF782FF24
:108B6000C0B9A4B1294601A8FFF7FFFC174924208A
:108B700000F0C4FE054630B101AB32462146FFF796
:108B8000BFFF134B2B6001A8FCF708FE2C462046C4
:108B900005B0F0BD0F493846FBF764FF90B9002CD3
:108BA000F5D0294601A8FFF7E0FC0849242000F091
:108BB000A5FE05460028E6D001AB32462146FFF768
:108BC0009FFFE0E70024E2E7E4D50B00D0D70B00DD
:108BD00078D60B00E8D50B00014B024A1A607047AB
:108BE000A8E60320F9D50B002DE9F047089DD0F841
:108BF000209004460E461746984600F097FC8145A3
:108C00004CD02B79190704D56A6954492046FFF7DF
:108C10000CFBB8F1000F0DD05B212046FFF794FA52
:108C200041462046FFF781FA23684D49DB6802225E
:108C3000204698472B79DA0723D5D5F808802F21CD
:108C4000404602F074F908B100F10108414620469F
:108C5000FFF76BFA2B799B0708D53A212046FFF7DF
:108C600073FAEA683F492046FFF7DFFA2A7923685A
:108C700012F0040FDB6814BF3B493C490222204636
:108C800098472B7958071DD529690B461A4613F8C2
:108C9000010B60B1202808D11946F7E7344800F0ED
:108CA00082F90028ADD0BDE8F0872828EED12368EE
:108CB000521ADB682046984723682E49DB68042255
:108CC0002046984700213846FEF71EFA0146204606
:108CD000FFF72BFA23682549DB68022220469847D4
:108CE0001EB131462046FFF720FA2B7913F0300FE2
:108CF0002CD023682049DB680222204698472B7934
:108D0000D9060AD523681D49DB6807222046984703
:108D1000AA691B492046FFF788FA2B799A0611D5D4
:108D2000DB0605D523681049DB68022220469847F8
:108D300023681449DB6820460A229847E9692046DF
:108D4000FFF7F3F95D212046FFF7FEF923680E498E
:108D5000DB6820460222BDE8F0471847FDD50B002E
:108D600004D60B00C4D50B0007D60B0007D40B00AC
:108D7000D4E603200AD60B000FD60B0012D60B0048
:108D80001AD60B001DD60B0028D60B002DE9F0419A
:108D90000446076A0D46164600F0C8FB874207D016
:108DA000206A036832462946DB68BDE8F04118476F
:108DB000034800F0F8F80028F2D0BDE8F08100BFC9
:108DC000D4E603202DE9F04385B0D0F820900C9C28
:108DD00005460F4690461E4600F0A8FB814505D18A
:108DE000494800F0E0F8002840F08A802B6A474AA2
:108DF00000924FF000096846CDE902398DF80490E1
:108E0000FFF72DF849464046FEF77EF94049804677
:108E100001226846FFF7B2F84146FFF778F93FB103
:108E20003C4901226846FFF7A9F83946FFF76FF978
:108E30003EB1394901226846FFF7A0F83146FFF7F5
:108E400066F92379DF070ED5A6682F21304602F098
:108E50006EF800B1461C314901226846FFF78EF8D2
:108E60003146FFF754F923799E0707D52C49022292
:108E70006846FFF783F8E168FEF7FEFF237958079D
:108E800014D5266933461F4613F8012B2AB1202A30
:108E900001D11E46F7E7282AF5D122490222684669
:108EA000FFF76CF8BA1B3146FFF778F823791907FA
:108EB00007D51D4901226846FFF760F86169FEF792
:108EC000EDFF2379DA0607D5184904226846FFF733
:108ED00055F8A169FEF7D0FF23799B0607D5144901
:108EE00006226846FFF74AF8E169FFF710F968467D
:108EF000FEF79FFF286A0F4903680222DB68984744
:108F000005B0BDE8F08300BFD4E6032048D60B00CF
:108F1000DAD50B002BD60B0074DF0B0039D10B0018
:108F20002DD60B0030D60B00D2D20B0033D60B005F
:108F300038D60B0028D60B00002340681A46FEF7EF
:108F400067B9406800220221FEF772B9002240682A
:108F50001146FEF765B9002240681146FEF770B968
:108F6000002340681A461946FEF772B9002340688C
:108F70001A461946FEF774B940680021FEF798B901
:108F800040680021FEF79CB94068002281F0010191
:108F9000FEF76EB940680022FEF77AB900224068F9
:108FA0001146FEF77DB9002240681146FEF768B908
:108FB00040680021FEF794B92DE9F04395B01446BE
:108FC0000D460746FEF7E4FD00211C220DA8009186
:108FD00001F026FF40230C9320466B460CAA00218B
:108FE000FDF7CAFF044600284BD1024601216868FC
:108FF000FEF726F90221804622466868FEF720F92E
:10900000009E81462146002E3BD0002939D173684D
:10901000022B03D00A2B11D0F669F4E7B8F1000F48
:10902000FAD0716906A8043107ADFEF7DFFD0FCD58
:109030003C1D0FC42B6823704146EDE7B9F1000FCA
:10904000EAD07469102201A801F0EAFE06238DF827
:10905000143001AD04F108031834186859682A4621
:1090600003C20833A3421546F7D101A906A807ADEC
:10907000FEF79CFD0FCD3C1D0FC42B6823704946A5
:10908000CAE70098FDF770FF384615B0BDE8F083D9
:10909000033802289ABF024B53F82000014870475A
:1090A000B8D60B00D4E6032008B500224068FEF7CE
:1090B0000FF9BDE80840FFF7EBBF0000024B034A81
:1090C0001A6000225A607047D4E60320CCD60B0009
:1090D000F8B506460D468F180024BD420CD0336803
:1090E00015F8011B9B6830469847031E01DB1C44A2
:1090F000F3E7002C08BF1C462046F8BD13B5044614
:10910000084659B10191FBF7B7FC23680199DB6868
:109110000246204602B0BDE81040184702B010BD1C
:1091200008B5FFF7EBFF08BD03689B68184738B523
:109130000D210546FFF7F8FF0A2104462846FFF7F0
:10914000F3FF204438BD38B50546FFF7D7FF044686
:109150002846FFF7ECFF204438BD30B58BB0002324
:10916000012A8DF8243098BF0A2209AC0D46B1FBC4
:10917000F2F101FB125303F0FF03092B94BF3033CC
:109180003733DBB2AA4204F8013DEFD92146FFF79D
:10919000B5FF0BB030BD0000014B00229A60704754
:1091A000DCE6032010B5044608462170FDF7ECFE0E
:1091B00000236360204610BD10B50446FDF74CFE49
:1091C000E060236820465B699847002808DAFDF7CD
:1091D00043FEE368C01AA3689842F2D34FF0FF3011
:1091E00010BD2DE9F04107460C468E180D46B542DC
:1091F000A5EB040807D03846FFF7DEFF031E02DBAD
:1092000005F8013BF3E74046BDE8F08110B50446A0
:109210000068FEF775F8204610BD10B504460068DA
:1092200008B1FEF76DF80023C4E90133236010BDD7
:1092300038B504460D4600680131FEF769F810B1F3
:10924000C4E90005012038BD10B50368044623B108
:1092500043688B4201D3012010BD2046FFF7E8FF91
:109260000028F9D0A368002BF5D122681370F2E72B
:1092700037B50D46114601920446FFF7E5FF019A06
:1092800028B92046FFF7C9FF204603B030BDA260D1
:109290002946206801F09CFD2268A3680021D15472
:1092A000F2E7002313B5C0E900330446836003737B
:1092B00041B108460191FBF7DFFB019902462046C8
:1092C000FFF7D6FF204602B010BD38B5054600684E
:1092D0000C4670B16A688B689A4208D3096831B14C
:1092E00001F0EBFDA368AB600023A36038BDFEF77F
:1092F00007F823682B6063686B60A368AB6000238A
:10930000C4E90033F1E710B50023C0E90033044697
:1093100083600373FFF7D9FF204610BD884210B564
:10932000044605D00B682BB18A681946FFF7A0FFE9
:10933000204610BDFFF771FFFAE710B50023044681
:10934000C0E9003383600373FFF7E8FF204610BDD8
:1093500013B5044659B108460191FBF78DFB0199FD
:1093600002462046FFF784FF204602B010BDFFF7FB
:1093700054FFF9E7054B02221A60054B054A9A6033
:109380000020C3E90000FDF7CFBE00BFF8E60320D0
:10939000ECE603200000FFFF024B1A68024B1A6044
:1093A000704700BF6CDF0320FCE603207047417468
:1093B000704708B5007CFDF72FFE20EAE07008BD7D
:1093C00008B5007CFDF700FE20EAE07008BD08B596
:1093D000007CFDF709FE40EAE07008BD08B5007C9E
:1093E000FDF7FAFD40EAE07008BD007CFDF704BE21
:1093F00037B5457C04462DB1207C03B0BDE8304034
:10940000FDF7DABD007C0191FDF706FE0028019909
:10941000F2DC284603B030BD10B514210446FBF73A
:109420008CFB204610BD000010B54FF47A73044643
:10943000084611460022C4E90123044B236001239E
:1094400020746374FDF7F8FD204610BD2CD70B0087
:10945000007C0023FDF7E8BD0022FFF7F9BF007C88
:10946000FDF7A2BD417470477047704708B50021F1
:10947000007CFDF711FE40EAE07008BD08B501214F
:10948000007CFDF709FE40EAE07008BD08B5007CED
:10949000FDF7FAFD20EAE07008BD08B5007CFDF795
:1094A000EBFD20EAE07008BD13B50446007C019195
:1094B000FDF7EAFD0028019901DC607C20B1207CE9
:1094C000FDF7F2FD20EAE07002B010BD007CFDF770
:1094D000F3BD10B514210446FBF72FFB204610BD49
:1094E00010B54FF47A73044608460021C4E901130D
:1094F000044B23600123207463741146FDF7A4FD1F
:10950000204610BD60D70B00007C0022FDF7A4BDF3
:10951000007CFDF7A9BD007CFDF7D6BD10B5142277
:109520000446002101F07CFC204610BD10B50F4C14
:1095300088B003A8FFF7F2FF2178BFF35B8F11F02B
:1095400001010FD120460191FBF706FB019948B1BB
:1095500003AA0748FFF7C4FF2046FBF702FB0548B4
:1095600001F024FC024808B010BD00BF00E7032052
:1095700004E7032069940B00002240681146FDF7C0
:109580005FBE002240681146FDF77ABE00224068A7
:109590001146FDF785BE40680022FDF779BE4068A0
:1095A000002281F00101FDF763BE002340681A46E6
:1095B0001946FDF755BE002340681A461946FDF7C7
:1095C00047BE002240681146FDF72ABE40680022CF
:1095D0000221FDF72DBE002340681A46FDF718BE94
:1095E000024B04225A60024A1A60704718E70320AF
:1095F00094D70B00014B1860704700BF74DF032045
:1096000008B50B4B43B1FFF791FF03681B699847FF
:10961000002801DDAFF30080064B43B100F04AF9AA
:1096200003681B699847002801DDAFF3008008BD7F
:10963000000000000000000008B5FFF7E1FFFDF7A3
:109640000BFC014B186008BD34E703200548064AAF
:10965000064908B5121A01F0BBFB054B054A1A6012
:1096600008BD00BF00F4032004F40320A8E20B00AF
:1096700000F403201E1C279A07B5002300931A4606
:109680006FF07701FDF782FD03B05DF804FB000089
:1096900007B543880A2B08D0502B0BD1094B1B6808
:1096A0004BB103B05DF804EB1847FFF7E5FF03B0DB
:1096B0005DF804FB002300931A466FF07701FDF775
:1096C00065FDF4E724E7032010B512480021FDF7FB
:1096D00057FE114B1A68114B9A42114B0CBF0122D5
:1096E00000221A7001D0FFF7B1FFFDF7A5FB044679
:1096F00001F09EFB0B4B13B12046AFF3008000211D
:109700000848FDF77DFDBDE8104007480021FDF742
:1097100033BD00BFF5950B0000F403201E1C279AF3
:1097200020E703200000000091960B00232813B5CA
:1097300002D9002002B010BDA0F10B03022B1AD8F1
:10974000174C2178BFF35B8F11F001010BD120463C
:109750000191FBF701FA019928B11248FFF722FDA8
:109760002046FBF7FEF90F4B1878FDF715FC002893
:10977000DFD10120DEE7012809D800F05BF80021E5
:10978000007CFDF7D1FB80F00100C0B2D2E70938C0
:109790000128EED800F08EF8007CFDF735FCF2E7EA
:1097A00028E703202CE70320232838B504460D467C
:1097B0000AD8FF2908D0FFF7B9FF28B1294620466B
:1097C000BDE83840FDF758BB38BD38B504460D46F6
:1097D000FDF75AFBFF2810D0062804D84D2323FAA2
:1097E00000F0C30709D42046FFF7A0FF28B129469F
:1097F0002046BDE83840FDF74FBB38BD704700003C
:1098000038B50A4B03600123044643610849202010
:1098100000F076F8202560600549A560284600F034
:109820006FF8C4E90305204638BD00BF18000100E9
:10983000D0D70B0030B50E4D2978BFF35B8F11F0F8
:10984000010487B011D12846FBF786F968B1684654
:10985000FFF7D6FF6A4621460648FEF701F928467B
:10986000FBF77FF9044801F0A1FA024807B030BDC8
:1098700038E703203CE70320FD970B00704700000A
:1098800038B5044614252A46002101F0C9FA25807E
:109890004025074925812846258200F031F80449F2
:1098A0006060284600F02CF8E060204638BD00BF1C
:1098B000D0D70B0030B50E4D2978BFF35B8F11F078
:1098C000010487B011D12846FBF746F968B101A819
:1098D000FFF7D6FF01AA21460648FFF7A5FD284657
:1098E000FBF73FF9044801F061FA024807B030BDC8
:1098F00050E7032054E703207D980B00FBF717B9CE
:10990000FBF717B908B5FDF71BFD08B5FDF718FD06
:1099100008B5FDF715FD0FB480B584B000AF07F1B1
:10992000180454F8042B7A601046FBF7A5F800F2EF
:10993000072323F00703ADEB030D00F500717A68F0
:10994000FC602346684600F057F8FDF7F9FC08B5BF
:10995000FDF7F6FC80B59CB0064600AF0C46A41B94
:109960000E496922381D01F033FA04F1700323F027
:109970000703ADEB030D6D466822391D284601F043
:1099800027FA2246314605F168002C4401F020FAFE
:10999000002384F868302846FFF7B7FFD1D70B00C3
:1099A0002DE9F04100AF84B06D4605F10C04DFF8FD
:1099B000448023464FF00A0CB2FBFCF60CFB162E3B
:1099C00018F80EE003F801ED9646BEF1090F324695
:1099D000F2D8E41A8C4209D8C4F10C032246E918E3
:1099E00001F0F6F92046BD46BDE8F0814FF0FF34A6
:1099F000F8E700BF3AD80B0001392DE9F0410746DE
:109A0000154600EB010804462A7892B344452AD251
:109A1000252A07D16A78732A09D07A2A12D0252AF2
:109A200000D1013515F8012B04F8012BECE753F8B0
:109A3000042B013A12F8011FC9B1444513D004F8B0
:109A4000011BF7E7AA78752AECD11E46A8EB0401A2
:109A500056F8042B2046FFF7A3FF002803DD04443B
:109A600003353346D0E721463846FFF773FF02350A
:109A7000CAE72270E01BBDE8F0810AB101F0A8B985
:109A80007047000008B50B68B3F1804F02D30D4852
:109A9000FFF73EFF93420BD9B3EB420F4FEA420070
:109AA00006D2B0F1804F2ABF6FF0404308600B60D0
:109AB0000868013001D5FFF725FFBDE80840FBF736
:109AC00036B800BF45D80B0050F8083B834202D09F
:109AD0001846FBF730B87047012A10B404D10A7851
