:02000002B0004C
:1040000000400B002EE70B00000006000C0005022C
:084010000401D51700000000B7
:0440180024D40B00A1
:1040200081F0004102E000BF83F0004330B54FEA69
:1040300041044FEA430594EA050F08BF90EA020FD6
:104040001FBF54EA000C55EA020C7FEA645C7FEA69
:10405000655C00F0E2804FEA5454D4EB5555B8BF8C
:104060006D420CDD2C4480EA020281EA030382EAFD
:10407000000083EA010180EA020281EA0303362D8F
:1040800088BF30BD11F0004F4FEA01314FF4801C62
:104090004CEA113102D0404261EB410113F0004F74
:1040A0004FEA03334CEA133302D0524263EB43032B
:1040B00094EA050F00F0A780A4F10104D5F1200EC9
:1040C0000DDB02FA0EFC22FA05F2801841F1000124
:1040D00003FA0EF2801843FA05F359410EE0A5F1F8
:1040E00020050EF1200E012A03FA0EFC28BF4CF029
:1040F000020C43FA05F3C01851EBE37101F00045DF
:1041000007D54FF0000EDCF1000C7EEB00006EEBEB
:104110000101B1F5801F1BD3B1F5001F0CD3490875
:104120005FEA30004FEA3C0C04F101044FEA4452CC
:1041300012F5800F80F09A80BCF1004F08BF5FEA53
:10414000500C50F1000041EB045141EA050130BD33
:104150005FEA4C0C404141EB0101013C28BFB1F545
:10416000801FE9D291F0000F04BF01460020B1FA90
:1041700081F308BF2033A3F10B03B3F120020CDA63
:104180000C3208DD02F1140CC2F10C0201FA0CF041
:1041900021FA02F10CE002F11402D8BFC2F1200CA6
:1041A00001FA02F120FA0CFCDCBF41EA0C0190405C
:1041B000E41AA2BF01EB0451294330BD6FEA0404A5
:1041C0001F3C1CDA0C340EDC04F11404C4F1200290
:1041D00020FA04F001FA02F340EA030021FA04F3A2
:1041E00045EA030130BDC4F10C04C4F1200220FAF9
:1041F00002F001FA04F340EA0300294630BD21FA37
:1042000004F0294630BD94F0000F83F4801306BFFC
:1042100081F480110134013D4EE77FEA645C18BFF0
:104220007FEA655C29D094EA050F08BF90EA020F87
:1042300005D054EA000C04BF1946104630BD91EA7F
:10424000030F1EBF0021002030BD5FEA545C05D182
:104250004000494128BF41F0004130BD14F58004C1
:104260003CBF01F5801130BD01F0004545F0FE4135
:1042700041F470014FF0000030BD7FEA645C1ABF6A
:10428000194610467FEA655C1CBF0B46024650EAA1
:10429000013406BF52EA033591EA030F41F40021CD
:1042A00030BD00BF90F0000F04BF0021704730B553
:1042B0004FF4806404F132044FF000054FF0000128
:1042C00050E700BF90F0000F04BF0021704730B5E9
:1042D0004FF4806404F1320410F0004548BF4042BE
:1042E0004FF000013EE700BF42004FEAE2014FEA13
:1042F00031014FEA02701FBF12F07F4393F07F4FEE
:1043000081F06051704732F07F4208BF704793F0F0
:104310007F4F04BF41F40021704730B54FF4607403
:1043200001F0004521F000411CE700BF50EA010206
:1043300008BF704730B54FF000050AE050EA0102AF
:1043400008BF704730B511F0004502D5404261EB1F
:1043500041014FF4806404F132045FEA915C3FF460
:10436000D8AE4FF003025FEADC0C18BF03325FEAFD
:10437000DC0C18BF033202EBDC02C2F1200300FAAE
:1043800003FC20FA02F001FA03FE40EA0E0021FAD3
:1043900002F11444BDE600BF70B54FF0FF0C4CF4C1
:1043A000E06C1CEA11541DBF1CEA135594EA0C0F73
:1043B00095EA0C0F00F0DEF82C4481EA030621EAAE
:1043C0004C5123EA4C5350EA013518BF52EA0335E9
:1043D00041F4801143F4801338D0A0FB02CE4FF09B
:1043E0000005E1FB02E506F00042E0FB03E54FF0CB
:1043F0000006E1FB03569CF0000F18BF4EF0010EC3
:10440000A4F1FF04B6F5007F64F5407404D25FEABE
:104410004E0E6D4146EB060642EAC62141EA555171
:104420004FEAC52040EA5E504FEACE2EB4F1FD0CB3
:1044300088BFBCF5E06F1ED8BEF1004F08BF5FEA31
:10444000500E50F1000041EB045170BD06F00046E3
:1044500046EA010140EA020081EA0301B4EB5C0490
:10446000C2BFD4EB0C0541EA045170BD41F4801188
:104470004FF0000E013C00F3AB8014F1360FDEBFAD
:10448000002001F0004170BDC4F10004203C35DA89
:104490000C341BDC04F11404C4F1200500FA05F30C
:1044A00020FA04F001FA05F240EA020001F00042AD
:1044B00021F0004110EBD37021FA04F642EB060123
:1044C0005EEA430E08BF20EAD37070BDC4F10C044D
:1044D000C4F1200500FA04F320FA05F001FA04F211
:1044E00040EA020001F0004110EBD37041F10001FD
:1044F0005EEA430E08BF20EAD37070BDC4F1200508
:1045000000FA05F24EEA020E20FA04F301FA05F26F
:1045100043EA020321FA04F001F0004121FA04F217
:1045200020EA020000EBD3705EEA430E08BF20EAE7
:10453000D37070BD94F0000F0FD101F00046400021
:1045400041EB010111F4801F08BF013CF7D041EAA3
:10455000060195F0000F18BF704703F000465200A7
:1045600043EB030313F4801F08BF013DF7D043EA78
:104570000603704794EA0C0F0CEA135518BF95EA2E
:104580000C0F0CD050EA410618BF52EA4306D1D1B5
:1045900081EA030101F000414FF0000070BD50EAD4
:1045A000410606BF1046194652EA430619D094EA5E
:1045B0000C0F02D150EA013613D195EA0C0F05D148
:1045C00052EA03361CBF104619460AD181EA03019C
:1045D00001F0004141F0FE4141F470014FF0000054
:1045E00070BD41F0FE4141F4780170BD70B54FF0EF
:1045F000FF0C4CF4E06C1CEA11541DBF1CEA13556F
:1046000094EA0C0F95EA0C0F00F0A7F8A4EB050450
:1046100081EA030E52EA03354FEA013100F0888047
:104620004FEA03334FF0805545EA131343EA126310
:104630004FEA022245EA111545EA10654FEA0026C5
:104640000EF000419D4208BF964244F1FD0404F57E
:10465000407402D25B084FEA3202B61A65EB0305DA
:104660005B084FEA32024FF480104FF4002CB6EB97
:10467000020E75EB030E22BFB61A754640EA0C0017
:104680005B084FEA3202B6EB020E75EB030E22BF57
:10469000B61A754640EA5C005B084FEA3202B6EB98
:1046A000020E75EB030E22BFB61A754640EA9C0057
:1046B0005B084FEA3202B6EB020E75EB030E22BF27
:1046C000B61A754640EADC0055EA060E18D04FEAE5
:1046D000051545EA16754FEA06164FEAC30343EA85
:1046E00052734FEAC2025FEA1C1CC0D111F4801F52
:1046F0000BD141EA00014FF000004FF0004CB6E74B
:1047000011F4801F04BF01430020B4F1FD0C88BFE9
:10471000BCF5E06F3FF6AFAEB5EB030C04BFB6EBF4
:10472000020C5FEA500C50F1000041EB045170BDE7
:104730000EF0004E4EEA113114EB5C04C2BFD4EB14
:104740000C0541EA045170BD41F480114FF0000E98
:10475000013C90E645EA060E8DE60CEA135594EA14
:104760000C0F08BF95EA0C0F3FF43BAF94EA0C0F17
:104770000AD150EA01347FF434AF95EA0C0F7FF48C
:1047800025AF104619462CE795EA0C0F06D152EAE0
:1047900003353FF4FDAE1046194622E750EA4106C4
:1047A00018BF52EA43067FF4C5AE50EA41047FF4D5
:1047B0000DAF52EA43057FF4EBAE12E74FF0FF3C3A
:1047C00006E000BF4FF0010C02E000BF4FF0010C0B
:1047D0004DF804CD4FEA410C7FEA6C5C4FEA430C84
:1047E00018BF7FEA6C5C1BD001B050EA410C0CBFD3
:1047F00052EA430C91EA030F02BF90EA020F002035
:10480000704710F1000F91EA030F58BF994208BF9B
:1048100090422CBFD8176FEAE37040F00100704758
:104820004FEA410C7FEA6C5C02D150EA013C07D1AF
:104830004FEA430C7FEA6C5CD6D152EA033CD3D0FA
:104840005DF8040B704700BF8446104662468C46F4
:104850001946634600E000BF01B5FFF7B7FF002827
:1048600048BF10F1000F01BD4DF808EDFFF7F4FF50
:104870000CBF012000205DF808FB00BF4DF808EDDB
:10488000FFF7EAFF34BF012000205DF808FB00BFFE
:104890004DF808EDFFF7E0FF94BF012000205DF820
:1048A00008FB00BF4DF808EDFFF7CEFF94BF0120D5
:1048B00000205DF808FB00BF4DF808EDFFF7C4FFCE
:1048C00034BF012000205DF808FB00BF4FEA410C17
:1048D0007FEA6C5C02D150EA013C0AD14FEA430CFA
:1048E0007FEA6C5C02D152EA033C02D14FF0000037
:1048F00070474FF0010070474FEA410212F5001275
:1049000015D211D56FF47873B3EB625212D94FEA16
:10491000C12343F0004343EA505311F0004F23FA00
:1049200002F018BF404270474FF00000704750EA55
:10493000013005D111F0004008BF6FF00040704712
:104940004FF00000704700BF4A0011D212F500126C
:1049500011D20DD56FF47873B3EB62520ED44FEAD7
:10496000C12343F0004343EA505323FA02F0704757
:104970004FF00000704750EA013002D14FF0FF3095
:1049800070474FF0000070474FEA4102B2F1E04338
:1049900024BFB3F5001CDCF1FE5C0DD901F0004C26
:1049A0004FEAC0024CEA5070B2F1004F40EB830076
:1049B00008BF20F00100704711F0804F21D113F1A2
:1049C0003872BCBF01F00040704741F480114FEADB
:1049D0005252C2F11802C2F1200C10FA0CF320FA64
:1049E00002F018BF40F001004FEAC1234FEAD32381
:1049F00003FA0CFC40EA0C0023FA02F34FEA4303EB
:104A0000CCE77FEA625307D150EA01331EBF4FF073
:104A1000FE4040F44000704701F0004040F0FE408E
:104A200040F40000704700BFD0B50C4B0022064692
:104A30000F46FFF7B1FCFFF787FF0446FFF732FC94
:104A4000074B0022FFF7A8FC02460B4630463946CA
:104A5000FFF7EAFAFFF778FF2146D0BD0000F03DEE
:104A60000000F04110F8012B11F8013B012A28BF8A
:104A70009A42F7D0D01A7047034613F8012B002A48
:104A8000FBD1181A0138704738B5002200230446BC
:104A90000D46FFF7F3FE28B920462946BDE8384009
:104AA000FFF7C2BF204605F10041FFF7BDFF4042BE
:104AB00061EB410138BD00BF09480A49884208B589
:104AC00005D0094A824202D0121A06F0D9FB0748E3
:104AD000074A0021121A06F0FBFB014808BD00BF7F
:104AE00068E0032018E50B0050E2032050E20320A9
:104AF000FCE7032070B5074E074C05F02BF8A41B0C
:104B0000A4080025AC4200D170BD56F8043B98477C
:104B10000135F7E7CCE40B00F4E40B0000F026BD10
:104B200008B500F0B9FDBDE8084004F0CBBF02F0C5
:104B3000F5BD02F0F3BD02F0F9BD02F0F7BD0000D3
:104B400008B5034A03490C2002F0ECFCFEE700BF65
:104B500075720B0038D40B000078B0FA80F0400971
:104B6000704701230370704710B52DED048B90ED55
:104B70001E8AB0EE480A044605F018FAF0EE408AA4
:104B8000B0EE480A05F04AFAD4ED1D9AB0EE408A1C
:104B9000B0EE690A05F00AFAB0EE409AB0EE690A82
:104BA00005F03CFA94ED0A7AD4ED096A67EE080A3A
:104BB000F0EE407A60EE800A94ED0B0A28EE408A0F
:104BC000E6EE890AA7EE288A60EE286AB1EE480A66
:104BD000E6EEA70A05F090FABDEC048B84ED1F0AFF
:104BE00010BD70B52DED028B00F1E00600F1EC0573
:104BF0008CB02A463146044601F088FBF6EE008A66
:104C000020EE680A2A4603A920468DED010A01F02C
:104C1000B8FB9DED010A324606A9204601F0B1FB22
:104C200003AA33461146204601F0BEFB06AA2B46D6
:104C30001146204601F0B8FB06AB03AA09A920469D
:104C400001F074FB03AA1146204601F05FFBB0EEB1
:104C5000088A38EE400A03AA20EE280A3146204688
:104C600001F08FFB06AA1146204601F04FFB38EEFB
:104C7000400A06AA20EE280A2946204601F081FBB8
:104C800009AA1146204601F041FB38EE400A09AA64
:104C900020EE280A04F1F801204601F072FB0CB066
:104CA000BDEC028B70BD00002DE9F0412DED048BB1
:104CB00090ED210AD0ED207ADFED458A20EE000A42
:104CC0000446A7EEA70A04F1C80504F1F808D0EDE0
:104CD000227AA7EEA70A05F011FADFED3E6ADFEDB2
:104CE0003E0AB7EE007AF0EE477AE0EE667A2046AA
:104CF00004F1A407F0EE006AF5EEC07AF1EE10FAC6
:104D0000D8BFF1EE677AA7EEE67A04F1D406B7EEE3
:104D1000001AB0EE470A01F0CBFC434604F18002D2
:104D200029462046B0EE408A01F000FB9FED2B0A99
:104D30002A4628EE000A3946204601F022FB28EEDA
:104D4000280A2A46204604F1B005254901F019FB3E
:104D5000234B2A462946204601F026FB94ED1F9A54
:104D6000B0EE490A05F022F9B0EE408AB0EE490AE9
:104D700005F054F994ED3B7AD4ED387A27EE487A71
:104D80004246A7EE807A31462046B0EE470A01F04F
:104D9000F8FA9FED140A14493246204601F0F1FA60
:104DA000114B3A463946204601F0FEFA324620467B
:104DB0000B49B0EE680A01F0E4FABDEC048B2A4618
:104DC00029462046064BBDE8F04101F0EDBA00BF90
:104DD000ACC5A7370000803B000000000AD7A33C09
:104DE00050E203209A99993F5CE203200000000002
:104DF00038B50446406DFFF777FA45A3D3E90023A1
:104E0000FFF7CAFAFFF7C0FDC4F88C00A06DFFF7EA
:104E10006BFA3FA3D3E90023FFF7BEFAFFF7B4FD17
:104E2000C4F89000E06DFFF75FFA39A3D3E90023DF
:104E3000FFF7B2FAFFF7A8FD2368C4F88030636873
:104E4000C4F8843004F1BC05A368C4F89400C4F825
:104E5000883004F18C0204F1B0032946204601F0A9
:104E6000A3FA04F1A4032A4604F19801204601F0B4
:104E70009BFAD4ED557AD4ED286A27EEE67A67EEF0
:104E8000A66A84ED427A94ED277AC4ED446A27EE4F
:104E9000876AD4ED266A84ED436A27EEC77A27EE47
:104EA000E66A67EEA67A0023C4F80431C4F8143128
:104EB000C4F8243184ED466A04F5947384ED477A8E
:104EC000C4ED487A04F5827204F1E001204601F055
:104ED00078FA04F12403D4ED387A94ED4A7A77EE27
:104EE000877A94ED4B7AC4ED387AD4ED397A77EE3F
:104EF000877A94ED4C7AC4ED397AD4ED3A7A77EE2C
:104F0000877A0C34C4ED377AA342E4D138BD00BFB0
:104F100001FFA8C4D4E4533F10B590ED3E0A044607
:104F200005F0B6F8B1EE400AD4ED400A84ED1D0A52
:104F300094ED3F0A05F0E0F8D4ED380A84ED1E0A3E
:104F400094ED3B0A05F0D8F884ED1C0A10BD000072
:104F50002DE9F0471946064610469DF82070144684
:104F60001D46FFF7B3FC28B14C493046BDE8F04779
:104F700004F0ECBA25F00049494B4FF0FF322046CF
:104F80004946FFF7A3FC48B9454B4FF0FF32204696
:104F90004946FFF77DFC08B94249E6E7424B4FF02E
:104FA000604220462946FFF787FC08B13F49DCE70D
:104FB0003F4B4FF0604220462946FFF75FFC002838
:104FC000F4D10022002320462946FFF757FC30B1D8
:104FD0002D21304604F0BEFA05F100431D46354947
:104FE000DFF8D8904FF0000A00204FF000085FFA79
:104FF0008AF39F4206D942464B46FFF7F7FA0AF179
:10500000010AF4E722462B46FFF710F80D46044646
:10501000FFF79AFC8046FFF745F902460B4620460B
:105020002946FFF701F80A2204460D46304641465C
:1050300004F0A9FA7FB32049DFF88090304604F0ED
:1050400085FA4FF0000837B342464B4620462946C2
:10505000FFF7A2F904460D46FFF74EFCB0F1000A37
:1050600017DA2D21304604F075FACAF100010A2240
:10507000304604F088FA5046FFF724F902460B4602
:1050800020462946FEF7D0FF013F04460D46FFB2F9
:10509000D9E75146EBE7BDE8F08700BF4DD40B00E0
:1050A000FFFFEF7F51D40B00FFFFEF4155D40B0002
:1050B000FFFFEFC10000E03F59D40B000000244087
:1050C00037B5054610EE100A0C46FFF70DF9E4B2AD
:1050D00002460B4600942846FFF73AFF03B030BD66
:1050E0002DE9F04104460D4600293ED104F064FC50
:1050F0006749684E684F04F029FAF4EC017A94EDA0
:10510000027AF4EEC77A94ED057AF1EE10FAF4EE35
:10511000C77A48BFC4ED027AF1EE10FAC8BFC4EDF9
:10512000057A04F049FC94ED020A0221FFF7C8FF5A
:1051300004F042FC314604F009FA04F03DFC94ED21
:10514000050A0221FFF7BCFF022D09D004F034FC50
:10515000394604F0FBF90135032DCED1BDE8F081CD
:1051600004F02AFC04F0F9F9F5E701293FD104F035
:1051700023FC4A49474E484F04F0E8F924340025FF
:10518000F4EC017A94ED027AF4EEC77A94ED057AA4
:10519000F1EE10FAF4EEC77A48BFC4ED027AF1EEF0
:1051A00010FAC8BFC4ED057A04F006FC94ED020ABB
:1051B0000221FFF785FF04F0FFFB314604F0C6F93A
:1051C00004F0FAFB94ED050A0221FFF779FF022DA6
:1051D00008D004F0F1FB394604F0B8F90135032D8D
:1051E000CED1BBE704F0E8FB04F0B7F9F6E70229FB
:1051F000B4D1D0ED187A90ED157AC36E254FDFF853
:10520000988077EE877A90ED167AC0ED187AD0ED17
:10521000197A77EE877A90ED177AC0ED197AD0ED8A
:105220001A7A77EE877A0133C0ED1A7AC36604F0F2
:10523000C3FB1B4904F08AF904F15406002504F06D
:10524000BBFBB6EC010A0221FFF73AFF04F0B4FB06
:10525000394604F07BF904F0AFFBD4ED1B7A96EDF0
:10526000020AF8EEE77A022180EE270AFFF728FF0C
:10527000022D08D004F0A0FB414604F067F9013587
:10528000032DDCD16AE704F097FB04F066F9F6E73A
:105290005BD40B0074D40B008FDC0B0076D40B00B6
:1052A0008ED40B007047000070B5104B104E1D6877
:1052B00086B00446A868FFF717F8CDE904016868CE
:1052C000FFF712F8CDE902012868FFF70DF8094A47
:1052D000CDE900014FF48071304602F037FA3146D3
:1052E000204604F024FA204606B070BD78E2032080
:1052F00080E20320C9D50B0070B5104B104E1D681D
:1053000086B00446A868FEF7EFFFCDE9040168689F
:10531000FEF7EAFFCDE902012868FEF7E5FF094A3A
:10532000CDE900014FF48071304602F00FFA3146AA
:10533000204604F0FCF9204606B070BD70E503205D
:1053400080E20320C9D50B0070B5104B104E1D68CC
:1053500086B00446A868FEF7C7FFCDE90401686877
:10536000FEF7C2FFCDE902012868FEF7BDFF094A3A
:10537000CDE900014FF48071304602F0E7F9314683
:10538000204604F0D4F9204606B070BD80E3032027
:1053900080E20320C9D50B0030B5144B144D89B001
:1053A00004461868FEF7A0FFCDE90601114B186806
:1053B000FEF79AFFCDE904010F4B1868FEF794FF42
:1053C000CDE902010D4B1868FEF78EFF0C4ACDE9BE
:1053D00000014FF48071284602F0B8F929462046B2
:1053E00004F0A5F9204609B030BD00BF74E50320E4
:1053F00080E203207CE5032078E5032080E503209C
:10540000C3D50B0030B5114B114D87B00446186859
:10541000FEF76AFFCDE904010E4B1868FEF764FF42
:10542000CDE902010C4B1868FEF75EFF0B4ACDE98F
:1054300000014FF48071284602F088F92946204681
:1054400004F075F9204607B030BD00BF7CE20320B0
:1054500080E203206CE5032000E50320AED40B00BE
:1054600010B5034B0360044601F062FB204610BDFB
:1054700060D80B0010B50446FFF7F2FF20464FF44A
:105480000C71FFF75AFB204610BD00001FB500232A
:10549000CDE901330C23ADF80430044B039304220F
:1054A00001AB02F093F805B05DF804FBB1540B00BA
:1054B00030B585B00346144668460D4698470298B5
:1054C000206002F02BF9286050B12268009905F0A5
:1054D000D7FE0024684604F0DFF8204605B030BD52
:1054E000004CF7E7FCFEFFFF0A4B10B504460360D3
:1054F00003F034F9214603F07EFB04F05DFA04F07A
:105500004DFA2046044B40F8043B03F0FDF92046D9
:1055100010BD00BF48D80B0030D80B0010B50446B2
:10552000FFF7E2FF20462421FFF707FB204610BDCE
:1055300070B5B0B10B4600F10802026053F8084B99
:105540009C420FD11C4601F1180554F8046B42F837
:10555000046BAC42F9D14A680B60002342604B6097
:105560000B7270BD8A6804608260F4E737B500236F
:1055700004223649364802F029F836493648FFF702
:1055800085FF36493648FFF781FF36493648FFF731
:105590007DFF36493648FFF779FF00243549364804
:1055A000FFF774FF22460123CDE900443349344814
:1055B00002F034F83349344801F01FFD33493248D2
:1055C00001F0DAFD01F016FD04F0F6F94FF4614147
:1055D00004F0E0F9204601F05DFE41F28835044612
:1055E000002001F057FE001B61F10001A84271F19B
:1055F000000307D204F0E0F904F0D3F910B901F088
:10560000EDFFEDE704F0D8F904F0CBF90121072014
:1056100004F010FB0121062004F00CFB0121052001
:1056200004F008FB0121042004F004FB02210846D9
:1056300004F000FB052002F0C1F804F0BDF91449A4
:1056400003B0BDE8304003F094BF00BFC0D40B00EE
:1056500013D50B00A9520B0076D80B00F9520B00A2
:1056600092D80B0049530B00C9D40B0099530B007F
:10567000D3D40B0005540B00E9D40B00295D0B00BB
:10568000F5D40B000ED50B0004E5032049580B00A0
:105690001CD50B000000000010B5274C204600F080
:1056A000E3FD264B206F1C60254B04F124021A6099
:1056B000244B04F154021A60FEF716FE1CA3D3E932
:1056C0000023FEF769FEFFF75FF91F4B1860606F5C
:1056D000FEF70AFE16A3D3E90023FEF75DFEFFF7EF
:1056E00053F91A4B1860A06FFEF7FEFD10A3D3E923
:1056F0000023FEF751FEFFF747F9154BE26F1860E4
:10570000144B15481A6001F0E9FC022004F0BCFAC1
:1057100060B9114801F0A6FC0620012104F09BFAB3
:10572000BDE810404FF47A7002F048B810BD00BFD9
:10573000B0CB631ADCA54C4084E3032078E203205D
:1057400070E5032080E3032080E5032078E5032053
:105750007CE5032074E5032004E5032038B50468E4
:1057600005467CB16368013B63605BB923682046F2
:105770009B689847A368013BA3601BB92368204638
:10578000DB689847284638BD70B5D0E90053142629
:10579000044606FB0356AE4204D0284603F07CFFC5
:1057A0001435F8E7206801F0C1FF204670BD13B53D
:1057B00004468DED000A019101F0C6FA019901221B
:1057C000204601F02FFA20463A2101F0DFF99DED45
:1057D000000A204602B0BDE8104001F0D9BA00002E
:1057E00010B5D0E900420648121BD2104243914244
:1057F00002D3044804F0E7FA182000FB014010BD72
:10580000ABAAAAAA31D50B0038B50468002001F074
:10581000B9FE20B1637813B901F0E0FEFAE76378CE
:10582000BFF35B8F651C0BB9002038BD002001F071
:10583000A9FE20B12B7813B901F0D0FEFAE7237846
:10584000012BF1D1207BF0E72DE9F04FB24BB34CA7
:10585000DFF84CA3DFF84CB3B14DB24E2DED048B05
:1058600083ED000AB04BC3ED000AB04BADF52F7DC0
:1058700000210620B0EE409AF0EE608AB0EE418A38
:1058800083ED001A04F0E7F90121042004F0E3F9A4
:105890004FF47A7001F092FFA54BD4F8009018688D
:1058A000D5F800803768FEF71FFDCDE91E01A14B3A
:1058B0001868FEF719FDCDE91C01DAF80000FEF7C3
:1058C00013FDCDE91A01DBF80000FEF70DFDCDE96F
:1058D0001801D9F80800FEF707FDCDE91601D9F83F
:1058E0000400FEF701FDCDE91401D9F80000FEF730
:1058F000FBFCCDE91201D8F80800FEF7F5FCCDE974
:105900001001D8F80400FEF7EFFCCDE90E01D8F83D
:105910000000FEF7E9FCCDE90C01B868FEF7E4FCF5
:10592000CDE90A017868FEF7DFFCCDE908013868A7
:10593000FEF7DAFCCDE9060118EE100AFEF7D4FCFA
:10594000CDE9040118EE900AFEF7CEFCCDE9020184
:1059500019EE100AFEF7C8FC774ACDE900014FF4B2
:105960008071764801F0F2FE754B744A1B787549D8
:105970008DF8003022A83C2302F0B2F822A8FFF7ED
:1059800043FF074623A8FFF7E9FE27B104F014F808
:105990006D4903F0EEFD4FF400722EA922A801F02C
:1059A000E3F86A4B22937D227B2122A801F0D7F9EC
:1059B00022A801F0C9F90122654922A801F032F9B3
:1059C0003A2122A801F0E2F80122624922A801F05E
:1059D00029F96149B0EE490A22A8FFF7E8FE5F49BC
:1059E000B0EE680A22A8FFF7E2FE5D49B0EE480A71
:1059F00022A8FFF7DCFE33685A4993ED000A22A87B
:105A0000FFF7D5FE3368584993ED010A22A8FFF746
:105A1000CEFE3368554993ED020A22A8FFF7C7FE70
:105A20002B68534993ED000A22A8FFF7C0FE2B68AC
:105A3000504993ED010A22A8FFF7B9FE2B684E49A1
:105A400093ED020A22A8FFF7B2FE23684B4993EDBB
:105A5000000A22A8FFF7ABFE2368494993ED010A2B
:105A600022A8FFF7A4FE2368464993ED030A22A863
:105A7000FFF79DFE9BED000A434922A8FFF797FE22
:105A80009AED000A414922A8FFF791FE294B4049AF
:105A900093ED000A22A8FFF78AFE254B3D4993EDBE
:105AA000000A22A8FFF783FE22A801F07DF803F088
:105AB00083FF239903F05DFD214B239A1B78364920
:105AC0008DF8003020A83C2302F00AF820A8FFF748
:105AD0009BFE044621A8FFF741FE24B103F06CFFB2
:105AE0002E4903F046FD0021042004F0B4F8012102
:105AF000052004F0B0F840F2EA3001F05FFE00212A
:105B0000052004F0A8F822A8FFF7AAFC0DF52F7DC8
:105B1000BDEC048BBDE8F08F00E5032080E303209B
:105B200070E5032078E203206CE503207CE203208B
:105B300074E503207CE503207BD50B0080E2032085
:105B400074E20320F5D40B00DBD50B0060D80B000A
:105B5000FED50B000AD60B001BD60B001FD60B0080
:105B600023D60B0028D60B0030D60B0038D60B00FE
:105B700040D60B004BD60B0056D60B0061D60B005F
:105B800068D60B006FD60B0076D60B007AD60B00CA
:105B900080D60B00DFD40B0085D60B009CD60B0003
:105BA00078E5032080E503208842F8B504460D46D9
:105BB000164616D9904215D2A2F11406751AA1F113
:105BC00014072C44B7421CD02CB13146204603F0B8
:105BD000E0FD337C2374304603F05EFD143E143C3C
:105BE000F0E70ED0B5420CD02CB12946204603F088
:105BF000D0FD2B7C2374284603F04EFD143514345D
:105C0000F0E7F8BD2DE9F0410023C0E900338360DF
:105C10004F689F4204460E4623DD4FF0140808FBF0
:105C200007F001F07BFD0546D8B1D4E9001208FB6E
:105C30000212FFF7B9FF206801F078FD2560A76028
:105C4000D6E9007308FB0378B84508D039462846E2
:105C500003F0B9FD3B7C2B7414371435F4E77368FB
:105C600063602046BDE8F0812DE9F74FD0E9008A56
:105C70002A4CAAEB08038946DB101146284A6343E5
:105C80009342074602D1274804F09AF8012B1C469C
:105C900038BF0124E418A9EB08051CD2ECB19442EA
:105CA00028BF1446182060430191FEF740FF019978
:105CB00006467019FFF73CFC45463046A94500F101
:105CC000180B0CD02946FFF733FC284604F054F992
:105CD00018355846F2E71446E4E72646E9E7554505
:105CE0000AD029465846FFF723FC284604F044F919
:105CF00018350BF1180BF2E7B8F1000F05D0B968B1
:105D00004046A1EB0801FEF718FF182000FB0464D1
:105D1000C7E9006BBC6003B0BDE8F08FABAAAAAACC
:105D200055555505CFD60B002DE9F0438BB000AF8C
:105D30000C4603F041FE03F010FC03F03DFECB499E
:105D4000CB4D03F016FC03F037FE214603F011FCA7
:105D500003F032FE03F001FC00232046C7E90133C3
:105D6000FB60FEF789FE073020F00700ADEB000D69
:105D70002146684605F0F9FABD49684606F072F911
:105D80000446002C39D007F1180320463B61FEF78A
:105D900073FE0F2804EB0006386008D9002239464C
:105DA00007F1100004F0C6F83B683861BB61386940
:105DB0003246214604F0F4F83B683A697B610021E1
:105DC000D154D7E90203984210D007F11001FFF730
:105DD000AFFBBB681833BB6007F1100004F0CCF8D0
:105DE0002946002006F03EF90446CAE7014607F1BD
:105DF0001002381DFFF738FFEEE79E4D9E4EDFF88C
:105E0000CC82D7E901239B1ADB106B43A34240F2FB
:105E100016810F2C46D8DFE814F01000450045002D
:105E2000470045004500760045004500A5004500B7
:105E30004500D40045004500030103F0BDFD8F4936
:105E400003F084FB03F0B8FD8D4903F07FFB03F002
:105E5000B3FD00218146381DFFF7C2FC01684846AA
:105E600003F074FB03F0A8FD864903F06FFB03F019
:105E7000A3FD01218146381DFFF7B2FC01684846A9
:105E800003F064FB03F098FD7F4903F05FFB03F030
:105E900093FD02218146381DFFF7A2FC01684846A8
:105EA00003F067FB0334ACE703F086FD774903F0AA
:105EB0004DFB03F081FD764903F048FB03F07CFDC8
:105EC00003218146381DFFF78BFC0168484603F02B
:105ED0003DFB03F071FD6F4903F038FB03F06CFDEF
:105EE000042181467818FFF77BFC0168484603F0DF
:105EF0002DFB03F061FD684903F028FB03F05CFD16
:105F000005218146C7E703F057FD644903F01EFBF6
:105F100003F052FD624903F019FB03F04DFD062129
:105F20008146381DFFF75CFC0168484603F00EFB14
:105F300003F042FD5B4903F009FB03F03DFD07213F
:105F40008146381DFFF74CFC0168484603F0FEFA15
:105F500003F032FD544903F0F9FA03F02DFD082156
:105F6000814698E703F028FD504903F0EFFA03F06B
:105F700023FD4F4903F0EAFA03F01EFD0921814693
:105F8000381DFFF72DFC0168484603F0DFFA03F0E7
:105F900013FD484903F0DAFA03F00EFD0A218146A9
:105FA000381DFFF71DFC0168484603F0CFFA03F0E7
:105FB00003FD414903F0CAFA03F0FEFC0B218146C0
:105FC00069E703F0F9FC3D4903F0C0FA03F0F4FC83
:105FD0003B4903F0BBFA03F0EFFC0C218146381D6E
:105FE000FFF7FEFB0168484603F0B0FA03F0E4FC5B
:105FF000344903F0ABFA03F0DFFC0D218146381D74
:10600000FFF7EEFB0168484603F0A0FA03F0D4FC6A
:106010002D4903F09BFA03F0CFFC0E2181463AE7AD
:1060200003F0CAFC314603F091FA03F0C5FC414687
:1060300003F08CFA03F0C0FC0F2181462BE703F03C
:10604000BBFC03F08AFAD7E90145A54204D02046FB
:1060500003F092FF1834F8E7786818B1F968091A64
:10606000FEF76BFD2C37BD46BDE8F083E9D60B008B
:1060700020D70B00ABAAAAAA12D80B0022D70B007C
:1060800030D70B003BD70B0048D70B0054D70B0081
:1060900064D70B006FD70B007BD70B0087D70B00A3
:1060A00096D70B00A1D70B00ADD70B00B9D70B00CB
:1060B000C5D70B00CFD70B00DAD70B00E5D70B0005
:1060C000FBD70B0001D80B0009D80B001FD80B0021
:1060D000F0B5284B2848294D00248DB01C7000F0E5
:1060E00041FA274800F060FFCDE90044029403F034
:1060F00063FC6946064603A8FFF784FD2F4603A903
:1061000006A8FFF77FFD1F4B47F8043B06A909A827
:10611000FFF778FD09AA1E21384602F00DFE09A8F6
:10612000FFF732FB06A8FFF72FFB174B2B6003A8E6
:106130002E62FFF729FB154B2B6003F03DFC4FF45B
:10614000165103F027FC02F009FB294602F00CFD72
:106150006846FFF719FB2146012001F00BFA0C4BB2
:106160000C4A9A600120C3E900440DB0BDE8F0403C
:1061700001F0F0B974E2032084E3032048E5032032
:1061800004E5032030D80B00B8DA0B0048D80B0028
:1061900068E203200000FFFF10B5044600F04AFC4F
:1061A000204600F0E9FA2046BDE8104000F078BB38
:1061B0009FED147AD0ED007A67EE877AC0ED007A11
:1061C000D0ED017A67EE877AC0ED017AD0ED027AE0
:1061D00067EE877A9FED0C7AC0ED027AD0ED097AEE
:1061E00067EE877AC0ED097AD0ED0A7A67EE877A92
:1061F000C0ED0A7AD0ED0B7A67EE877AC0ED0B7AA4
:10620000704700BF6F12833FABAA2A3E90F86031FF
:106210001BB3024652F8183B83614368536083689E
:106220009360024652F80C3BC36043685360836836
:106230009360436AC363836A0364C36A4364436AC3
:106240000363836A4363C36A836300220023C266D5
:1062500083664366036680F860217047002180F8FA
:106260005811072003F0F7BC10B5044601F00AF8F6
:10627000D4F84C31C01A13282FD9C4F8503101F08A
:1062800001F8D4F85031C4F84C0183423DBFC01A24
:1062900007EE900ADFED1B6A9FED1B7A38BFF8EE20
:1062A000677A204638BF87EEA67A84ED557AFFF7E5
:1062B00073FFD4F870318BB92046FFF7A7FF94F82D
:1062C000583113B994F8593123B1D4F85C112046F0
:1062D000FEF706FF012384F8593110BD012BF9D1D7
:1062E0002046FFF765FFFEF73FFC2046FEF780FDE6
:1062F0002046FEF776FC2046FEF7D6FC2046FEF749
:106300000BFEE7E700007A44000000009FED060A5C
:1063100001F10C03B1EC017AF2EC017A9942A7EE9B
:10632000270AF7D1704700BF0000000092ED027A03
:10633000D3ED017AD2ED016A67EEC77A93ED027A66
:10634000E6EE877AC1ED007A92ED007AD3ED027A1B
:10635000D2ED026A67EEC77A93ED007AE6EE877AAD
:10636000C1ED017A92ED017AD3ED007AD2ED006AA7
:1063700067EEC77A93ED017AE6EE877AC1ED027A8D
:106380007047D2ED007A67EE807AC1ED007AD2EDE7
:10639000017A67EE807AC1ED017AD2ED027A27EEBA
:1063A000800A81ED020A704702F10C00F2EC017ADA
:1063B000B3EC017A77EE877A8242E1EC017AF5D18B
:1063C000704770B501F1240502F10C0610461C4619
:1063D000B0EC017AD1ED017AD0ED026A67EEA67ACF
:1063E000D1ED006AE6EE877A8642D1ED026A90ED41
:1063F000057AE6EE877AE4EC017AE9D10C318D4238
:1064000003F10C03E2D170BD10B52DED068BF0EE5B
:1064100040AAB0EE410A0C46B0EE608AF0EE418A26
:1064200003F0C4FDB0EE409AB0EE680A03F0F6FD4A
:10643000F0EE409AB0EE480A03F0B8FDB0EE40AA84
:10644000B0EE480A03F0EAFDF0EE408AB0EE6A0AC8
:1064500003F0ACFDB0EE408AB0EE6A0A03F0DEFD58
:106460006AEE087A20EE497AC4ED007A69EE887AFD
:1064700029EE088AA7EEA87A84ED017A28EE287A18
:10648000A9EE807A84ED027A2AEE007A84ED037A0E
:1064900029EEA87A69EE8A9AA7EE008A29EE287A70
:1064A00029EE0A9AF1EE688A84ED048AC4ED068A20
:1064B000C4ED079A84ED089ABDEC068BD7EE007AFE
:1064C000C4ED057A10BD10B52DED028B8AB04FF0EA
:1064D0007E5304460793002308930993FFF75CFE5D
:1064E00000F0D0FE94ED020AD4ED017AC4F84C011C
:1064F00020EE000A94ED008AA7EEA70A03F0FEFD45
:10650000F0EE400AB0EE480A03F0F6FDB1EE400AA4
:10651000204601A984ED1D0A07AB2246FFF706FFBE
:106520000B4607AA04A9FFF701FFDDED060A9DED62
:10653000050A03F0E1FD204684ED1E0AFEF714FB78
:1065400094ED1F0A94ED1E1AD4ED1D0A84ED1C0A69
:1065500004F1E0012046FFF757FF0AB0BDEC028BC3
:1065600010BD00002DE9F041504E00254FF000080D
:10657000B4460446C0F86C80056745678567C56703
:10658000C0F88050C0F88450C0F88850C0F88C50D3
:10659000C0F89050C0F89450C0F89850C0F89C5083
:1065A000C0F8A050C0F8A450C0F8A850C0F8AC5033
:1065B000C0F8B050C0F8B450C0F8B850C0F8BC50E3
:1065C000C0F8C050C0F8C450C0F8C850C0F8CC5093
:1065D000C0F8D050C0F8D450C0F8D850C0F8DC5043
:1065E00000F1E007BCE80F000FC7BCE80F000FC7C1
:1065F0002436DCF800303B600FCE04F582770FC7FD
:106600000FCE0FC733683B602422414604F59470D7
:1066100004F05EFE40F20113A4F858310123C4E9EE
:106620005B8384F860314146C4E95388C4E95988E2
:10663000C4F85451C4F85C81C4F8748184F878813A
:1066400025666565E56325636562A561E56025608E
:106650006566A56525646563A562E561256165607C
:10666000A566E5656564A5630720E5622562656149
:10667000A56003F0F0FA322001F0A0F8204600F007
:1066800028F8204600F02CF8204600F0D5F82046E7
:1066900000F06CF9142001F091F82046FFF713FF89
:1066A0002046FFF7DBFD2046BDE8F081DCD30B0080
:1066B000B4EEC10AF1EE10FAD8BFB0EE401AB4EE53
:1066C000E01AF1EE10FA54BFB0EE410AB0EE600AE3
:1066D000704708B503F006FBBDE8084001F0F4BBC5
:1066E00008B503F0FFFA532101F024FC03F0FAFA95
:1066F00003682D219B68984703F0F4FA036808218A
:106700009B68984703F0EEFA01F01BFC052001F0AE
:1067100055F803F0E7FA532101F00CFC03F0E2FA1C
:10672000036831219B68984703F0DCFA036808216D
:106730009B68984703F0D6FA01F003FC052001F0AE
:106740003DF803F0CFFA532101F0F4FB03F0CAFA4D
:1067500003682C219B68984703F0C4FA0368092159
:106760009B68984703F0BEFA01F0EBFBBDE80840D8
:10677000052001F023B8000073B5044603F0B2FA17
:10678000532101F0D7FB03F0ADFA036832219B6877
:10679000984703F0A7FA01F0D4FB03F0A3FA5321C2
:1067A00001F0C8FB03F09EFA0622532101F0BBFB67
:1067B0006E46002503F096FA03681B69984740B1BE
:1067C00003F090FA03685B699847013506F8010BFE
:1067D000F0E703F087FA01F0B4FB062D19D1BDF9FB
:1067E000023007EE903ABDF90030F8EEE77AC4EDDA
:1067F000007A07EE903ABDF90430F8EEE77AC4ED7E
:10680000017A07EE903AF8EEE77AC4ED027A02B028
:1068100070BDD4F864310133C4F8643194F8783130
:10682000002BF4D003F0C8F8024902B0BDE8704074
:1068300002F09FBE68D80B0008B503F053FA1E2182
:1068400001F078FB03F04EFA036802219B68984739
:1068500003F048FA036800219B68984703F042FA66
:1068600001F06FFB052000F0A9FF03F03BFA1E21A9
:1068700001F060FB03F036FA036800219B6898473B
:1068800003F030FA036818219B68984703F02AFA4E
:1068900001F057FBBDE80840052000F08FBF000065
:1068A00073B5044603F01EFA1E2101F043FB03F00A
:1068B00019FA036803219B68984703F013FA01F063
:1068C00040FB03F00FFA1E2101F034FB03F00AFA3B
:1068D00006221E2101F027FB6E46002503F002FA76
:1068E00003681B69984740B103F0FCF903685B69D2
:1068F0009847013506F8010BF0E703F0F3F901F0D2
:1069000020FB062D1FD1BDF800305BBA9BB207EE0D
:10691000903ABDF80230F8EEE77ADBBA5B42C4ED9C
:10692000097A07EE903ABDF80430F8EEE77ADBBA60
:106930005B42C4ED0A7A07EE903AF8EEE77AC4EDCE
:106940000B7A02B070BDD4F868310133C4F86831F5
:1069500094F87831002BF4D003F02EF8024902B0FD
:10696000BDE8704002F005BE84D80B0008B503F006
:10697000B9F9682101F0DEFA03F0B4F903683E21A9
:106980009B68984703F0AEF9036880219B6898479D
:1069900003F0A8F901F0D5FA052000F00FFF03F08D
:1069A000A1F9682101F0C6FA03F09CF903681621E9
:1069B0009B68984703F096F903681B219B689847EA
:1069C00003F090F901F0BDFA052000F0F7FE03F0A6
:1069D00089F9682101F0AEFA03F084F90368152102
:1069E0009B68984703F07EF903680A219B689847E3
:1069F00003F078F901F0A5FA052000F0DFFE03F0BE
:106A000071F9682101F096FA03F06CF903683E21F0
:106A10009B68984703F066F9036800219B689847D4
:106A200003F060F901F08DFABDE80840052000F0A0
:106A3000C5BE000073B5044603F054F9682101F0A7
:106A400079FA03F04FF903681D219B68984703F01A
:106A500049F901F076FA03F045F9682101F06AFA84
:106A600003F040F90622682101F05DFA6E46002528
:106A700003F038F903681B69984740B103F032F915
:106A800003685B699847013506F8010BF0E703F0EE
:106A900029F901F056FA062D1FD1BDF80230DBBAF4
:106AA0005B4207EE903ABDF80030F8EEE77ADBBAC9
:106AB0005B42C4ED157A07EE903ABDF80430F8EE6B
:106AC000E77ADBBA5B42C4ED167A07EE903AF8EE4D
:106AD000E77AC4ED177A02B070BDD4F86C31013397
:106AE000C4F86C3194F87831002BF4D002F064FFD4
:106AF000024902B0BDE8704002F03BBD9FD80B00D8
:106B000010B5054B0360037C04461BB9406808B10F
:106B100000F00CFE204610BDD0D80B0010B5044686
:106B2000FFF7EEFF20461421FEF707F8204610BDC0
:106B300010B5034B03600446FFF7E2FF204610BD8B
:106B4000E0D80B0010B50446FFF7F2FF20463021D5
:106B5000FDF7F3FF204610BD00230122C36043610F
:106B6000028380F82A307047C0E9011208B500227C
:106B7000C26001220274044A02604FF0FF32C26216
:106B8000FFF7EAFF08BD00BFE0D80B00D0E9022301
:106B900010B593423FBF42685C1CC460D15424BF0F
:106BA000012380F82A3010BD10B54369044643B173
:106BB00000EB4303597E09B1FFF7E8FF6369013B2E
:106BC0006361D4E90210636888424FF000022ABF73
:106BD0005B181A5403F8012C10BD70B50446D0E9B7
:106BE000025066682D1A134630440A46294600F0C2
:106BF000B5FD85422DBFE368A368E360C01836BFCA
:106C00000123E06084F82A3070BD0EB403B503AAF6
:106C100052F8041B0192FFF7E0FF02B05DF804EBAD
:106C200003B070472DE9F84304460E46174612B1EB
:106C30002221FFF7ABFFDFF80C810025715D06EB29
:106C40000509002974D0D4E902329A4270D20B06A9
:106C500034D501F0F003E02B05F101091DD116F840
:106C6000092002F0C003802B39D105F1020916F882
:106C7000093003F0C000802831D103F03F039201B6
:106C800043EA013302F47C621A4392B24146204641
:106C9000FFF7BBFF4D460135D0E701F0E003C02B05
:106CA0001DD116F8093003F0C002802A17D18901DE
:106CB00001F4F86203F03F031A43E7E70D290AD80D
:106CC00007290CD9A1F10803052B08D8DFE803F048
:106CD00009231707111D222923D05C2921D0204622
:106CE00004E05C212046FFF751FF6221FFF74EFFD1
:106CF000D1E75C212046FFF749FF6621F6E75C21DA
:106D00002046FFF743FF6E21F0E75C212046FFF7A6
:106D10003DFF7221EAE75C212046FFF737FF74212F
:106D2000E4E75C212046FFF731FF99F80010DDE72A
:106D30002FB120462221BDE8F843FFF727BFBDE869
:106D4000F88300BFB7D80B00426900EB42031A7EFC
:106D500012B100221A7670472C21FFF717BF73B5C6
:106D6000436901910133082B16460FD8FFF7ECFF5A
:106D70004369019900EB43045A1C01254261A57641
:106D8000E676FFF703FF284602B070BD0020FBE760
:106D900037B5044610EE100AFDF7A6FAE56A002D95
:106DA00002460B4608DBCDE9002307492A46204668
:106DB000FFF72BFF03B030BD0449204603B0BDE808
:106DC0003040FFF722BF00BFBED80B00C3D80B0076
:106DD00010B5064B044640F82C3B02F05DFC04F174
:106DE0000C0002F059FC204610BD00BF74D90B0006
:106DF00010B50446FFF7ECFF20464421FDF79DFE49
:106E0000204610BD70B5194D90F82E302E68184CE4
:106E100016F8011C174A88B0A41B0793436B06930E
:106E200090F82B30059390F82A30049390F829308D
:106E3000039390F82830029390F82730019390F84C
:106E4000263000930C4B30465B2918BF13460B4A83
:106E5000214600F07BFC844206D32B68084A184484
:106E6000136828600133136008B070BD84E6032006
:106E700081E6032020D70B0082DA0B00E8D80B0054
:106E80008CE603202DE9F04304462DED028B636A66
:106E900083B01046002B38D004F070FA1D4901AAC7
:106EA000054605F03BF968B304F0DEF9194901AA7B
:106EB000002057EC106B05F031F918B304F0D4F949
:106EC000144901AA002059EC108B05F027F9C8B12C
:106ED00004F0CAF951EC100BFDF756FD494608EED7
:106EE000900A4046FDF750FD394608EE100A30463C
:106EF000FDF74AFD636A00EE100AB0EE681AF0EE84
:106F0000480A9847284600F011FC03B0BDEC028BFC
:106F1000BDE8F08320D70B0070B4036809685C6893
:106F20009D681B681268661005EB6400E40744BFA7
:106F3000AC59E35870BC1847012A38B5044602D151
:106F40000B68236003E0022A03D0032A0DD000203F
:106F500038BD0C200D68FDF7EAFD03460028F0D08F
:106F600095E8070083E80700EBE700680028EED00B
:106F70000C21FDF7E2FDEAE70EB403B503AB0121F6
:106F800053F8042B019302F01CFB02B05DF804EBF4
:106F900003B0704710B58368044613B1032201465D
:106FA0009847204610BD000038B50F4B0360002500
:106FB00042F210730446C0E901530C490C3002F050
:106FC000B6FB4FF4FA53A362C4E90755084965625A
:106FD00004F12C0002F0ABFB4FF49B724FF4CD7325
:106FE000C4E90F23204638BD74D90B001ED90B000D
:106FF0002CD90B0001234360704710B504460C30B8
:1070000002F0ECFB204610BDF8B5114D114C124FAB
:1070100012492560002628463E6004F0A6F9236840
:107020000F4803F10B0222605B229A72314600F096
:1070300071FA23685D221A707D225A709A70DE7090
:107040001A1D3B68226003B92B700148F8BD00BFD0
:1070500084E5032084E603208CE6032031D90B006D
:10706000056E0B0030B585B0054602F0A5FC184949
:1070700002F07FFA2846FFF7C7FF044602F09CFCA7
:1070800014492246FFF778FF2378F3B100F0AEFAF7
:10709000D8B1114BE9681B788DF8003022463C23AB
:1070A00002A800F01DFD039C7CB16368013B636096
:1070B0005BB9236820469B689847A368013BA3609F
:1070C0001BB923682046DB68984705B030BD00BF78
:1070D0003CD90B004CD90B0088E6032010B5036A9D
:1070E000022B04460BD0032B22D0BBB900F07EFA52
:1070F000A0B10223236200F0C5F8E0610EE000F0C9
:10710000C1F8E369C01AA36A984207D36368012BE8
:1071100005D12046FFF7A6FF0423236210BD002BF4
:10712000FAD00323236200F0ADF8A368C01AE4E7A5
:1071300000F05CFA70B100F0A5F8E369C01AA3682A
:107140009842EBD300F09EF8E0612046BDE8104085
:10715000FFF788BF2062E1E738B5002383608B68C2
:1071600004460D462BB102229847EB68E360AB68FA
:10717000A360204638BD000030B58DB0C3684162C1
:10718000044608A8039300F039FA089A039B00927A
:107190004FF480711A4A1B4800F0D8FA08A802F090
:1071A0007BFA00250C200695FDF7C1FC18B1164BA3
:1071B0008460C0E90035154B0490079304A9144B73
:1071C000069308A8FFF7C8FF0A9B7BB11020FDF7C4
:1071D000AEFC054650B108A9FFF7BEFF0023CDE97C
:1071E00000330C4907482A4600F018FA08A8FFF7B0
:1071F000D1FE04A8FFF7CEFE20460DB030BD00BF83
:1072000058D90B0084E50320856E0B00196F0B0025
:10721000396F0B00F7780B00014B01221A70704791
:1072200088E6032008B5024B1B685B6C019308BD20
:107230004802030008B5024B1B689B6C019308BD14
:107240004802030008B5024B1B68DB6C019308BDC4
:107250004802030008B5024B1B685B6D019308BD33
:107260004802030008B5024B1B685B68019308BD28
:107270001802030008B5024B1B68DB68019308BDC8
:107280001802030008B5024B1B685B69019308BD37
:107290001802030008B5024B1B68DB6D019308BDA3
:1072A0001802030008B5024B1B689B68019308BDD8
:1072B0002C02030008B5024B1B68DB68019308BD74
:1072C0002C02030008B5024B1B681B69019308BD23
:1072D0002C02030008B5024B1B685B69019308BDD3
:1072E0002C02030008B5024B1B68DB68019308BD44
:1072F0002802030008B5024B1B689B69019308BD77
:107300002802030008B5024B1B68DB69019308BD26
:107310002802030008B5024B1B681B6A019308BDD5
:107320002802030008B5024B1B685B6A019308BD85
:107330002802030008B5024B1B689B6A019308BD35
:107340002802030008B5024B1B68DB6A019308BDE5
:107350002802030008B5024B1B681B6B019308BD94
:107360002802030008B5024B1B685B6B019308BD44
:107370002802030008B5024B1B681B6C019308BD73
:107380002802030008B5024B1B681B6D019308BD62
:107390002802030008B5024B1B685B69019308BD16
:1073A0006402030008B5024B1B689B68019308BD8B
:1073B0006802030008B5024B1B68DB68019308BD37
:1073C0006802030008B5024B1B68DB69019308BD26
:1073D0003002030008B5024B1B681B6A019308BD0D
:1073E0003002030008B5024B1B689B68019308BD7F
:1073F0003C02030008B5024B1B68DB68019308BD23
:107400003C02030008B5024B1B681B69019308BDD1
:107410003C02030008B5024B1B685B69019308BD81
:107420003C02030008B5024B1B689B69019308BD31
:107430003C02030008B5024B1B68DB69019308BDE1
:107440003C02030008B5024B1B681B6A019308BD90
:107450003C02030008B5024B1B689B6A019308BD00
:107460003C02030008B5024B1B68DB6A019308BDB0
:107470003C02030008B5024B1B681B6C019308BD5E
:107480003C02030008B5024B1B681B68019308BD52
:107490004C02030008B5024B1B685B68019308BDF2
:1074A0004C02030008B5024B1B689B68019308BDA2
:1074B0004C02030008B5024B1B681B69019308BD11
:1074C0004C02030008B5024B1B685B69019308BDC1
:1074D0004C02030008B5024B1B689B69019308BD71
:1074E0004C02030008B5024B1B68DB69019308BD21
:1074F0004C02030008B5024B1B681B6A019308BDD0
:107500004C02030008B5024B1B689B6A019308BD3F
:107510004C02030008B5024B1B68DB6D019308BDEC
:107520007402030008B5024B1B685B6B019308BD36
:107530006002030008B5024B1B68DB6E019308BDB7
:107540006002030008B5024B1B681B6F019308BD66
:107550006002030008B5024B1B685B68019308BD1D
:107560002002030008B5024B1B685B69019308BD4C
:107570002002030008B5024B1B68DB6A019308BDBB
:107580002002030008B5024B1B68DB6C019308BDA9
:107590002002030008B5024B1B685B6D019308BD18
:1075A0002002030008B5034B1B68D3F88830019311
:1075B00008BD00002002030008B5034B1B68D3F888
:1075C0009430019308BD00002002030008B5024B6F
:1075D0001B681B68019308BD4402030008B5024BF9
:1075E0001B689B68019308BD4402030008B5024B69
:1075F0001B685B69019308BD4402030008B5024B98
:107600001B68DB69019308BD4402030008B5024B07
:107610001B681B6A019308BD4402030008B5024BB6
:107620001B685B6A019308BD4402030008B5024B66
:107630001B68DB6B019308BD4402030008B5024BD5
:107640001B685B68019308BD4002030008B5024B4C
:107650001B689B68019308BD4002030008B5024BFC
:107660001B68DB68019308BD4002030008B5024BAC
:107670001B681B69019308BD4002030008B5024B5B
:107680001B685B69019308BD4002030008B5024B0B
:107690001B689B69019308BD4002030008B5024BBB
:1076A0001B68DB69019308BD4002030008B5024B6B
:1076B0001B681B6A019308BD4002030008B5024B1A
:1076C0001B681B6B019308BD4002030008B5024B09
:1076D0001B685B6B019308BD4002030008B5024BB9
:1076E0001B681B6C019308BD4002030008B5024BE8
:1076F0001B685B6C019308BD4002030008B5024B98
:107700001B685B6D019308BD4002030008B5024B86
:107710001B689B6D019308BD4002030008B5024B36
:107720001B681B68019308BD1C02030008B5024BCF
:107730001B685B68019308BD1C02030008B5024B7F
:107740001B689B68019308BD1C02030008B5024B2F
:107750001B68DB69019308BD1C02030008B5024BDE
:107760001B685B6A019308BD1C02030008B5024B4D
:107770001B68DB6A019308BD1C02030008B5024BBD
:107780001B681B6B019308BD1C02030008B5024B6C
:107790001B68DB6B019308BD1C02030008B5024B9C
:1077A0001B681B6C019308BD1C02030008B5024B4B
:1077B0001B685B6C019308BD1C0203000021FFF7EE
:1077C000D1BE10B5836804460BB902F018FBC3683C
:1077D0009847A3681BB103222146204698472046BC
:1077E0001021BDE81040FDF7A8B910B54368013B72
:1077F0000446436063B903689B689847A368013BEC
:10780000A3602BB923682046DB68BDE81040184709
:1078100010BD70B5D0E90053044605EB0316AE4227
:1078200004D0284601F038FF1035F8E72068FFF74C
:107830007DFF204670BD13B50B460246D0E900011E
:107840006C4684E8030093E8030082E8030094E8B0
:10785000030083E8030002B010BD000002480023CB
:107860000360FFF7DFBC00BF90E6032070470020F5
:10787000704710B510210446FDF75FF9204610BD92
:1078800008B5FFF7F6FF08BD30B500224FF69C742F
:10789000026084808D888C800C68858004600A601A
:1078A00030BD10B504460068FFF740FF204610BD0C
:1078B00038B5C468F4B12378022B03D104F10C006D
:1078C000FFF7EFFF656835B12846FFF763FB10212E
:1078D0002846FDF732F9A56835B12846FFF75AFB6F
:1078E00010212846FDF729F920461421BDE838402B
:1078F000FDF723B938BD07B5CDE9001282680AB992
:1079000002F07DFAC36801AA6946984703B05DF8A2
:1079100004FB0B6803604B68436013B15A68013283
:107920005A60704737B5044668460D46FFF7F1FFC9
:10793000009B019A23606260002301A801930093D9
:10794000FDF70CFF35B1281DFDF708FF082128467B
:10795000FDF7F3F8204603B030BD826810B50AB9D0
:1079600002F04DFABDE81040C368184708B500683A
:1079700000F11001FFF7F1FF08BD826810B50AB9E8
:1079800002F03DFABDE81040C368184708B500682A
:1079900000F11001FFF7F1FF08BD000038B500232A
:1079A0000446036010200D46FDF7C1F828B10123FD
:1079B000C0E90133024B0360C5602060204638BD3A
:1079C00084D90B0038B5002383608B6804460D46CC
:1079D0002BB102229847EB68E360AB68A3602046B6
:1079E00038BD0000F0B589B004686846FFF74CFF69
:1079F0004FF00203D4E84F2F002A03D1C4E8413FDF
:107A00000029F7D125D104F10C0569462846FFF776
:107A10003BFFBFF35B8F01236370002004F1080379
:107A2000BFF35B8F53E8006F43E80002002AF9D1EF
:107A3000BFF35B8F6EB1FFF7A5FD78B129463046E5
:107A4000FFF78BFF3046FFF7A5FA10213046FDF710
:107A500074F86846FFF725FF09B0F0BD314602A86B
:107A6000FFF7B0FFE068B4F9105008B103F086FCEE
:107A700006901020ADF81C50FDF759F80546E8B106
:107A8000002787601820FDF752F8044688B10146A8
:107A9000876002A8FFF7CFFE049BA268A360059B46
:107AA000049206A9E268E36004F110000592FFF772
:107AB000EBFE084BEB60084B2C60AB6006A8FFF7B1
:107AC000F0FE02A8FFF766FA002229460348FFF7F6
:107AD00061FDB7E76D790B00F17B0B00C3770B00FD
:107AE0002DE9F04F8BB005469DF850A00F4690460B
:107AF0009946FFF77BFD07AE834638BB4FF62E73E2
:107B0000059005A93046ADF81830FFF7BDFE1420EA
:107B1000FDF70DF8044648B1022303700123C0E9C4
:107B200001BB437031460C30FFF7AEFE28462146BC
:107B300040F8044BFFF732FF3046FFF7B2FE05A8CE
:107B4000FFF7AFFE28460BB0BDE8F08F0C230024F2
:107B50001420CDE908440793FCF7E9FF014618B16A
:107B6000C0E901440470447004A80391FFF716FFB4
:107B70001E4B08930820FCF7DAFF044610B103A956
:107B8000FFF7C7FE00965FFA8AF34A464146384639
:107B90000994FFF73BFDB8B9039B5B7803F0FF0244
:107BA00093B94FF69C7305A903A80592ADF8183058
:107BB000FFF718FF05A8FFF774FE05A80999FFF75E
:107BC000B1FE06A8FDF7CAFD03A905A8FFF7A1FEAF
:107BD000059B069A2B606A60002306A8069305930E
:107BE000FDF7BCFD04A8FDF7B9FDABE7B57C0B00C4
:107BF000012AF8B5054603D10B6803600020F8BDE3
:107C0000022A10D0032AF9D10468002CF6D004F11E
:107C10001000FFF746FE2046FFF7BCF9182120466A
:107C2000FCF78BFFEAE718200E68FCF780FF04469C
:107C300050B13146FFF7C6FE3069B6F9147008B18D
:107C400003F09CFB2061A7822C60D7E738B50023A6
:107C500083608B6804460D462BB102229847EB687F
:107C6000E360AB68A360204638BD012A70B50446C6
:107C700003D10B680360002070BD022A0CD0032AD8
:107C8000F9D10468002CF6D02046FFF783F91421BF
:107C90002046FCF752FFEEE714200E68FCF747FF82
:107CA000054620B13146FFF7D1FF337C2B742560A8
:107CB000E1E70000F0B589B004460D4601A8114681
:107CC000FFF730FEA4B124B21DB1284603F056FBE5
:107CD000054601A803A90395ADF81040FFF782FE01
:107CE00003A8FFF7DEFD02A8FDF738FD09B0F0BDDF
:107CF000019D0123D5E84F2F002A03D1C5E8413F5C
:107D00000029F7D1EFD12B73BFF35B8F6B702B1D65
:107D1000BFF35B8F53E8006F43E80042002AF9D1BC
:107D2000BFF35B8F002EDED02046FFF72BFC07460B
:107D300060B105F10C013046FFF71FFE3046FFF73A
:107D400029F910213046FCF7F8FECCE7314603A8AC
:107D5000FFF77CFF2B7B8DF81C301020FCF7E7FE33
:107D60000546D0B187601420FCF7E1FE044678B1E7
:107D70008760014603A8FFF75EFD059BA268A3602C
:107D8000069B0592E268E3609DF81C30069223741E
:107D9000064BEB60064B2C60AB6003A8FFF7FAF8CC
:107DA000002229460348FFF7F5FBC7E78D790B0052
:107DB0006B7C0B00C3770B00002240681146FFF775
:107DC00075BC002240681146FFF780BC4068002265
:107DD000FFF774BC4068002281F00101FFF75EBC30
:107DE000002340681A461946FFF750BC002340683C
:107DF0001A461946FFF742BC002240681146FFF7B9
:107E000035BC002240681146FFF720BC40680022C4
:107E10000221FFF723BC002340681A46FFF70EBC7F
:107E2000024B03225A60024A1A60704794E603200C
:107E3000A0D90B007047F8B5064615460C468F18BA
:107E4000BC4206D0336814F8011B9B683046984743
:107E5000F6E72846F8BD007C0022FFF75BBA007CFD
:107E60000021FFF75FBA007C0021FFF763BA007CB6
:107E70000021FFF767BA007C0021FFF76BBA10B54D
:107E800014210446FCF759FE204610BD38B50446BF
:107E900015464FF47A730022C4E90123094B21747B
:107EA000084623602946FFF765FABF3008D16B69A1
:107EB000DB0705D56868FFF739FCE868FFF736FC93
:107EC000204638BDE4D90B000023007C1A46194631
:107ED000FFF708BA7FB500221423CDE90122ADF8DF
:107EE00004300B788DF808304B680393CB6804930B
:107EF000007C0B7A059301A9FFF744FA07B05DF8FF
:107F000004FB1FB5003B8DF800104FF06401039196
:107F100018BF0123694601928DF80830FFF7DAFF98
:107F200005B05DF804FB0123FFF7EBBF007C0022E6
:107F3000FFF7E0B9C9B2FFF7F9BF007C0022FFF7F5
:107F4000E1B90121FFF7F9BF704710B518210446C8
:107F5000FCF7F3FD204610BDF0B5037D062B8DB078
:107F60000E4600F104074FF0000412D000F108059E
:107F700015F8011D0A22304601F005FBAF4204440A
:107F800019D0002CF4D02E21304601F0E3FA04443D
:107F9000EEE72F236A4639460A208DF80040FFF7A6
:107FA000F9F96846FCF768FD33680246DB68694604
:107FB00030469847044620460DB0F0BD10B5054B3D
:107FC0000446112240F8043B002103F081F92046C9
:107FD00010BD00BF10DA0B000346074A10B543F886
:107FE000042B01F1100251F8044B43F8044B914269
:107FF000F9D10A781A7010BD10DA0B0010B59DF88F
:10800000084044EA032343EA024242EA01610423AE
:108010004160037510BD000007B5064B0360CB78C7
:1080200000938B784A780978FFF7E8FF03B05DF892
:1080300004FB00BF10DA0B0000F11003012213F85B
:10804000101C0129184608D153F8041C02EB410208
:10805000013A03F11003F2D17047022904BF53F82B
:10806000041C5218F4E70EB4F0B588B000AF07F165
:108070003405102155F8042B7A6004462B467818F5
:10808000FD60FFF76BFB0F287A681AD900F108032F
:1080900023F007036E46ADEB030D411C2B466846EB
:1080A000FD60FFF75BFB021E04DD236869469B68E9
:1080B00020469847B5462037BD46BDE8F04003B09E
:1080C00070470028F7D0236802469B6807F110012B
:1080D00020469847EFE738B50B6803604D68436862
:1080E0009D42044608D015B16B6801336B6060682F
:1080F00008B1FFF77AFB656038BD07B503688DF8F6
:1081000007109B6801220DF10701984703B05DF845
:1081100004FB0B461146002210B5C0E900220446BC
:1081200083600BB9204610BDFFF7D5FFFAE78368DF
:10813000EBB11A78032A1AD8DFE802F00417021B01
:108140000520704702685B685268D05C2D2812D009
:10815000A0F13003092B0ED974280ED066280CD05C
:10816000A0F16E0358425841704706207047002026
:10817000704704207047032070470220704710B5F5
:108180000446FFF7D4FF02280ED0C31EDBB2012B3A
:1081900014D82268A36850685B68BDE810400A22C2
:1081A0000021184404F040B82268A36852685B6854
:1081B000D05CA0F174035842584110BD0020FCE788
:1081C00038B50023C0E9003304460E48C4E9020371
:1081D000A9B10B78032B06D08BB9136858684B688C
:1081E000C35C6E2B07D013684D6858688B682844B1
:1081F0005B1BA060E36011462046FFF76CFF204642
:1082000038BD00BF82DA0B0038B500250B46C0E947
:108210000055C0E90255C0E90455044611464BB16A
:108220001A78012A06D103F11002DB6882604361EB
:10823000FFF751FF204638BD10B54369044663B1CE
:108240008068E060013B1030A0602061636113B181
:10825000FFF7F2FEA060012000E0184610BD10B547
:108260007D210446FFF749FF01232371204610BDFD
:1082700008B50379012B02D0022B04D008BD2C21B4
:10828000FFF73BFFFAE73A21FAE710B50446FFF79C
:10829000EFFF20467B21FFF730FF002323712046AC
:1082A00010BD000013B504460191FFF7E1FF2368FC
:1082B000019ADB6803492046984701232046237131
:1082C00002B010BD1CDA0B0013B504460191FFF794
:1082D000CFFF2368019ADB680349204698470123B2
:1082E0002046237102B010BD1FDA0B002DE9F047C4
:1082F0000D46222190460446FFF7FFFEDFF8A490CA
:10830000A8442F464745BA463DD017F8016B222EA8
:1083100006D05C2E04D0304602F0AAFF0028F1D12E
:108320002368AAEB05029B682946204698475C21F2
:108330002046FFF7E2FE0D2E0AD8072E1CD9A6F123
:108340000803052B18D8DFE803F00D0F11171315DC
:10835000222E01D05C2E0FD131462046FFF7CDFEF4
:108360003D46CFE76221F8E77421F6E76E21F4E796
:108370006621F2E77221F0E723683246DB6849465E
:1083800020469847ECE7BD4205D023687A1B9B68DE
:1083900029462046984722212046FFF7AEFEBDE839
:1083A000F08700BF22DA0B0013B50446CDE90021A7
:1083B000FFF75EFF2046DDE90021FFF797FF02236C
:1083C0002046237102B010BD13B50446CDE900214B
:1083D000FFF74EFF2046DDE90021FFF787FF01236D
:1083E0002046237102B010BD8842F8B504460D4600
:1083F000164614D9904213D2A2F11006751AA1F1B3
:1084000010072C44B74218D01CB13146204601F069
:10841000C0F9304601F040F9103E103CF2E70CD0B4
:10842000B5420AD01CB12946204601F0B2F92846CF
:1084300001F032F910351034F2E7F8BD70B50E1EB8
:10844000054611DD3001FFF769F9044658B1D5E959
:10845000001201EB0212FFF7C7FF2868FFF766F969
:108460002C60AE60012070BD0024F6E710B5044614
:1084700080680368DB689847E3681844E06010BDD3
:108480007047084611B10B685B6818477047704722
:1084900070477047704738B504460D4600682E2176
:1084A00002F059FF2368C31A2B6023B1037803B18C
:1084B000013023682060184638BD10B510210446ED
:1084C000FCF73BFB204610BD10B504210446FCF729
:1084D00034FB204610BD10B504210446FCF72DFBEB
:1084E000204610BDFEF7AEBE08B5FCF7BBFAB0FAE9
:1084F00080F0400908BD704710B50C4601F05CFAE9
:10850000844210D001F02EFC844205D101F02AFCF7
:10851000BDE8104001F0E9B92CB1236820465B6842
:10852000BDE81040184710BD0B6803604B684360FE
:1085300013B15A6801325A60704713B504460846B1
:108540000191FCF799FA01990246204602B0BDE874
:108550001040FFF739BF13B5044608460191FCF7F8
:108560008BFA23680199DB680246204602B0BDE819
:108570001040184707B503688DF80710DB68012223
:108580000DF10701984703B05DF804FB2DE9F74FA3
:10859000D0E900844FF0140A00930AFB04F4184B4E
:1085A000A41017465C434546002C21DD66100AFBEB
:1085B00006F005EB00093A46B9F804B028580191D5
:1085C0005F4528BF5A4602F0F6FE002801994FF099
:1085D00001030BD15F4503D1009A13703446E3E7E2
:1085E000FCD9A61B09F11405013EF7E7F9DBF5E715
:1085F000A5EB08050248AD10684303B0BDE8F08F55
:10860000CDCCCCCC7FB50369057E019103B3F9B124
:10861000002600F10C04039603A901A8FFF73BFF15
:108620000146A8B10DF10B03039A8DF80B602046AB
:10863000FFF7ACFF9DF80B3053B12368142404FB03
:108640000034083434F9023C002BA8BFDDB2E3E764
:10865000284604B070BD0EB4F0B58CB000AF07F181
:108660004405044655F8042B7A602B46202107F177
:108670001000FD60FFF772F81F287A681AD900F120
:10868000080323F007036E46ADEB030D411C2B4698
:108690006846FD60FFF762F8021E04DD2368694644
:1086A000DB6820469847B5463037BD46BDE8F04008
:1086B00003B070470028F7D023680246DB6807F153
:1086C000100120469847EFE710B5094C2378BFF317
:1086D0005B8FDB0709D42046FCF73EFA28B1204621
:1086E000FCF73FFA034802F0B9FD034810BD00BF94
:1086F000A0E603208F840B0068E0032010B5094C2E
:108700002378BFF35B8FDB0709D42046FCF724FAFC
:1087100028B12046FCF725FA034802F09FFD0348E4
:1087200010BD00BFA4E60320F7840B006CE003201B
:1087300038B500250446C0E90055C0E904558560F8
:10874000856140F8245FFEF76DFDFFF7BDFFE06136
:10875000FFF7D4FF25732062204638BD10B50A4CC0
:108760002378BFF35B8FDB070CD42046FCF7F4F9CA
:1087700040B10648FFF7DCFF2046FCF7F2F9044859
:1087800002F06CFD014810BD9CE60320ACE603201E
:10879000D58C0B00024A034903480023FEF7D2BEE2
:1087A000B98A0B00458A0B00C5890B0000231A46C5
:1087B00019461846FEF7C6BE37B58D6804466846AA
:1087C000FFF7B2FE6A4629462046FFF71DFD01A8C5
:1087D000FCF7C4FF204603B030BD37B5CD68044672
:1087E0006846FFF7A1FE6A4629462046FFF7E8FCE7
:1087F00001A8FCF7B3FF204603B030BD37B50D69C3
:1088000004466846FFF790FE6A4629462046FFF771
:1088100080FC01A8FCF7A2FF204603B030BD000099
:1088200070B58AB00D46014604A8FFF7C5FF144E87
:1088300004A8FFF701FDE8B104A96846FFF7CDFFE2
:1088400002983146FFF750FE044610B12C1E18BFA7
:10885000012401A8FCF782FF002CE9D004A9684696
:10886000FFF7CCFF6846FFF78AFC286001A8FCF7F9
:1088700075FFDDE705A8FCF771FF0AB070BD00BF0A
:1088800028DA0B0037B50C46204613491546FCF78D
:10889000E9F850B901F090F84FF4165101F07AF868
:1088A00003B0BDE8304001F087B80C492046FCF722
:1088B000D9F878B94FF4165301A928460193FFF768
:1088C000AFFF01F04FFA019901F00CF801F04AFAFC
:1088D00003B030BD0020FBE72DDA0B0034DA0B00CB
:1088E00070B5D0E900531426044606FB0356AE4289
:1088F00005D005F10800FFF7F3FF1435F7E720680E
:10890000FEF714FF204670BD10B504460C30FFF78B
:10891000E7FF2046FEF77DFF204610BD10B5044B53
:10892000044640F8043BFFF7EFFF204610BD00BFB0
:1089300030D80B0010B50446FFF7F0FF2046242185
:10894000FCF7FBF8204610BD10B5034B036004464E
:10895000FFF7E4FF204610BDD0DA0B0010B5044647
:10896000FFF7F2FF20462421FCF7E7F8204610BD70
:108970000A6802604A6842600022C0E9022210B51B
:1089800002618C688460CC68C4600C698A60CA60CB
:1089900004610A6110BD0022C0E9002210B58260A6
:1089A0000C6804604C6844608C680A604A608460AB
:1089B0008A6010BD10B5036804461868FEF74AFCCB
:1089C000204610BD2DE9F04F87B0804603931C4B25
:1089D0005B68C3F30803894616466BB9FFF7BEFE12
:1089E000044600F12403406A0593FFF77BFD237BD7
:1089F0002BB105A8FFF7DEFF07B0BDE8F08F01231C
:108A00002373D4E900535FFA89F905EB830AAA4579
:108A100012D055F8047B3146381DFFF7F3FD814530
:108A2000F5D33B68039A0092D3F808B04A46334620
:108A300041463846D847EAE700232373D9E700BF09
:108A400000ED00E02DE9F74F9B461A4B5B68C3F33E
:108A500008038046894616466BB9FFF77FFE044639
:108A600000F12403406A0193FFF73CFD237B2BB107
:108A700001A8FFF79FFF03B0BDE8F08F0123237328
:108A8000D4E90053F6B205EB830A55450ED055F8EC
:108A9000047B5946381DFFF7B5FD8642F5D33B6888
:108AA0004A46DB68414638469847EEE70023237381
:108AB000DEE700BF00ED00E02DE9F341164B5B68F7
:108AC000C3F3080305460F461BBBFFF747FE00F143
:108AD00024030446406A0193FFF704FDD4E90063D0
:108AE000462406EB8308B04509D101A8FFF762FFD1
:108AF000A542B4BF0020012002B0BDE8F08156F8C5
:108B0000040B39460430FFF77DFD8442A8BF0446BC
:108B1000E9E70020F0E700BF00ED00E0F8B5D0E99C
:108B200001539D4204460E460DDB6F1C002F00686A
:108B300004DDB900FEF702FE18B9F8BDFEF7F6FD38
:108B400000202060A7602768626807EB850192001B
:108B5000A2EB8502081D02F0A1FB47F825606368BF
:108B6000013363600120E8E737B500F124030446D0
:108B7000406A01930D46FFF7B5FCD4E9003203EBE0
:108B80008202934219460BD00968A94203F10403FB
:108B9000F7D101A8FFF70EFF0025284603B030BD2E
:108BA00029462046FFF7BAFF05460028F1D0636842
:108BB000012B01D1FFF7EEFD01A8FFF7FBFEECE76B
:108BC00070B50446D0E900020B4600EB82028242F7
:108BD0000FD001461D6851F8046BAE4207D1521AFE
:108BE00002F05CFB6368013B6360012070BD0846D6
:108BF000EDE70020FAE71FB500F124030446406AC0
:108C000001910393FFF76EFC01A92046FFF7D8FFFF
:108C100018B163680BB9FFF7C9FD03A8FFF7CAFED7
:108C200004B010BD70B5D0E904561823044603FB08
:108C30000656AE4215D005F110012046FFF7C0FFE1
:108C400063680BB9FFF7B2FDE06929690368DB6867
:108C50009847696919B1206A0368DB689847183535
:108C6000E7E7D4E90453182606FB0356AE4204D0C6
:108C7000284600F011FD1835F8E70023636170BD48
:108C800073B50446FFF792FD04F12403606A019373
:108C9000FFF728FC2046FFF7C5FF01A8FFF78AFE73
:108CA000606A08B1FEF7C6FAD4E90453182606FB39
:108CB0000356AE4204D0284600F0EEFC1835F8E723
:108CC0002069FEF733FD2068FEF730FD204602B034
:108CD00070BD00000148FFF7D3BF00BFACE6032022
:108CE0008842F8B504460D46164615D9904214D26E
:108CF000A2F11406751AA1F114072C44B7421AD038
:108D00001CB131462046FFF733FE06F10800FFF79D
:108D1000E7FD143E143CF1E70DD0B5420BD01CB179
:108D200029462046FFF724FE05F10800FFF7D8FD8D
:108D300014351434F1E7F8BD2DE9F04F904695B0A5
:108D400000230391D8F804100A9346229942C0E9FF
:108D50000033C0E90233C0E90433CDE908330446E7
:108D6000027623DCD8E90057142303FB0757AF42F0
:108D70003BD029460BA800F00CFD0BA90FA8099EBB
:108D800000F007FDDDE9091399421BDA089B099AF7
:108D900003EB061603EB0212314606F11000FFF753
:108DA00023FBEEB9099B0133099311E008A8FFF7F3
:108DB00045FB0028D6D108A8FEF72BFD204615B0AC
:108DC000BDE8F08F013108A8FFF738FB0028DDD19E
:108DD0000FA800F061FC0BA800F05EFC1435C6E79C
:108DE0000FA9304600F0D5FCDCE70026CDE90B6684
:108DF0000D964FF01409DDE908239E427CDA330119
:108E0000D35806930BB90136F5E70023079309FB06
:108E100006F302930BAD07A906A8FFF73CFB8246B9
:108E20000028F0D04FF000038DF817300146079A64
:108E30000DF117032846FFF7A9FB9DF81770019065
:108E4000002F4AD1BDF81C30ADF84030CDE9117784
:108E50004FF6FF73CDF83CA0ADF842301397D5E93B
:108E60000132934217DB03F1010ABAF1000F30DD42
:108E700009FB0AF0FEF752FC834660B3D5E9001205
:108E800009FB0212FFF72CFF2868FEF74FFCC5F81C
:108E900000B0C5F808A02B68019A09FB023A6A687D
:108EA000514609FB02320AF11400FFF719FFBAF12B
:108EB000000F03D00FA95046FFF75AFD6B6801332E
:108EC0006B6011A8FFF70CFD3FB10BA8FFF708FD81
:108ED00071E7BB46D8E70127F3E7019B2D6809FB43
:108EE0000355069B1B782BB9D8F80030029A13441F
:108EF0001B7CEB8008358EE7216822606268636026
:108F0000A36809920A9A0A93E368A2600B9A0B93EA
:108F10002369E2600C9A0C93636922610D9A0D93A8
:108F2000039B089162612376CFE70000F0B5044609
:108F300087B00D462646194668461746FCF762FE7E
:108F40000B4B46F8043B694603A8FCF75BFE03AAFB
:108F500039463046FFF7F0FE03A8FCF715FC6846DB
:108F6000FCF712FC034B23602046256207B0F0BDDE
:108F700030D80B00B8DA0B00F0B50F4685B01D49AC
:108F80000A9C384616461D46FBF76CFDC0B9A4B1D5
:108F9000294601A8FFF7FFFC1749242000F006FF2F
:108FA000054630B101AB32462146FFF7BFFF134BF8
:108FB0002B6001A8FCF7E8FB2C46204605B0F0BD6D
:108FC0000F493846FBF74EFD90B9002CF5D02946E5
:108FD00001A8FFF7E0FC0849242000F0E7FE054661
:108FE0000028E6D001AB32462146FFF79FFFE0E7BD
:108FF0000024E2E73CDA0B0028DC0B00D0DA0B009F
:1090000040DA0B00014B024A1A607047A8E60320C1
:1090100051DA0B002DE9F047089DD0F82090044666
:109020000E461746984600F0C7FC81454CD02B7978
:10903000190704D56A6954492046FFF70CFBB8F1BB
:10904000000F0DD05B212046FFF794FA41462046E1
:10905000FFF781FA23684D49DB68022220469847D2
:109060002B79DA0723D5D5F808802F21404602F066
:10907000B6F908B100F1010841462046FFF76BFA46
:109080002B799B0708D53A212046FFF773FAEA6847
:109090003F492046FFF7DFFA2A79236812F0040FD0
:1090A000DB6814BF3B493C490222204698472B7994
:1090B00058071DD529690B461A4613F8010B60B1F4
:1090C000202808D11946F7E7344800F082F9002833
:1090D000ADD0BDE8F0872828EED12368521ADB68AE
:1090E0002046984723682E49DB680422204698478B
:1090F00000213846FEF71EFA01462046FFF72BFAFC
:1091000023682549DB680222204698471EB1314674
:109110002046FFF720FA2B7913F0300F2CD023686C
:109120002049DB680222204698472B79D9060AD5C8
:1091300023681D49DB68072220469847AA691B4916
:109140002046FFF788FA2B799A0611D5DB0605D55C
:1091500023681049DB680222204698472368144997
:10916000DB6820460A229847E9692046FFF7F3F9B1
:109170005D212046FFF7FEF923680E49DB68204693
:109180000222BDE8F047184755DA0B005CDA0B0005
:109190001CDA0B005FDA0B001CD80B00D4E60320AE
:1091A00062DA0B0067DA0B006ADA0B0072DA0B0086
:1091B00075DA0B0080DA0B002DE9F0410446076AEE
:1091C0000D46164600F0F8FB874207D0206A036878
:1091D00032462946DB68BDE8F0411847034800F0F5
:1091E000F8F80028F2D0BDE8F08100BFD4E60320F3
:1091F0002DE9F04385B0D0F820900C9C05460F4631
:1092000090461E4600F0D8FB814505D1494800F044
:10921000E0F8002840F08A802B6A474A00924FF01D
:1092200000096846CDE902398DF80490FFF72DF862
:1092300049464046FEF77EF940498046012268468D
:10924000FFF7B2F84146FFF778F93FB13C490122F8
:109250006846FFF7A9F83946FFF76FF93EB139497B
:1092600001226846FFF7A0F83146FFF766F9237937
:10927000DF070ED5A6682F21304602F0B0F800B106
:10928000461C314901226846FFF78EF83146FFF748
:1092900054F923799E0707D52C4902226846FFF727
:1092A00083F8E168FEF7FEFF2379580714D5266995
:1092B00033461F4613F8012B2AB1202A01D11E463E
:1092C000F7E7282AF5D1224902226846FFF76CF811
:1092D000BA1B3146FFF778F82379190707D51D49DE
:1092E00001226846FFF760F86169FEF7EDFF237918
:1092F000DA0607D5184904226846FFF755F8A16930
:10930000FEF7D0FF23799B0607D51449062268464D
:10931000FFF74AF8E169FFF710F96846FEF79FFF8B
:10932000286A0F4903680222DB68984705B0BDE848
:10933000F08300BFD4E60320A0DA0B0032DA0B0082
:1093400083DA0B00CCE30B00C4D80B0085DA0B00EA
:1093500088DA0B001DD60B008BDA0B0090DA0B00BD
:1093600080DA0B00002340681A46FEF767B94068B0
:1093700000220221FEF772B9002240681146FEF772
:1093800065B9002240681146FEF770B900234068B5
:109390001A461946FEF772B9002340681A46194664
:1093A000FEF774B940680021FEF798B940680021C3
:1093B000FEF79CB94068002281F00101FEF76EB90A
:1093C00040680022FEF77AB9002240681146FEF795
:1093D0007DB9002240681146FEF768B94068002157
:1093E000FEF794B92DE9F04395B014460D460746B3
:1093F000FEF7E4FD00211C220DA8009101F068FF9A
:1094000040230C9320466B460CAA0021FDF7D2FFA7
:10941000044600284BD1024601216868FEF726F970
:109420000221804622466868FEF720F9009E8146A8
:109430002146002E3BD0002939D17368022B03D07E
:109440000A2B11D0F669F4E7B8F1000FFAD0716970
:1094500006A8043107ADFEF7DFFD0FCD3C1D0FC49C
:109460002B6823704146EDE7B9F1000FEAD074692B
:10947000102201A801F02CFF06238DF8143001AD55
:1094800004F108031834186859682A4603C20833DF
:10949000A3421546F7D101A906A807ADFEF79CFD2A
:1094A0000FCD3C1D0FC42B6823704946CAE70098B6
:1094B000FDF778FF384615B0BDE8F0830338022881
:1094C0009ABF024B53F820000148704710DB0B0095
:1094D000D4E6032008B500224068FEF70FF9BDE886
:1094E0000840FFF7EBBF0000024B034A1A6000225E
:1094F0005A607047D4E6032024DB0B00F8B506461B
:109500000D468F180024BD420CD0336815F8011B9E
:109510009B6830469847031E01DB1C44F3E7002C90
:1095200008BF1C462046F8BD13B50446084659B18D
:109530000191FBF7A1FA23680199DB6802462046F6
:1095400002B0BDE81040184702B010BD08B5FFF7E3
:10955000EBFF08BD03689B68184738B50D21054629
:10956000FFF7F8FF0A2104462846FFF7F3FF2044DF
:1095700038BD38B50546FFF7D7FF04462846FFF744
:10958000ECFF204438BD30B58BB00023012A8DF8A4
:10959000243098BF0A2209AC0D46B1FBF2F101FB61
:1095A000125303F0FF03092B94BF30333733DBB280
:1095B000AA4204F8013DEFD92146FFF7B5FF0BB0F1
:1095C00030BD2DE9F04186B000AF05460E46381D8E
:1095D000142114463B60FEF7C1F813280ED8391D3C
:1095E0002846FFF7A1FF04461EB12846FFF7B5FF46
:1095F000044420461837BD46BDE8F08100F1080359
:1096000023F00703E846ADEB030D2246411C3B68FF
:109610006846FEF7A3F869462846FFF785FF04462B
:10962000C546E1E7014B00229A607047DCE6032063
:1096300010B5044608462170FDF7C4FE00236360A0
:10964000204610BD10B50446FDF71CFEE0602368FF
:1096500020465B699847002808DAFDF713FEE368A7
:10966000C01AA3689842F2D34FF0FF3010BD2DE925
:10967000F04107460C468E180D46B542A5EB04088E
:1096800007D03846FFF7DEFF031E02DB05F8013B7B
:10969000F3E74046BDE8F08110B504460068FEF7E8
:1096A00045F8204610BD10B50446006808B1FEF725
:1096B0003DF80023C4E90133236010BD38B50446EA
:1096C0000D4600680131FEF739F810B1C4E9000514
:1096D000012038BD10B50368044623B143688B42AE
:1096E00001D3012010BD2046FFF7E8FF0028F9D084
:1096F000A368002BF5D122681370F2E737B50D4649
:10970000114601920446FFF7E5FF019A28B9204669
:10971000FFF7C9FF204603B030BDA260294620688C
:1097200001F0AEFD2268A3680021D154F2E70023C6
:1097300013B5C0E9003304468360037341B10846A2
:109740000191FBF799F9019902462046FFF7D6FFF0
:10975000204602B010BD38B5054600680C4670B111
:109760006A688B689A4208D3096831B101F0FDFD3F
:10977000A368AB600023A36038BDFDF7D7FF236863
:109780002B6063686B60A368AB600023C4E900339F
:10979000F1E710B50023C0E900330446836003738A
:1097A000FFF7D9FF204610BD884210B5044605D00A
:1097B0000B682BB18A681946FFF7A0FF204610BD41
:1097C000FFF771FFFAE710B500230446C0E9003344
:1097D00083600373FFF7E8FF204610BD13B504460E
:1097E00059B108460191FBF747F901990246204615
:1097F000FFF784FF204602B010BDFFF754FFF9E7E2
:10980000054B02221A60054B054A9A600020C3E905
:109810000000FDF79FBE00BFF8E60320ECE6032042
:109820000000FFFF024B1A68024B1A60704700BF2E
:1098300070E00320FCE6032070474174704708B5D0
:10984000007CFDF707FE20EAE07008BD08B5007C4B
:10985000FDF7D8FD20EAE07008BD08B5007CFDF7F3
:10986000E1FD40EAE07008BD08B5007CFDF7D2FDDF
:1098700040EAE07008BD007CFDF7DCBD37B5457CF3
:1098800004462DB1207C03B0BDE83040FDF7B2BDE9
:10989000007C0191FDF7DEFD00280199F2DC2846ED
:1098A00003B030BD10B514210446FBF746F920463D
:1098B00010BD000010B54FF47A73044608461146F7
:1098C0000022C4E90123044B236001232074637444
:1098D000FDF7D0FD204610BD84DB0B00007C00238B
:1098E000FDF7C0BD0022FFF7F9BF007CFDF77ABD90
:1098F000417470477047704708B50021007CFDF740
:10990000E9FD40EAE07008BD08B50121007CFDF7E3
:10991000E1FD40EAE07008BD08B5007CFDF7D2FD2E
:1099200020EAE07008BD08B5007CFDF7C3FD20EA21
:10993000E07008BD13B50446007C0191FDF7C2FD3F
:109940000028019901DC607C20B1207CFDF7CAFD74
:1099500020EAE07002B010BD007CFDF7CBBD10B571
:1099600014210446FBF7E9F8204610BD10B54FF46A
:109970007A73044608460021C4E90113044B2360AE
:109980000123207463741146FDF77CFD204610BD51
:10999000B8DB0B00007C0022FDF77CBD007CFDF7EE
:1099A00081BD007CFDF7AEBD10B514220446002138
:1099B00001F08EFC204610BD10B50F4C88B003A8F6
:1099C000FFF7F2FF2178BFF35B8F11F001010FD198
:1099D00020460191FBF7C0F8019948B103AA074856
:1099E000FFF7C4FF2046FBF7BCF8054801F036FC42
:1099F000024808B010BD00BF00E7032004E70320C1
:109A0000F5980B00002240681146FDF72FBE00229A
:109A100040681146FDF74ABE002240681146FDF736
:109A200055BE40680022FDF749BE4068002281F023
:109A30000101FDF733BE002340681A461946FDF7C1
:109A400025BE002340681A461946FDF717BE0022BE
:109A500040681146FDF7FABD406800220221FDF77B
:109A6000FDBD002340681A46FDF7E8BD024B042205
:109A70005A60024A1A60704718E70320ECDB0B00BB
:109A8000014B1860704700BF78E0032008B50B4B0E
:109A900043B1FFF791FF03681B699847002801DD78
:109AA000AFF30080064B43B100F05CF903681B691B
:109AB0009847002801DDAFF3008008BD00000000DA
:109AC0000000000008B5FFF7E1FFFDF7DBFB014BED
:109AD000186008BD34E703200548064A064908B562
