:02000002B0004C
:1040000000400B00C6C70B00000006000C000502B4
:084010000401D41700000000B8
:0440180014B70B00CE
:1040200081F0004102E000BF83F0004330B54FEA69
:1040300041044FEA430594EA050F08BF90EA020FD6
:104040001FBF54EA000C55EA020C7FEA645C7FEA69
:10405000655C00F0E2804FEA5454D4EB5555B8BF8C
:104060006D420CDD2C4480EA020281EA030382EAFD
:10407000000083EA010180EA020281EA0303362D8F
:1040800088BF30BD11F0004F4FEA01314FF4801C62
:104090004CEA113102D0404261EB410113F0004F74
:1040A0004FEA03334CEA133302D0524263EB43032B
:1040B00094EA050F00F0A780A4F10104D5F1200EC9
:1040C0000DDB02FA0EFC22FA05F2801841F1000124
:1040D00003FA0EF2801843FA05F359410EE0A5F1F8
:1040E00020050EF1200E012A03FA0EFC28BF4CF029
:1040F000020C43FA05F3C01851EBE37101F00045DF
:1041000007D54FF0000EDCF1000C7EEB00006EEBEB
:104110000101B1F5801F1BD3B1F5001F0CD3490875
:104120005FEA30004FEA3C0C04F101044FEA4452CC
:1041300012F5800F80F09A80BCF1004F08BF5FEA53
:10414000500C50F1000041EB045141EA050130BD33
:104150005FEA4C0C404141EB0101013C28BFB1F545
:10416000801FE9D291F0000F04BF01460020B1FA90
:1041700081F308BF2033A3F10B03B3F120020CDA63
:104180000C3208DD02F1140CC2F10C0201FA0CF041
:1041900021FA02F10CE002F11402D8BFC2F1200CA6
:1041A00001FA02F120FA0CFCDCBF41EA0C0190405C
:1041B000E41AA2BF01EB0451294330BD6FEA0404A5
:1041C0001F3C1CDA0C340EDC04F11404C4F1200290
:1041D00020FA04F001FA02F340EA030021FA04F3A2
:1041E00045EA030130BDC4F10C04C4F1200220FAF9
:1041F00002F001FA04F340EA0300294630BD21FA37
:1042000004F0294630BD94F0000F83F4801306BFFC
:1042100081F480110134013D4EE77FEA645C18BFF0
:104220007FEA655C29D094EA050F08BF90EA020F87
:1042300005D054EA000C04BF1946104630BD91EA7F
:10424000030F1EBF0021002030BD5FEA545C05D182
:104250004000494128BF41F0004130BD14F58004C1
:104260003CBF01F5801130BD01F0004545F0FE4135
:1042700041F470014FF0000030BD7FEA645C1ABF6A
:10428000194610467FEA655C1CBF0B46024650EAA1
:10429000013406BF52EA033591EA030F41F40021CD
:1042A00030BD00BF90F0000F04BF0021704730B553
:1042B0004FF4806404F132044FF000054FF0000128
:1042C00050E700BF90F0000F04BF0021704730B5E9
:1042D0004FF4806404F1320410F0004548BF4042BE
:1042E0004FF000013EE700BF42004FEAE2014FEA13
:1042F00031014FEA02701FBF12F07F4393F07F4FEE
:1043000081F06051704732F07F4208BF704793F0F0
:104310007F4F04BF41F40021704730B54FF4607403
:1043200001F0004521F000411CE700BF50EA010206
:1043300008BF704730B54FF000050AE050EA0102AF
:1043400008BF704730B511F0004502D5404261EB1F
:1043500041014FF4806404F132045FEA915C3FF460
:10436000D8AE4FF003025FEADC0C18BF03325FEAFD
:10437000DC0C18BF033202EBDC02C2F1200300FAAE
:1043800003FC20FA02F001FA03FE40EA0E0021FAD3
:1043900002F11444BDE600BF70B54FF0FF0C4CF4C1
:1043A000E06C1CEA11541DBF1CEA135594EA0C0F73
:1043B00095EA0C0F00F0DEF82C4481EA030621EAAE
:1043C0004C5123EA4C5350EA013518BF52EA0335E9
:1043D00041F4801143F4801338D0A0FB02CE4FF09B
:1043E0000005E1FB02E506F00042E0FB03E54FF0CB
:1043F0000006E1FB03569CF0000F18BF4EF0010EC3
:10440000A4F1FF04B6F5007F64F5407404D25FEABE
:104410004E0E6D4146EB060642EAC62141EA555171
:104420004FEAC52040EA5E504FEACE2EB4F1FD0CB3
:1044300088BFBCF5E06F1ED8BEF1004F08BF5FEA31
:10444000500E50F1000041EB045170BD06F00046E3
:1044500046EA010140EA020081EA0301B4EB5C0490
:10446000C2BFD4EB0C0541EA045170BD41F4801188
:104470004FF0000E013C00F3AB8014F1360FDEBFAD
:10448000002001F0004170BDC4F10004203C35DA89
:104490000C341BDC04F11404C4F1200500FA05F30C
:1044A00020FA04F001FA05F240EA020001F00042AD
:1044B00021F0004110EBD37021FA04F642EB060123
:1044C0005EEA430E08BF20EAD37070BDC4F10C044D
:1044D000C4F1200500FA04F320FA05F001FA04F211
:1044E00040EA020001F0004110EBD37041F10001FD
:1044F0005EEA430E08BF20EAD37070BDC4F1200508
:1045000000FA05F24EEA020E20FA04F301FA05F26F
:1045100043EA020321FA04F001F0004121FA04F217
:1045200020EA020000EBD3705EEA430E08BF20EAE7
:10453000D37070BD94F0000F0FD101F00046400021
:1045400041EB010111F4801F08BF013CF7D041EAA3
:10455000060195F0000F18BF704703F000465200A7
:1045600043EB030313F4801F08BF013DF7D043EA78
:104570000603704794EA0C0F0CEA135518BF95EA2E
:104580000C0F0CD050EA410618BF52EA4306D1D1B5
:1045900081EA030101F000414FF0000070BD50EAD4
:1045A000410606BF1046194652EA430619D094EA5E
:1045B0000C0F02D150EA013613D195EA0C0F05D148
:1045C00052EA03361CBF104619460AD181EA03019C
:1045D00001F0004141F0FE4141F470014FF0000054
:1045E00070BD41F0FE4141F4780170BD70B54FF0EF
:1045F000FF0C4CF4E06C1CEA11541DBF1CEA13556F
:1046000094EA0C0F95EA0C0F00F0A7F8A4EB050450
:1046100081EA030E52EA03354FEA013100F0888047
:104620004FEA03334FF0805545EA131343EA126310
:104630004FEA022245EA111545EA10654FEA0026C5
:104640000EF000419D4208BF964244F1FD0404F57E
:10465000407402D25B084FEA3202B61A65EB0305DA
:104660005B084FEA32024FF480104FF4002CB6EB97
:10467000020E75EB030E22BFB61A754640EA0C0017
:104680005B084FEA3202B6EB020E75EB030E22BF57
:10469000B61A754640EA5C005B084FEA3202B6EB98
:1046A000020E75EB030E22BFB61A754640EA9C0057
:1046B0005B084FEA3202B6EB020E75EB030E22BF27
:1046C000B61A754640EADC0055EA060E18D04FEAE5
:1046D000051545EA16754FEA06164FEAC30343EA85
:1046E00052734FEAC2025FEA1C1CC0D111F4801F52
:1046F0000BD141EA00014FF000004FF0004CB6E74B
:1047000011F4801F04BF01430020B4F1FD0C88BFE9
:10471000BCF5E06F3FF6AFAEB5EB030C04BFB6EBF4
:10472000020C5FEA500C50F1000041EB045170BDE7
:104730000EF0004E4EEA113114EB5C04C2BFD4EB14
:104740000C0541EA045170BD41F480114FF0000E98
:10475000013C90E645EA060E8DE60CEA135594EA14
:104760000C0F08BF95EA0C0F3FF43BAF94EA0C0F17
:104770000AD150EA01347FF434AF95EA0C0F7FF48C
:1047800025AF104619462CE795EA0C0F06D152EAE0
:1047900003353FF4FDAE1046194622E750EA4106C4
:1047A00018BF52EA43067FF4C5AE50EA41047FF4D5
:1047B0000DAF52EA43057FF4EBAE12E74FF0FF3C3A
:1047C00006E000BF4FF0010C02E000BF4FF0010C0B
:1047D0004DF804CD4FEA410C7FEA6C5C4FEA430C84
:1047E00018BF7FEA6C5C1BD001B050EA410C0CBFD3
:1047F00052EA430C91EA030F02BF90EA020F002035
:10480000704710F1000F91EA030F58BF994208BF9B
:1048100090422CBFD8176FEAE37040F00100704758
:104820004FEA410C7FEA6C5C02D150EA013C07D1AF
:104830004FEA430C7FEA6C5CD6D152EA033CD3D0FA
:104840005DF8040B704700BF8446104662468C46F4
:104850001946634600E000BF01B5FFF7B7FF002827
:1048600048BF10F1000F01BD4DF808EDFFF7F4FF50
:104870000CBF012000205DF808FB00BF4DF808EDDB
:10488000FFF7EAFF34BF012000205DF808FB00BFFE
:104890004DF808EDFFF7E0FF94BF012000205DF820
:1048A00008FB00BF4DF808EDFFF7CEFF94BF0120D5
:1048B00000205DF808FB00BF4DF808EDFFF7C4FFCE
:1048C00034BF012000205DF808FB00BF4FEA410C17
:1048D0007FEA6C5C02D150EA013C0AD14FEA430CFA
:1048E0007FEA6C5C02D152EA033C02D14FF0000037
:1048F00070474FF0010070474FEA410212F5001275
:1049000015D211D56FF47873B3EB625212D94FEA16
:10491000C12343F0004343EA505311F0004F23FA00
:1049200002F018BF404270474FF00000704750EA55
:10493000013005D111F0004008BF6FF00040704712
:104940004FF00000704700BF4A0011D212F500126C
:1049500011D20DD56FF47873B3EB62520ED44FEAD7
:10496000C12343F0004343EA505323FA02F0704757
:104970004FF00000704750EA013002D14FF0FF3095
:1049800070474FF0000070474FEA4102B2F1E04338
:1049900024BFB3F5001CDCF1FE5C0DD901F0004C26
:1049A0004FEAC0024CEA5070B2F1004F40EB830076
:1049B00008BF20F00100704711F0804F21D113F1A2
:1049C0003872BCBF01F00040704741F480114FEADB
:1049D0005252C2F11802C2F1200C10FA0CF320FA64
:1049E00002F018BF40F001004FEAC1234FEAD32381
:1049F00003FA0CFC40EA0C0023FA02F34FEA4303EB
:104A0000CCE77FEA625307D150EA01331EBF4FF073
:104A1000FE4040F44000704701F0004040F0FE408E
:104A200040F40000704700BFD0B50C4B0022064692
:104A30000F46FFF7B1FCFFF787FF0446FFF732FC94
:104A4000074B0022FFF7A8FC02460B4630463946CA
:104A5000FFF7EAFAFFF778FF2146D0BD0000F03DEE
:104A60000000F041034613F8012B002AFBD1181A6D
:104A70000138704738B50022002304460D46FFF781
:104A8000FDFE28B920462946BDE83840FFF7CCBFD7
:104A9000204605F10041FFF7C7FF404261EB4101AD
:104AA00038BD00BF09480A49884208B505D0094AFF
:104AB000824202D0121A04F02CFE0748074A002155
:104AC000121A04F034FE014808BD00BFC8E00320FC
:104AD000B8C50B00A8E20320A8E20320FCE70320EE
:104AE00070B5074E074C03F089FAA41BA4080025F3
:104AF000AC4200D170BD56F8043B98470135F7E74A
:104B00006CC50B0094C50B0000F0DCBC08B500F0D0
:104B10006FFDBDE8084003F029BA02F03FBA02F089
:104B20003DBA02F043BA02F041BA0078B0FA80F020
:104B30004009704701230370704710B52DED048BB9
:104B400090ED1E8AB0EE480A044603F081FCF0EEB8
:104B5000408AB0EE480A03F0B3FCD4ED1D9AB0EEE3
:104B6000408AB0EE690A03F073FCB0EE409AB0EEF2
:104B7000690A03F0A5FC94ED0A7AD4ED096A67EEA0
:104B8000080AF0EE407A60EE800A94ED0B0A28EEF7
:104B9000408AE6EE890AA7EE288A60EE286AB1EE1E
:104BA000480AE6EEA70A03F0F9FCBDEC048B84ED9D
:104BB0001F0A10BD70B52DED028B00F1E00600F16B
:104BC000EC058CB02A463146044601F097F9F6EE22
:104BD000008A20EE680A2A4603A920468DED010AC4
:104BE00001F0C7F99DED010A324606A9204601F001
:104BF000C0F903AA33461146204601F0CDF906AAB2
:104C00002B461146204601F0C7F906AB03AA09A9B5
:104C1000204601F083F903AA1146204601F06EF9FF
:104C2000B0EE088A38EE400A03AA20EE280A314680
:104C3000204601F09EF906AA1146204601F05EF9D1
:104C400038EE400A06AA20EE280A2946204601F03E
:104C500090F909AA1146204601F050F938EE400AB1
:104C600009AA20EE280A04F1F801204601F081F992
:104C70000CB0BDEC028B70BD2DE9F0412DED048B25
:104C800090ED210AD0ED207ADFED458A20EE000A72
:104C90000446A7EEA70A04F1C80504F1F808D0ED10
:104CA000227AA7EEA70A03F07BFCDFED3E6ADFED78
:104CB0003E0AB7EE007AF0EE477AE0EE667A2046DA
:104CC00004F1A407F0EE006AF5EEC07AF1EE10FAF6
:104CD000D8BFF1EE677AA7EEE67A04F1D406B7EE14
:104CE000001AB0EE470A01F0DBFA434604F18002F5
:104CF00029462046B0EE408A01F010F99FED2B0ABC
:104D00002A4628EE000A3946204601F032F928EEFC
:104D1000280A2A46204604F1B005254901F029F960
:104D2000234B2A462946204601F036F994ED1F9A76
:104D3000B0EE490A03F08CFBB0EE408AB0EE490AAF
:104D400003F0BEFB94ED3B7AD4ED387A27EE487A37
:104D50004246A7EE807A31462046B0EE470A01F07F
:104D600008F99FED140A14493246204601F001F972
:104D7000114B3A463946204601F00EF9324620469C
:104D80000B49B0EE680A01F0F4F8BDEC048B2A463A
:104D900029462046064BBDE8F04101F0FDB800BFB2
:104DA000ACC5A7370000803B000000000AD7A33C39
:104DB000A8E203209A99993FB4E203200000000082
:104DC00038B50446406DFFF78FFA45A3D3E90023B9
:104DD000FFF7E2FAFFF7D8FDC4F88C00A06DFFF7EB
:104DE00083FA3FA3D3E90023FFF7D6FAFFF7CCFD00
:104DF000C4F89000E06DFFF777FA39A3D3E90023F8
:104E0000FFF7CAFAFFF7C0FD2368C4F88030636873
:104E1000C4F8843004F1BC05A368C4F89400C4F855
:104E2000883004F18C0204F1B0032946204601F0D9
:104E3000B3F804F1A4032A4604F19801204601F0D6
:104E4000ABF8D4ED557AD4ED286A27EEE67A67EE12
:104E5000A66A84ED427A94ED277AC4ED446A27EE7F
:104E6000876AD4ED266A84ED436A27EEC77A27EE77
:104E7000E66A67EEA67A0023C4F80431C4F8143158
:104E8000C4F8243184ED466A04F5947384ED477ABE
:104E9000C4ED487A04F5827204F1E001204601F085
:104EA00088F804F12403D4ED387A94ED4A7A77EE49
:104EB000877A94ED4B7AC4ED387AD4ED397A77EE6F
:104EC000877A94ED4C7AC4ED397AD4ED3A7A77EE5C
:104ED000877A0C34C4ED377AA342E4D138BD00BFE1
:104EE00001FFA8C4D4E4533F10B590ED3E0A044638
:104EF00003F020FBB1EE400AD4ED400A84ED1D0A18
:104F000094ED3F0A03F04AFBD4ED380A84ED1E0A03
:104F100094ED3B0A03F042FB84ED1C0A10BD000037
:104F20002DE9F0471946064610469DF820701446B4
:104F30001D46FFF7CBFC28B14C493046BDE8F04791
:104F400002F0A6BD25F00049494B4FF0FF32204644
:104F50004946FFF7BBFC48B9454B4FF0FF322046AE
:104F60004946FFF795FC08B94249E6E7424B4FF046
:104F7000604220462946FFF79FFC08B13F49DCE725
:104F80003F4B4FF0604220462946FFF777FC002850
:104F9000F4D10022002320462946FFF76FFC30B1F0
:104FA0002D21304602F078FD05F100431D463549BC
:104FB000DFF8D8904FF0000A00204FF000085FFAA9
:104FC0008AF39F4206D942464B46FFF70FFB0AF190
:104FD000010AF4E722462B46FFF728F80D4604465F
:104FE000FFF7B2FC8046FFF75DF902460B4620460C
:104FF0002946FFF719F80A2204460D463046414675
:1050000002F063FD7FB32049DFF88090304602F064
:105010003FFD4FF0000837B342464B462046294635
:10502000FFF7BAF904460D46FFF766FCB0F1000A37
:1050300017DA2D21304602F02FFDCAF100010A22B5
:10504000304602F042FD5046FFF73CF902460B465F
:1050500020462946FEF7E8FF013F04460D46FFB211
:10506000D9E75146EBE7BDE8F08700BF28B70B0052
:10507000FFFFEF7F2CB70B00FFFFEF4130B70B00B6
:10508000FFFFEFC10000E03F34B70B0000002440F9
:1050900037B5054610EE100A0C46FFF725F9E4B2C5
:1050A00002460B4600942846FFF73AFF03B030BD96
:1050B0002DE9F04104460D4600293ED102F0D0FE14
:1050C0006749684E684F02F0E3FCF4EC017A94ED16
:1050D000027AF4EEC77A94ED057AF1EE10FAF4EE66
:1050E000C77A48BFC4ED027AF1EE10FAC8BFC4ED2A
:1050F000057A02F0B5FE94ED020A0221FFF7C8FF1F
:1051000002F0AEFE314602F0C3FC02F0A9FE94EDBF
:10511000050A0221FFF7BCFF022D09D002F0A0FE14
:10512000394602F0B5FC0135032DCED1BDE8F08142
:1051300002F096FE02F0B3FCF5E701293FD102F040
:105140008FFE4A49474E484F02F0A2FC2434002506
:10515000F4EC017A94ED027AF4EEC77A94ED057AD4
:10516000F1EE10FAF4EEC77A48BFC4ED027AF1EE20
:1051700010FAC8BFC4ED057A02F072FE94ED020A7F
:105180000221FFF785FF02F06BFE314602F080FC42
:1051900002F066FE94ED050A0221FFF779FF022D69
:1051A00008D002F05DFE394602F072FC0135032D95
:1051B000CED1BBE702F054FE02F071FCF6E7022903
:1051C000B4D1D0ED187A90ED157AC36E254FDFF883
:1051D000988077EE877A90ED167AC0ED187AD0ED48
:1051E000197A77EE877A90ED177AC0ED197AD0EDBB
:1051F0001A7A77EE877A0133C0ED1A7AC36602F025
:105200002FFE1B4902F044FC04F15406002502F075
:1052100027FEB6EC010A0221FFF73AFF02F020FE5A
:10522000394602F035FC02F01BFED4ED1B7A96EDF8
:10523000020AF8EEE77A022180EE270AFFF728FF3C
:10524000022D08D002F00CFE414602F021FC01358F
:10525000032DDCD16AE702F003FE02F020FCF6E742
:1052600036B70B004FB70B002FBD0B0051B70B002B
:1052700069B70B0070B5104B104E1D6886B0044620
:10528000A868FFF731F8CDE904016868FFF72CF84A
:10529000CDE902012868FFF727F8094ACDE90001A6
:1052A0004FF48071304601F091FE3146204602F005
:1052B000E0FC204606B070BDD0E20320D8E2032017
:1052C000A1B80B0070B5104B104E1D6886B0044697
:1052D000A868FFF709F8CDE904016868FFF704F84A
:1052E000CDE902012868FEF7FFFF094ACDE9000178
:1052F0004FF48071304601F069FE3146204602F0DD
:10530000B8FC204606B070BDA4E50320D8E2032017
:10531000A1B80B0070B5104B104E1D6886B0044646
:10532000A868FEF7E1FFCDE904016868FEF7DCFF3D
:10533000CDE902012868FEF7D7FF094ACDE900014F
:105340004FF48071304601F041FE3146204602F0B4
:1053500090FC204606B070BDD8E30320D8E20320BD
:10536000A1B80B0030B5144B144D89B00446186831
:10537000FEF7BAFFCDE90601114B1868FEF7B4FF3E
:10538000CDE904010F4B1868FEF7AEFFCDE902012D
:105390000D4B1868FEF7A8FF0C4ACDE900014FF449
:1053A0008071284601F012FE2946204602F061FC79
:1053B000204609B030BD00BFA8E50320D8E2032095
:1053C000B0E50320ACE50320B4E503209BB80B0057
:1053D00030B5114B114D87B004461868FEF784FFB5
:1053E000CDE904010E4B1868FEF77EFFCDE90201FE
:1053F0000C4B1868FEF778FF0B4ACDE900014FF41B
:105400008071284601F0E2FD2946204602F031FC79
:10541000204607B030BD00BFD4E20320D8E203200D
:10542000A0E5032058E5032089B70B001FB5002332
:10543000CDE901330C23ADF80430044B039304226F
:1054400001AB01F003FD05B05DF804FB51540B0006
:1054500030B585B00346144668460D469847029815
:10546000206001F09BFD286050B12268009904F093
:1054700050F90024684602F0B1FB204605B030BD6B
:10548000004CF7E7FCFEFFFF70B5B0B10B4600F132
:105490000802026053F8084B9C420FD11C4601F1F0
:1054A000180554F8046B42F8046BAC42F9D14A6811
:1054B0000B60002342604B600B7270BD8A68046011
:1054C0008260F4E737B5002304223649364801F0FC
:1054D000BDFC36493648FFF7A9FF36493648FFF785
:1054E000A5FF36493648FFF7A1FF36493648FFF792
:1054F0009DFF002435493648FFF798FF22460123D7
:10550000CDE900443349344801F0C8FC33493448FC
:1055100001F003FA3349324801F0BEFA01F0FAF91A
:1055200002F09EFC4FF4614102F08AFC204601F03B
:1055300021FB41F288350446002001F01BFB001BD3
:1055400061F10001A84271F1000307D202F088FC6A
:1055500002F07AFC10B901F081FCEDE702F080FC6A
:1055600002F072FC0121072002F0B8FD01210620A3
:1055700002F0B4FD0121052002F0B0FD012104205C
:1055800002F0ACFD0221084602F0A8FD052001F062
:1055900055FD02F065FC144903B0BDE8304002F04F
:1055A0008ABA00BF9BB70B00EBB70B0075520B001C
:1055B00037BA0B00C5520B0053BA0B0015530B0042
:1055C000A4B70B0065530B00AEB70B00D1530B0013
:1055D000C4B70B009D590B00D0B70B00E6B70B000A
:1055E0005CE5032021570B00F4B70B00000000001E
:1055F00010B5274C204600F02FFC264B206F1C6076
:10560000254B04F124021A60244B04F154021A6061
:10561000FEF76AFE1CA3D3E90023FEF7BDFEFFF7E9
:10562000B3F91F4B1860606FFEF75EFE16A3D3E957
:105630000023FEF7B1FEFFF7A7F91A4B1860A06F21
:10564000FEF752FE10A3D3E90023FEF7A5FEFFF7F5
:105650009BF9154BE26F1860144B15481A6001F066
:10566000CDF9022002F064FD60B9114801F08AF919
:105670000620012102F043FDBDE810404FF47A708E
:1056800001F0DCBC10BD00BFB0CB631ADCA54C4000
:10569000DCE30320D0E20320A4E50320D8E30320C9
:1056A000B4E50320ACE50320B0E50320A8E5032022
:1056B0005CE5032010B5D0E900420648121BD21069
:1056C0004243914202D3044802F0CFFD182000FB70
:1056D000014010BDABAAAAAA09B80B0070B50446D8
:1056E00000200D4601F08EFB20B1637813B901F064
:1056F000B5FBFAE76378BFF35B8F661C0BB92846EE
:1057000070BD002001F07EFB20B1337813B901F0A9
:10571000A5FBFAE72378012BF1D1207BF0E700000D
:105720002DE9F0435E4B83ED000A5E4BC3ED000AAA
:105730005D4BA3B00021062010EE104A10EE905AE7
:1057400011EE106A83ED001A02F0D9FC0121042049
:1057500002F0D5FC4FF47A7001F070FC534B1F68D7
:10576000534BD3F80080534BD3F80090524B18683A
:10577000FEF7BAFDCDE91E01504B1868FEF7B4FDE7
:10578000CDE91C014E4B1868FEF7AEFDCDE91A01BC
:105790004C4B1868FEF7A8FDCDE91801D9F80800B0
:1057A000FEF7A2FDCDE91601D9F80400FEF79CFD35
:1057B000CDE91401D9F80000FEF796FDCDE91201FC
:1057C000D8F80800FEF790FDCDE91001D8F80400E4
:1057D000FEF78AFDCDE90E01D8F80000FEF784FD42
:1057E000CDE90C01B868FEF77FFDCDE90A017868C4
:1057F000FEF77AFDCDE908013868FEF775FDCDE9C1
:1058000006013046FEF770FDCDE904012846FEF79B
:105810006BFDCDE902012046FEF766FD2A4ACDE97F
:1058200000014FF48071294801F0D0FB284B274A32
:105830001B7828498DF8003020A83C2301F080FD1A
:1058400020980021FFF74AFF219C05467CB1636840
:10585000013B63605BB9236820469B689847A36857
:10586000013BA3601BB923682046DB68984725B13C
:1058700002F0F6FA184902F01EF90021042002F0A5
:105880003EFC0121052002F03AFC40F2EA3001F032
:10589000D5FB0021052023B0BDE8F04302F02FBC6A
:1058A00058E50320A0E50320D4E20320D0E2032042
:1058B000A4E50320D8E30320A8E50320B0E50320F6
:1058C000ACE50320B4E5032053B80B00D8E2032075
:1058D000CCE20320D0B70B00B3B80B002DE9F74F93
:1058E000D0E9008A2A4CAAEB08038946DB1011464E
:1058F000284A63439342074602D1274802F0B2FC8C
:10590000012B1C4638BF0124E418A9EB08051CD262
:10591000ECB1944228BF1446182060430191FFF770
:10592000FCF8019906467019FFF7AEFD4546304672
:10593000A94500F1180B0CD02946FFF7A5FD284614
:1059400002F06CFD18355846F2E71446E4E72646A7
:10595000E9E755450AD029465846FFF795FD284600
:1059600002F05CFD18350BF1180BF2E7B8F1000FEF
:1059700005D0B9684046A1EB0801FFF7D4F818201C
:1059800000FB0464C7E9006BBC6003B0BDE8F08FA6
:10599000ABAAAAAA55555505D3B80B002DE9F0437B
:1059A0008BB000AF0C4602F05BFA02F078F802F020
:1059B00057FACB49CB4D02F07EF802F051FA21465E
:1059C00002F079F802F04CFA02F069F80023204660
:1059D000C7E90133FB60FFF745F8073020F0070007
:1059E000ADEB000D2146684603F0D8FEBD49684680
:1059F00004F03CFD0446002C39D007F11803204682
:105A00003B61FFF72FF80F2804EB0006386008D938
:105A10000022394607F1100002F0DEFC3B683861D5
:105A2000BB6138693246214602F00CFD3B683A6999
:105A30007B610021D154D7E90203984210D007F1CD
:105A40001001FFF721FDBB681833BB6007F11000A0
:105A500002F0E4FC2946002004F008FD0446CAE7F1
:105A6000014607F11002381DFFF738FFEEE79E4DA3
:105A70009E4EDFF8CC82D7E901239B1ADB106B43E3
:105A8000A34240F216810F2C46D8DFE814F0100034
:105A900045004500470045004500760045004500AB
:105AA000A50045004500D40045004500030102F073
:105AB000D7F98F4901F0ECFF02F0D2F98D4901F0DE
:105AC000E7FF02F0CDF900218146381DFFF7F2FD16
:105AD0000168484601F0DCFF02F0C2F9864901F096
:105AE000D7FF02F0BDF901218146381DFFF7E2FD25
:105AF0000168484601F0CCFF02F0B2F97F4901F09D
:105B0000C7FF02F0ADF902218146381DFFF7D2FD33
:105B10000168484601F0CFFF0334ACE702F0A0F97A
:105B2000774901F0B5FF02F09BF9764901F0B0FF2B
:105B300002F096F903218146381DFFF7BBFD01688D
:105B4000484601F0A5FF02F08BF96F4901F0A0FF74
:105B500002F086F9042181467818FFF7ABFD016851
:105B6000484601F095FF02F07BF9684901F090FF8B
:105B700002F076F905218146C7E702F071F9644920
:105B800001F086FF02F06CF9624901F081FF02F03A
:105B900067F906218146381DFFF78CFD01684846EC
:105BA00001F076FF02F05CF95B4901F071FF02F051
:105BB00057F907218146381DFFF77CFD01684846EB
:105BC00001F066FF02F04CF9544901F061FF02F068
:105BD00047F90821814698E702F042F9504901F05F
:105BE00057FF02F03DF94F4901F052FF02F038F93A
:105BF00009218146381DFFF75DFD0168484601F027
:105C000047FF02F02DF9484901F042FF02F028F960
:105C10000A218146381DFFF74DFD0168484601F015
:105C200037FF02F01DF9414901F032FF02F018F987
:105C30000B21814669E702F013F93D4901F028FF85
:105C400002F00EF93B4901F023FF02F009F90C21A3
:105C50008146381DFFF72EFD0168484601F018FF08
:105C600002F0FEF8344901F013FF02F0F9F80D21BB
:105C70008146381DFFF71EFD0168484601F008FF08
:105C800002F0EEF82D4901F003FF02F0E9F80E21D1
:105C900081463AE702F0E4F8314601F0F9FE02F0FD
:105CA000DFF8414601F0F4FE02F0DAF80F218146F8
:105CB0002BE702F0D5F801F0F2FED7E90145A54245
:105CC00004D0204602F0AAFB1834F8E7786818B12F
:105CD000F968091AFEF727FF2C37BD46BDE8F083A7
:105CE000EDB80B0024B90B00ABAAAAAA16BA0B0098
:105CF00026B90B0034B90B003FB90B004CB90B00AF
:105D000058B90B0068B90B0073B90B007FB90B00D1
:105D10008BB90B009AB90B00A5B90B00B1B90B00F8
:105D2000BDB90B00C9B90B00D3B90B00DEB90B002C
:105D3000E9B90B00FFB90B0005BA0B000DBA0B0057
:105D400023BA0B000B4B0C4810B500241C7000F05C
:105D500001FA0A4800F0B8FD2146012001F04AF896
:105D6000074B084A9A60C3E900440120BDE810408F
:105D700001F030B8CCE20320DCE303205CE5032033
:105D8000C0E203200000FFFF10B5044600F04AFC0B
:105D9000204600F0E9FA2046BDE8104000F078BB4C
:105DA0009FED147AD0ED007A67EE877AC0ED007A25
:105DB000D0ED017A67EE877AC0ED017AD0ED027AF4
:105DC00067EE877A9FED0C7AC0ED027AD0ED097A02
:105DD00067EE877AC0ED097AD0ED0A7A67EE877AA6
:105DE000C0ED0A7AD0ED0B7A67EE877AC0ED0B7AB8
:105DF000704700BF6F12833FABAA2A3E90F8603114
:105E00001BB3024652F8183B8361436853608368B2
:105E10009360024652F80C3BC3604368536083684A
:105E20009360436AC363836A0364C36A4364436AD7
:105E30000363836A4363C36A836300220023C266E9
:105E400083664366036680F860217047002180F80E
:105E50005811072002F053B910B5044600F082FE35
:105E6000D4F84C31C01A13282FD9C4F8503100F09F
:105E700079FED4F85031C4F84C0183423DBFC01ABA
:105E800007EE900ADFED1B6A9FED1B7A38BFF8EE34
:105E9000677A204638BF87EEA67A84ED557AFFF7F9
:105EA00073FFD4F870318BB92046FFF7A7FF94F841
:105EB000583113B994F8593123B1D4F85C11204604
:105EC000FFF7F6F8012384F8593110BD012BF9D101
:105ED0002046FFF765FFFEF730FE2046FEF770FF15
:105EE0002046FEF767FE2046FEF7C6FE2046FEF778
:105EF000FBFFE7E700007A44000000009FED060A80
:105F000001F10C03B1EC017AF2EC017A9942A7EEAF
:105F1000270AF7D1704700BF0000000092ED027A17
:105F2000D3ED017AD2ED016A67EEC77A93ED027A7A
:105F3000E6EE877AC1ED007A92ED007AD3ED027A2F
:105F4000D2ED026A67EEC77A93ED007AE6EE877AC1
:105F5000C1ED017A92ED017AD3ED007AD2ED006ABB
:105F600067EEC77A93ED017AE6EE877AC1ED027AA1
:105F70007047D2ED007A67EE807AC1ED007AD2EDFB
:105F8000017A67EE807AC1ED017AD2ED027A27EECE
:105F9000800A81ED020A704702F10C00F2EC017AEE
:105FA000B3EC017A77EE877A8242E1EC017AF5D19F
:105FB000704770B501F1240502F10C0610461C462D
:105FC000B0EC017AD1ED017AD0ED026A67EEA67AE3
:105FD000D1ED006AE6EE877A8642D1ED026A90ED55
:105FE000057AE6EE877AE4EC017AE9D10C318D424C
:105FF00003F10C03E2D170BD10B52DED068BF0EE70
:1060000040AAB0EE410A0C46B0EE608AF0EE418A3A
:1060100002F01EFAB0EE409AB0EE680A02F050FAB2
:10602000F0EE409AB0EE480A02F012FAB0EE40AA42
:10603000B0EE480A02F044FAF0EE408AB0EE6A0A86
:1060400002F006FAB0EE408AB0EE6A0A02F038FAC0
:106050006AEE087A20EE497AC4ED007A69EE887A11
:1060600029EE088AA7EEA87A84ED017A28EE287A2C
:10607000A9EE807A84ED027A2AEE007A84ED037A22
:1060800029EEA87A69EE8A9AA7EE008A29EE287A84
:1060900029EE0A9AF1EE688A84ED048AC4ED068A34
:1060A000C4ED079A84ED089ABDEC068BD7EE007A12
:1060B000C4ED057A10BD10B52DED028B8AB04FF0FE
:1060C0007E5304460793002308930993FFF75CFE71
:1060D00000F048FD94ED020AD4ED017AC4F84C01B9
:1060E00020EE000A94ED008AA7EEA70A02F058FA03
:1060F000F0EE400AB0EE480A02F050FAB1EE400A63
:10610000204601A984ED1D0A07AB2246FFF706FFD2
:106110000B4607AA04A9FFF701FFDDED060A9DED76
:10612000050A02F03BFA204684ED1E0AFEF705FD43
:1061300094ED1F0A94ED1E1AD4ED1D0A84ED1C0A7D
:1061400004F1E0012046FFF757FF0AB0BDEC028BD7
:1061500010BD00002DE9F041504E00254FF0000821
:10616000B4460446C0F86C80056745678567C56717
:10617000C0F88050C0F88450C0F88850C0F88C50E7
:10618000C0F89050C0F89450C0F89850C0F89C5097
:10619000C0F8A050C0F8A450C0F8A850C0F8AC5047
:1061A000C0F8B050C0F8B450C0F8B850C0F8BC50F7
:1061B000C0F8C050C0F8C450C0F8C850C0F8CC50A7
:1061C000C0F8D050C0F8D450C0F8D850C0F8DC5057
:1061D00000F1E007BCE80F000FC7BCE80F000FC7D5
:1061E0002436DCF800303B600FCE04F582770FC711
:1061F0000FCE0FC733683B602422414604F59470EC
:1062000003F095FA40F20113A4F858310123C4E9D0
:106210005B8384F860314146C4E95388C4E95988F6
:10622000C4F85451C4F85C81C4F8748184F878814E
:1062300025666565E56325636562A561E5602560A2
:106240006566A56525646563A562E5612561656090
:10625000A566E5656564A5630720E562256265615D
:10626000A56001F04CFF322000F0E8FE204600F06F
:1062700028F8204600F02CF8204600F0D5F82046FB
:1062800000F06CF9142000F0D9FE2046FFF713FF50
:106290002046FFF7DBFD2046BDE8F081CCB60B00C1
:1062A000B4EEC10AF1EE10FAD8BFB0EE401AB4EE67
:1062B000E01AF1EE10FA54BFB0EE410AB0EE600AF7
:1062C000704708B501F062FFBDE8084001F02CBA44
:1062D00008B501F05BFF532101F05CFA01F056FFB5
:1062E00003682D219B68984701F050FF036808213F
:1062F0009B68984701F04AFF01F053FA052000F02F
:106300009DFE01F043FF532101F044FA01F03EFFEE
:10631000036831219B68984701F038FF0368082122
:106320009B68984701F032FF01F03BFA052000F02E
:1063300085FE01F02BFF532101F02CFA01F026FF1E
:1063400003682C219B68984701F020FF036809210E
:106350009B68984701F01AFF01F023FABDE8084056
:10636000052000F06BBE000073B5044601F00EFF7F
:10637000532101F00FFA01F009FF036832219B68F5
:10638000984701F003FF01F00CFA01F0FFFE5321E2
:1063900001F000FA01F0FAFE0622532101F0F3F9B0
:1063A0006E46002501F0F2FE03681B69984740B174
:1063B00001F0ECFE03685B699847013506F8010BB4
:1063C000F0E701F0E3FE01F0ECF9062D19D1BDF97B
:1063D000023007EE903ABDF90030F8EEE77AC4EDEE
:1063E000007A07EE903ABDF90430F8EEE77AC4ED92
:1063F000017A07EE903AF8EEE77AC4ED027A02B03D
:1064000070BDD4F864310133C4F8643194F8783144
:10641000002BF4D001F024FD024902B0BDE8704029
:1064200001F049BB29BA0B0008B501F0AFFE1E21EF
:1064300001F0B0F901F0AAFE036802219B689847B9
:1064400001F0A4FE036800219B68984701F09EFEBE
:1064500001F0A7F9052000F0F1FD01F097FE1E21E3
:1064600001F098F901F092FE036800219B689847BB
:1064700001F08CFE036818219B68984701F086FEA6
:1064800001F08FF9BDE80840052000F0D7BD0000FD
:1064900073B5044601F07AFE1E2101F07BF901F08C
:1064A00075FE036803219B68984701F06FFE01F0B9
:1064B00078F901F06BFE1E2101F06CF901F066FE27
:1064C00006221E2101F05FF96E46002501F05EFEF6
:1064D00003681B69984740B101F058FE03685B6987
:1064E0009847013506F8010BF0E701F04FFE01F087
:1064F00058F9062D1FD1BDF800305BBA9BB207EEEC
:10650000903ABDF80230F8EEE77ADBBA5B42C4EDB0
:10651000097A07EE903ABDF80430F8EEE77ADBBA74
:106520005B42C4ED0A7A07EE903AF8EEE77AC4EDE2
:106530000B7A02B070BDD4F868310133C4F8683109
:1065400094F87831002BF4D001F08AFC024902B0B3
:10655000BDE8704001F0AFBA45BA0B0008B501F0D4
:1065600015FE682101F016F901F010FE03683E21C6
:106570009B68984701F00AFE036880219B68984752
:1065800001F004FE01F00DF9052000F057FD01F0C7
:10659000FDFD682101F0FEF801F0F8FD0368162109
:1065A0009B68984701F0F2FD03681B219B689847A0
:1065B00001F0ECFD01F0F5F8052000F03FFD01F0E1
:1065C000E5FD682101F0E6F801F0E0FD0368152122
:1065D0009B68984701F0DAFD03680A219B68984799
:1065E00001F0D4FD01F0DDF8052000F027FD01F0F9
:1065F000CDFD682101F0CEF801F0C8FD03683E2111
:106600009B68984701F0C2FD036800219B6898478A
:1066100001F0BCFD01F0C5F8BDE80840052000F020
:106620000DBD000073B5044601F0B0FD682101F016
:10663000B1F801F0ABFD03681D219B68984701F09C
:10664000A5FD01F0AEF801F0A1FD682101F0A2F86E
:1066500001F09CFD0622682101F095F86E460025A8
:1066600001F094FD03681B69984740B101F08EFD6D
:1066700003685B699847013506F8010BF0E701F004
:1066800085FD01F08EF8062D1FD1BDF80230DBBA72
:106690005B4207EE903ABDF80030F8EEE77ADBBADD
:1066A0005B42C4ED157A07EE903ABDF80430F8EE7F
:1066B000E77ADBBA5B42C4ED167A07EE903AF8EE61
:1066C000E77AC4ED177A02B070BDD4F86C310133AB
:1066D000C4F86C3194F87831002BF4D001F0C0FB91
:1066E000024902B0BDE8704001F0E5B960BA0B00A4
:1066F00010B5064B044640F82C3B01F06FFA04F14C
:106700000C0001F06BFA204610BD00BF04BB0B006B
:1067100010B50446FFF7ECFF20464421FEF703FACC
:10672000204610BD70B5194D90F82E302E68184CCB
:1067300016F8011C174A88B0A41B0793436B0693F5
:1067400090F82B30059390F82A30049390F8293074
:10675000039390F82830029390F82730019390F833
:10676000263000930C4B30465B2918BF13460B4A6A
:10677000214600F02BFC844206D32B68084A1844BB
:10678000136828600133136008B070BDB8E60320B9
:10679000B5E6032024B90B0031BD0B0078BA0B001D
:1067A000C0E603202DE9F04304462DED028B636A19
:1067B00083B01046002B38D002F0F8FF1D4901AA23
:1067C000054603F0AFFE68B302F0A0FF194901AA25
:1067D000002057EC106B03F0A5FE18B302F096FFF3
:1067E000144901AA002059EC108B03F09BFEC8B19C
:1067F00002F08CFF51EC100BFEF7C6F8494608EE8C
:10680000900A4046FEF7C0F8394608EE100A3046B6
:10681000FEF7BAF8636A00EE100AB0EE681AF0EEFE
:10682000480A9847284600F0C1FB03B0BDEC028B34
:10683000BDE8F08324B90B0070B4036809685C6894
:106840009D681B681268661005EB6400E40744BF8E
:10685000AC59E35870BC1847012A38B5044602D138
:106860000B68236003E0022A03D0032A0DD0002026
:1068700038BD0C200D68FEF750F903460028F0D013
:1068800095E8070083E80700EBE700680028EED0F2
:106890000C21FEF748F9EAE70EB403B503AB01217A
:1068A00053F8042B019301F02EF902B05DF804EBCC
:1068B00003B0704710B58368044613B10322014644
:1068C0009847204610BD000038B50F4B03600025E7
:1068D00042F210730446C0E901530C490C3001F038
:1068E000C8F94FF4FA53A362C4E907550849656231
:1068F00004F12C0001F0BDF94FF49B724FF4CD73FD
:10690000C4E90F23204638BD04BB0B00AEBA0B0010
:10691000BCBA0B0001234360704710B504460C302D
:1069200001F0BBF9204610BDF8B5114D114C124FC6
:1069300012492560002628463E6002F02FFF23689A
:106940000F4803F10B0222605B229A72314600F07D
:1069500039FA23685D221A707D225A709A70DE70AF
:106960001A1D3B68226003B92B700148F8BD00BFB7
:10697000B8E50320B8E60320C0E60320C1BA0B0047
:1069800025670B0030B585B0054601F069FA184956
:1069900001F091F82846FFF7C7FF044601F060FABE
:1069A00014492246FFF778FF2378F3B100F05EFA2E
:1069B000D8B1114BE9681B788DF8003022463C2392
:1069C00002A800F0BDFC039C7CB16368013B6360DE
:1069D0005BB9236820469B689847A368013BA36086
:1069E0001BB923682046DB68984705B030BD00BF5F
:1069F000CCBA0B00DCBA0B00BCE6032010B5036A6E
:106A0000022B04460BD0032B22D0BBB900F02EFA88
:106A1000A0B10223236200F0A5F8E0610EE000F0CF
:106A2000A1F8E369C01AA36A984207D36368012BEF
:106A300005D12046FFF7A6FF0423236210BD002BDB
:106A4000FAD00323236200F08DF8A368C01AE4E7AC
:106A500000F00CFA70B100F085F8E369C01AA36881
:106A60009842EBD300F07EF8E0612046BDE810408C
:106A7000FFF788BF2062E1E738B5002383608B68A9
:106A800004460D462BB102229847EB68E360AB68E1
:106A9000A360204638BD000030B58DB0C3684162A8
:106AA000044608A8039300F0E9F9089A039B0092B2
:106AB0004FF480711A4A1B4800F088FA08A801F0C8
:106AC0008DF800250C200695FEF727F818B1164B17
:106AD0008460C0E90035154B0490079304A9144B5A
:106AE000069308A8FFF7C8FF0A9B7BB11020FEF7AA
:106AF00014F8054650B108A9FFF7BEFF0023CDE901
:106B000000330C4907482A4600F0C8F908A8FFF7E7
:106B1000D1FE04A8FFF7CEFE20460DB030BD00BF69
:106B2000E8BA0B00B8E50320A5670B0039680B0035
:106B300059680B0057710B00014B01221A70704706
:106B4000BCE6032008B5024B1B685B6C019308BDD3
:106B50004802030008B5024B1B685B68019308BD3F
:106B60001802030008B5024B1B685B69019308BD5E
:106B70001802030008B5024B1B68DB6D019308BDCA
:106B80001802030008B5024B1B689B68019308BDFF
:106B90002C02030008B5024B1B68DB68019308BD9B
:106BA0002C02030008B5024B1B681B69019308BD4A
:106BB0002C02030008B5024B1B685B69019308BDFA
:106BC0002C02030008B5024B1B68DB68019308BD6B
:106BD0002802030008B5024B1B689B69019308BD9E
:106BE0002802030008B5024B1B68DB69019308BD4E
:106BF0002802030008B5024B1B681B6A019308BDFD
:106C00002802030008B5024B1B685B6A019308BDAC
:106C10002802030008B5024B1B689B6A019308BD5C
:106C20002802030008B5024B1B68DB6A019308BD0C
:106C30002802030008B5024B1B681B6B019308BDBB
:106C40002802030008B5024B1B685B6B019308BD6B
:106C50002802030008B5024B1B681B6C019308BD9A
:106C60002802030008B5024B1B681B6D019308BD89
:106C70002802030008B5024B1B685B69019308BD3D
:106C80006402030008B5024B1B689B68019308BDB2
:106C90006802030008B5024B1B68DB68019308BD5E
:106CA0006802030008B5024B1B68DB69019308BD4D
:106CB0003002030008B5024B1B681B6A019308BD34
:106CC0003002030008B5024B1B68DB68019308BD66
:106CD0003C02030008B5024B1B681B69019308BD09
:106CE0003C02030008B5024B1B685B69019308BDB9
:106CF0003C02030008B5024B1B689B69019308BD69
:106D00003C02030008B5024B1B68DB69019308BD18
:106D10003C02030008B5024B1B681B6A019308BDC7
:106D20003C02030008B5024B1B689B6A019308BD37
:106D30003C02030008B5024B1B681B6C019308BDA5
:106D40003C02030008B5024B1B681B68019308BD99
:106D50004C02030008B5024B1B685B68019308BD39
:106D60004C02030008B5024B1B681B69019308BD68
:106D70004C02030008B5024B1B685B69019308BD18
:106D80004C02030008B5024B1B689B69019308BDC8
:106D90004C02030008B5024B1B68DB69019308BD78
:106DA0004C02030008B5024B1B681B6A019308BD27
:106DB0004C02030008B5024B1B689B6A019308BD97
:106DC0004C02030008B5024B1B68DB6D019308BD44
:106DD0007402030008B5024B1B685B68019308BD91
:106DE0002002030008B5024B1B685B69019308BDD4
:106DF0002002030008B5024B1B68DB6A019308BD43
:106E00002002030008B5024B1B68DB6C019308BD30
:106E10002002030008B5024B1B685B6D019308BD9F
:106E20002002030008B5034B1B68D3F88830019398
:106E300008BD00002002030008B5034B1B68D3F80F
:106E40009430019308BD00002002030008B5024BF6
:106E50001B681B68019308BD4402030008B5024B80
:106E60001B689B68019308BD4402030008B5024BF0
:106E70001B685B69019308BD4402030008B5024B1F
:106E80001B68DB69019308BD4402030008B5024B8F
:106E90001B681B6A019308BD4402030008B5024B3E
:106EA0001B685B6A019308BD4402030008B5024BEE
:106EB0001B68DB6B019308BD4402030008B5024B5D
:106EC0001B685B68019308BD4002030008B5024BD4
:106ED0001B689B68019308BD4002030008B5024B84
:106EE0001B68DB68019308BD4002030008B5024B34
:106EF0001B681B69019308BD4002030008B5024BE3
:106F00001B685B69019308BD4002030008B5024B92
:106F10001B689B69019308BD4002030008B5024B42
:106F20001B68DB69019308BD4002030008B5024BF2
:106F30001B681B6A019308BD4002030008B5024BA1
:106F40001B681B6B019308BD4002030008B5024B90
:106F50001B685B6B019308BD4002030008B5024B40
:106F60001B681B6C019308BD4002030008B5024B6F
:106F70001B685B6C019308BD4002030008B5024B1F
:106F80001B685B6D019308BD4002030008B5024B0E
:106F90001B689B6D019308BD4002030008B5024BBE
:106FA0001B681B68019308BD1C02030008B5024B57
:106FB0001B685B68019308BD1C02030008B5024B07
:106FC0001B689B68019308BD1C02030008B5024BB7
:106FD0001B68DB69019308BD1C02030008B5024B66
:106FE0001B685B6A019308BD1C02030008B5024BD5
:106FF0001B68DB6A019308BD1C02030008B5024B45
:107000001B681B6B019308BD1C02030008B5024BF3
:107010001B68DB6B019308BD1C02030008B5024B23
:107020001B681B6C019308BD1C02030008B5024BD2
:107030001B685B6C019308BD1C0203000021FFF775
:10704000D1BE38B5046805467CB16368013B636016
:107050005BB9236820469B689847A368013BA360FF
:107060001BB923682046DB689847284638BD10B511
:10707000836804460BB901F014F9C3689847A36804
:107080001BB1032221462046984720461021BDE827
:107090001040FDF748BD13B50B460246D0E900018C
:1070A0006C4684E8030093E8030082E8030094E858
:1070B000030083E8030002B010BD00000248002373
:1070C0000360FFF73FBD00BFC4E603207047002008
:1070D000704710B510210446FDF725FD204610BD70
:1070E00008B5FFF7F6FF08BD30B500224FF69C74D7
:1070F000026084808D888C800C68858004600A60C2
:1071000030BD10B504460068FFF750FF204610BDA3
:1071100038B5C468F4B12378022B03D104F10C0014
:10712000FFF7EFFF656835B12846FFF7C3FB102175
:107130002846FDF7F8FCA56835B12846FFF7BAFBED
:1071400010212846FDF7EFFC20461421BDE8384009
:10715000FDF7E9BC38BD07B5CDE9001282680AB970
:1071600001F09FF8C36801AA6946984703B05DF82B
:1071700004FB0B6803604B68436013B15A6801322B
:107180005A60704737B5044668460D46FFF7F1FF71
:10719000009B019A23606260002301A80193009381
:1071A000FFF74FFF35B1281DFFF74BFF0821284699
:1071B000FDF7B9FC204603B030BD826810B50AB9AE
:1071C00001F06FF8BDE81040C368184708B50068C3
:1071D00000F11001FFF7F1FF08BD826810B50AB990
:1071E00001F05FF8BDE81040C368184708B50068B3
:1071F00000F11001FFF7F1FF08BD000038B50023D2
:107200000446036010200D46FDF787FC28B10123DA
:10721000C0E90133024B0360C5602060204638BDE1
:1072200014BB0B0038B5002383608B6804460D4601
:107230002BB102229847EB68E360AB68A36020465D
:1072400038BD0000F0B589B004686846FFF74CFF10
:107250004FF00203D4E84F2F002A03D1C4E8413F86
:107260000029F7D125D104F10C0569462846FFF71E
:107270003BFFBFF35B8F01236370002004F1080321
:10728000BFF35B8F53E8006F43E80002002AF9D197
:10729000BFF35B8F6EB1FFF7B5FD78B1294630467D
:1072A000FFF78BFF3046FFF705FB10213046FDF757
:1072B0003AFC6846FFF725FF09B0F0BD314602A849
:1072C000FFF7B0FFE068B4F9105008B102F06EFAB1
:1072D00006901020ADF81C50FDF71FFC0546E8B1E4
:1072E000002787601820FDF718FC044688B1014686
:1072F000876002A8FFF7CFFE049BA268A360059BEE
:10730000049206A9E268E36004F110000592FFF719
:10731000EBFE084BEB60084B2C60AB6006A8FFF758
:10732000F0FE02A8FFF7C6FA002229460348FFF73D
:1073300071FDB7E7CD710B0051740B006F700B003E
:107340002DE9F04F8BB005469DF850A00F469046B2
:107350009946FFF78BFD07AE834638BB4FF62E7379
:10736000059005A93046ADF81830FFF7BDFE142092
:10737000FDF7D3FB044648B1022303700123C0E9A3
:1073800001BB437031460C30FFF7AEFE2846214664
:1073900040F8044BFFF732FF3046FFF7B2FE05A876
:1073A000FFF7AFFE28460BB0BDE8F08F0C2300249A
:1073B0001420CDE908440793FDF7AFFB014618B14F
:1073C000C0E901440470447004A80391FFF716FF5C
:1073D0001E4B08930820FDF7A0FB044610B103A93B
:1073E000FFF7C7FE00965FFA8AF34A4641463846E1
:1073F0000994FFF74BFDB8B9039B5B7803F0FF02DC
:1074000093B94FF69C7305A903A80592ADF81830FF
:10741000FFF718FF05A8FFF774FE05A80999FFF705
:10742000B1FE06A8FFF70DFE03A905A8FFF7A1FE10
:10743000059B069A2B606A60002306A806930593B5
:10744000FFF7FFFD04A8FFF7FCFDABE715750B0088
:10745000012AF8B5054603D10B6803600020F8BD8A
:10746000022A10D0032AF9D10468002CF6D004F1C6
:107470001000FFF746FE2046FFF71CFA18212046B1
:10748000FDF751FBEAE718200E68FDF746FB0446BE
:1074900050B13146FFF7C6FE3069B6F9147008B135
:1074A00002F084F92061A7822C60D7E738B5002369
:1074B00083608B6804460D462BB102229847EB6827
:1074C000E360AB68A360204638BD012A70B504466E
:1074D00003D10B680360002070BD022A0CD0032A80
:1074E000F9D10468002CF6D02046FFF7E3F9142107
:1074F0002046FDF718FBEEE714200E68FDF70DFBA4
:10750000054620B13146FFF7D1FF337C2B7425604F
:10751000E1E70000F0B589B004460D4601A8114628
:10752000FFF730FEA4B124B21DB1284602F03EF9A7
:10753000054601A803A90395ADF81040FFF782FEA8
:1075400003A8FFF7DEFD02A8FFF77BFD09B0F0BD41
:10755000019D0123D5E84F2F002A03D1C5E8413F03
:107560000029F7D1EFD12B73BFF35B8F6B702B1D0D
:10757000BFF35B8F53E8006F43E80042002AF9D164
:10758000BFF35B8F002EDED02046FFF73BFC0746A3
:1075900060B105F10C013046FFF71FFE3046FFF7E2
:1075A00089F910213046FDF7BEFACCE7314603A831
:1075B000FFF77CFF2B7B8DF81C301020FDF7ADFA18
:1075C0000546D0B187601420FDF7A7FA044678B1CC
:1075D0008760014603A8FFF75EFD059BA268A360D4
:1075E000069B0592E268E3609DF81C3006922374C6
:1075F000064BEB60064B2C60AB6003A8FFF75AF913
:10760000002229460348FFF705FCC7E7ED710B0090
:10761000CB740B006F700B00002240681146FFF71F
:1076200085BC002240681146FFF790BC40680022EC
:10763000FFF784BC4068002281F00101FFF76EBCB7
:10764000002340681A461946FFF760BC00234068D3
:107650001A461946FFF752BC002240681146FFF750
:1076600045BC002240681146FFF730BC406800224C
:107670000221FFF733BC002340681A46FFF71EBC07
:10768000024B03225A60024A1A607047C8E6032080
:1076900030BB0B007047F8B5064615460C468F18F0
:1076A000BC4206D0336814F8011B9B6830469847EB
:1076B000F6E72846F8BD007C0022FFF79BBA007C65
:1076C0000021FFF79FBA007C0021FFF7A3BA007CDE
:1076D0000021FFF7A7BA007C0021FFF7ABBA10B575
:1076E00014210446FDF71FFA204610BD38B50446A4
:1076F00015464FF47A730022C4E90123094B217423
:10770000084623602946FFF7A5FABF3008D16B6908
:10771000DB0705D56868FFF749FCE868FFF746FC1A
:10772000204638BD74BB0B000023007C1A46194666
:10773000FFF748BA7FB500221423CDE90122ADF846
:1077400004300B788DF808304B680393CB680493B2
:10775000007C0B7A059301A9FFF784FA07B05DF866
:1077600004FB1FB5003B8DF800104FF0640103913E
:1077700018BF0123694601928DF80830FFF7DAFF40
:1077800005B05DF804FB0123FFF7EBBF007C00228E
:10779000FFF720BAC9B2FFF7F9BF007C0022FFF75C
:1077A00021BA0121FFF7F9BF704710B5182104462F
:1077B000FDF7B9F9204610BDF0B5037D062B8DB05D
:1077C0000E4600F104074FF0000412D000F1080546
:1077D00015F8011D0A22304600F077F9AF42044443
:1077E00019D0002CF4D02E21304600F055F9044475
:1077F000EEE72F236A4639460A208DF80040FFF74E
:1078000039FA6846FDF72EF933680246DB686946A7
:1078100030469847044620460DB0F0BD10B5054BE4
:107820000446112240F8043B002101F080FF20466D
:1078300010BD00BFA0BB0B000346074A10B543F8BC
:10784000042B01F1100251F8044B43F8044B914210
:10785000F9D10A781A7010BDA0BB0B0010B59DF8C5
:10786000084044EA032343EA024242EA0161042356
:107870004160037510BD000007B5064B0360CB786F
:1078800000938B784A780978FFF7E8FF03B05DF83A
:1078900004FB00BFA0BB0B00014B024A1A607047FB
:1078A000D0E60320ACBB0B00002340681A46FFF76C
:1078B00005BB406800220221FFF710BB0022406890
:1078C0001146FFF703BB002240681146FFF70EBBCD
:1078D000002340681A461946FFF710BB0023406892
:1078E0001A461946FFF712BB40680021FFF736BB66
:1078F00040680021FFF73ABB4068002281F0010197
:10790000FFF70CBB40680022FFF718BB002240685D
:107910001146FFF71BBB002240681146FFF706BB6C
:1079200040680021FFF732BB2DE9F04395B01446C3
:107930000D460746FFF772FF00211C220DA800919B
:1079400001F0F5FE40230C9320466B460CAA002163
:10795000FFF7A0F9044600284BD1024601216868D0
:10796000FFF7C4FA0221804622466868FFF7BEFA94
:10797000009E81462146002E3BD0002939D17368F4
:10798000022B03D00A2B11D0F669F4E7B8F1000FEF
:10799000FAD0716906A8043107ADFFF76DFF0FCD6E
:1079A0003C1D0FC42B6823704146EDE7B9F1000F71
:1079B000EAD07469102201A801F0B9FE06238DF8FF
:1079C000143001AD04F108031834186859682A46C8
:1079D00003C20833A3421546F7D101A906A807AD93
:1079E000FFF72AFF0FCD3C1D0FC42B6823704946BB
:1079F000CAE70098FFF746F9384615B0BDE8F083AE
:107A0000033802289ABF024B53F820000148704700
:107A1000B0BB0B00D4E6032008B500224068FFF796
:107A2000ADFABDE80840FFF7EBBF0000024B034A88
:107A30001A6000225A607047D4E60320C4BB0B00D2
:107A4000F8B506460D468F180024BD420CD03368A9
:107A500015F8011B9B6830469847031E01DB1C4448
:107A6000F3E7002C08BF1C462046F8BD13B50446BA
:107A7000084659B10191FCF7F5FF23680199DB68CD
:107A80000246204602B0BDE81040184702B010BDC3
:107A900008B5FFF7EBFF08BD03689B68184738B5CA
:107AA0000D210546FFF7F8FF0A2104462846FFF797
:107AB000F3FF204438BD38B50546FFF7D7FF04462D
:107AC0002846FFF7ECFF204438BD30B58BB00023CB
:107AD000012A8DF8243098BF0A2209AC0D46B1FB6B
:107AE000F2F101FB125303F0FF03092B94BF303373
:107AF0003733DBB2AA4204F8013DEFD92146FFF744
:107B0000B5FF0BB030BD2DE9F04186B000AF0546A2
:107B10000E46381D142114463B60FFF75FFA132808
:107B20000ED8391D2846FFF7A1FF04461EB128468E
:107B3000FFF7B5FF044420461837BD46BDE8F08185
:107B400000F1080323F00703E846ADEB030D2246DE
:107B5000411C3B686846FFF741FA69462846FFF733
:107B600085FF0446C546E1E7014B00229A60704755
:107B7000DCE6032010B5044608462170FFF792F8B2
:107B800000236360204610BD10B50446FEF7EAFFEF
:107B9000E060236820465B699847002808DAFEF712
:107BA000E1FFE368C01AA3689842F2D34FF0FF30B8
:107BB00010BD2DE9F04107460C468E180D46B54222
:107BC000A5EB040807D03846FFF7DEFF031E02DBF3
:107BD00005F8013BF3E74046BDE8F08110B50446E7
:107BE0000068FFF7E3F9204610BD10B504460068B1
:107BF00008B1FFF7DBF90023C4E90133236010BDAE
:107C000038B504460D4600680131FFF7D7F910B1C9
:107C1000C4E90005012038BD10B50368044623B14E
:107C200043688B4201D3012010BD2046FFF7E8FFD7
:107C30000028F9D0A368002BF5D122681370F2E771
:107C400037B50D46114601920446FFF7E5FF019A4C
:107C500028B92046FFF7C9FF204603B030BDA26017
:107C60002946206801F055FD2268A3680021D154FF
:107C7000F2E7002313B5C0E90033044683600373C1
:107C800041B108460191FCF7EDFE019902462046FC
:107C9000FFF7D6FF204602B010BD13B5044659B118
:107CA00008460191FCF7DEFE019902462046FFF7E7
:107CB000C7FF204602B010BDFFF797FFF9E70000AD
:107CC000054B02221A60054B054A9A600020C3E961
:107CD0000000FFF77FB800BFF8E60320ECE60320C2
:107CE0000000FFFF024B1A68024B1A60704700BF8A
:107CF000C8E00320FCE6032070474174704708B5D4
:107D0000007CFFF70FF820EAE07008BD08B5007CA2
:107D1000FEF7E0FF20EAE07008BD08B5007CFEF742
:107D2000E9FF40EAE07008BD08B5007CFEF7DAFF25
:107D300040EAE07008BD007CFEF7E4BF37B5457C43
:107D400004462DB1207C03B0BDE83040FEF7BABF39
:107D5000007C0191FEF7E6FF00280199F2DC28463D
:107D600003B030BD10B514210446FCF7DCFE2046FC
:107D700010BD000010B54FF47A7304460846114652
:107D80000022C4E90123044B23600123207463749F
:107D9000FEF7D0FF204610BD24BC0B004174704795
:107DA0007047704708B50021007CFEF7EBFF40EA02
:107DB000E07008BD08B50121007CFEF7E3FF40EA52
:107DC000E07008BD08B5007CFEF7D4FF20EAE07043
:107DD00008BD08B5007CFEF7C5FF20EAE07008BDCD
:107DE00013B50446007C0191FEF7C4FF00280199F9
:107DF00001DC607C20B1207CFEF7CCFF20EAE07043
:107E000002B010BD007CFEF7CDBF10B514210446B2
:107E1000FCF789FE204610BD10B54FF47A73044676
:107E200008460021C4E90113044B23600123207498
:107E300063741146FEF786FF204610BD58BC0B0048
:107E4000007C0022FEF786BF007CFEF7B3BF10B5B2
:107E500014220446002101F06AFC204610BD0000F7
:107E600010B50F4C88B003A8FFF7F1FF2178BFF3DE
:107E70005B8F11F001010FD120460191FCF755FEF7
:107E8000019948B103AA0748FFF7C6FF2046FCF74F
:107E900051FE054801F034FC024808B010BD00BF97
:107EA00000E7032004E70320A17D0B0000224068C7
:107EB0001146FFF71BB8002240681146FFF736B89D
:107EC000002240681146FFF741B840680022FFF7E2
:107ED00035B84068002281F00101FFF71FB8002388
:107EE00040681A461946FFF711B8002340681A4641
:107EF0001946FFF703B8002240681146FEF7E6BFB7
:107F0000406800220221FEF7E9BF002340681A46BC
:107F1000FEF7D4BF024B04225A60024A1A6070472F
:107F200018E703208CBC0B00014B1860704700BFA2
:107F3000D0E0032008B50B4B43B1FFF791FF036876
:107F40001B699847002801DDAFF30080064B43B161
:107F500000F05CF903681B699847002801DDAFF366
:107F6000008008BD000000000000000008B5FFF719
:107F7000E1FFFEF7F7FD014B186008BD34E7032071
:107F80000548064A064908B5121A01F0C2FB054B1E
:107F9000054A1A6008BD00BF00F4032004F4032062
:107FA00098C70B0000F403201E1C279A07B5002376
:107FB00000931A466FF07701FEF73EFF03B05DF8BD
:107FC00004FB000007B543880A2B08D0502B0BD1C7
:107FD000094B1B684BB103B05DF804EB1847FFF782
:107FE000E5FF03B05DF804FB002300931A466FF031
:107FF0007701FEF721FFF4E724E7032010B51248CC
:108000000021FFF713F8114B1A68114B9A42114BDC
:108010000CBF012200221A7001D0FFF7B1FFFEF75A
:1080200099FD044601F08CFB0B4B13B12046AFF3D6
:10803000008000210848FEF739FFBDE810400748DE
:108040000021FEF7EFBE00BF297F0B0000F40320E4
:108050001E1C279A20E7032000000000C57F0B00AC
:10806000232813B502D9002002B010BDA0F10B03E4
:10807000022B1AD8174C2178BFF35B8F11F0010146
:108080000BD120460191FCF750FD019928B112480F
:10809000FFF770FD2046FCF74DFD0F4B1878FEF7FB
:1080A00009FE0028DFD10120DEE7012809D800F011
:1080B0006DF80021007CFEF7C5FD80F00100C0B224
:1080C000D2E709380128EED800F0A0F8007CFEF7CE
:1080D00021FEF2E728E703202CE70320232838B508
:1080E00004460D460AD8FF2908D0FFF7B9FF28B18A
:1080F00029462046BDE83840FEF744BD38BD38B5B6
:1081000004460D46FEF746FDFF2810D0062804D889
:108110004D2323FA00F0C30709D42046FFF7A0FF40
:1081200028B129462046BDE83840FEF73BBD38BDA2
:1081300010B50446FEF72EFD031FDBB2012B08D954
:108140002046FFF78DFF20B12046BDE81040FEF726
:1081500031BD002010BD704738B50A4B03600123C4
:10816000044643610849202000F074F8202560602F
:108170000549A560284600F06DF8C4E903052046CE
:1081800038BD00BF18000100C8BC0B0030B50E4D53
:108190002978BFF35B8F11F0010487B011D1284615
:1081A000FCF7C3FC68B16846FFF7D6FF6A46214674
:1081B0000648FFF79BFA2846FCF7BCFC044801F090
:1081C0009FFA024807B030BD38E703203CE70320A0
:1081D00057810B007047000038B5044614252A4625
:1081E000002101F0A4FA2580402507492581284671
:1081F000258200F02FF804496060284600F02AF834
:10820000E060204638BD00BFC8BC0B0030B50E4D45
:108210002978BFF35B8F11F0010487B011D1284694
:10822000FCF783FC68B101A8FFF7D6FF01AA21463D
:108230000648FFF79FFD2846FCF77CFC044801F048
:108240005FFA024807B030BD50E7032054E703202F
:10825000D5810B00FCF763BC08B5FEF7C7FE08B577
:10826000FEF7C4FE08B5FEF7C1FE0FB480B584B0BA
:1082700000AF07F1180454F8042B7A601046FCF79D
:10828000F1FB00F2072323F00703ADEB030D00F52C
:1082900000717A68FC602346684600F057F8FEF7E4
:1082A000A5FE08B5FEF7A2FE80B59CB0064600AF5D
:1082B0000C46A41B0E496922381D01F02AFA04F16C
:1082C000700323F00703ADEB030D6D466822391DE3
:1082D000284601F01EFA2246314605F168002C447A
:1082E00001F017FA002384F868302846FFF7B7FF3B
:1082F000C9BC0B002DE9F04100AF84B06D4605F11B
:108300000C04DFF8448023464FF00A0CB2FBFCF665
:108310000CFB162E18F80EE003F801ED9646BEF1A0
:10832000090F3246F2D8E41A8C4209D8C4F10C0382
:108330002246E91801F0EDF92046BD46BDE8F0817E
:108340004FF0FF34F8E700BF32BD0B0001392DE9D3
:10835000F0410746154600EB010804462A7892B31F
:1083600044452AD2252A07D16A78732A09D07A2A65
:1083700012D0252A00D1013515F8012B04F8012B64
:10838000ECE753F8042B013A12F8011FC9B1444538
:1083900013D004F8011BF7E7AA78752AECD11E4622
:1083A000A8EB040156F8042B2046FFF7A3FF002892
:1083B00003DD044403353346D0E721463846FFF752
:1083C00073FF0235CAE72270E01BBDE8F0810AB1F5
:1083D00001F09FB97047000008B50B68B3F1804FFA
:1083E00002D30D48FFF73EFF93420BD9B3EB420F88
:1083F0004FEA420006D2B0F1804F2ABF6FF04043EF
:1084000008600B600868013001D5FFF725FFBDE863
:108410000840FCF782BB00BF3DBD0B0050F8083B95
:10842000834202D01846FCF77CBB7047012A10B487
:1084300004D10A785DF8044B027070475DF8044B74
:10844000FFF7C5BF08B5521AFFF7F0FF08BD0000DF
:1084500010EE103A184A23F0004393421BDDB3F1AB
:10846000FF4F02DB30EE400A704700B583B068462C
:1084700000F06CFA00F003000128DDED010A9DED2B
:10848000000A0CD0022812D070B1012000F050FF79
:1084900003B05DF804FBDFED090A00F08DBB00F0CE
:1084A00047FFB1EE400AF3E700F086FBF0E700F08B
:1084B00083FBB1EE400AEBE7D80F493F0000000014
:1084C00010EE103A194A23F0004393421CDDB3F139
:1084D000FF4F02DB30EE400A704700B583B06846BC
:1084E00000F034FA00F003000128DDED010A9DEDF3
:1084F000000A0ED0022813D070B100F05DFBB1EE7F
:10850000400A03B05DF804FBDFED090A002000F02B
:108510000FBF00F051FBF4E7012000F009FFF0E786
:10852000012000F005FFB1EE400AEAE7D80F493F0D
:108530000000000008B52DED028BB0EE408A00F07F
:1085400057F8144B93F900300133F0EE408A0FD006
:10855000B4EE488AF1EE10FA0AD6B0EE480A01F0FD
:1085600009F8F7EE007AB4EEE70AF1EE10FA04DC4F
:10857000B0EE680ABDEC028B08BDFEF747FDBDEC0E
:10858000028B034621221A600348BDE8084001F02F
:108590003FB800BFCCE0032058BD0B0000F02EB95F
:1085A00008B52DED028BB0EE408A00F001FB0E4BBA
:1085B00093F9003001330BD0B4EE488AF1EE10FA93
:1085C00006D6DFED0A8AB4EEE88AF1EE10FA02D49C
:1085D000BDEC028B08BDFEF719FD88EEA80ABDECC4
:1085E000028B2123036008BDCCE0032000000000C3
:1085F00038B510EE105A25F00044B4F17E5F2DED31
:10860000048B00F085807ADCB4F17C5F0FDAB4F182
:10861000485F80F29C80DFED697A70EE277AB7EED2
:10862000007AF4EEC77AF1EE10FA00F38D8000F0D4
:10863000A1FFF7EE007A37EEC00AB6EE008A20EE10
:10864000088A9FED5F7ADFED5F6A9FED5F6A9FEDBD
:108650005F5ADFED5F5ADFED5F8AE8EE076A9FED54
:108660005E7AA8EE067A9FED5D6AA6EE885AA7EEBE
:10867000086A9FED5B7ADFED5B6AE5EE085AA6EECD
:10868000087AE5EE886AE7EE087AE6EE888AB0EEC8
:10869000480AB0EE679A00F08BFA534B9C4268EEA2
:1086A000888A42DC10EE103A23F47F6323F00F0334
:1086B00006EE903AA6EEE68A70EE267A88EE895AA1
:1086C000C8EE274A9FED497ADFED497AB0EE006A9D
:1086D000A4EEC67A30EE000AF0EE675AE6EEC65A0D
:1086E00090EE057A37EE657A37EEC77A002D0ADC10
:1086F000BDEC048BB1EE477AB0EE470A38BD70EEA0
:10870000407A87EEA77ABDEC048BB0EE470A38BDFD
:108710009FED367ADFED377A20EE077ABDEC048BD9
:10872000A0EE277AB0EE470A38BD88EE896A9FED41
:10873000327ADFED307AA0EE060AF0EE006AA0EEA3
:10874000267A37EEC77AD1E7B0EE407ADBE760EE03
:10875000007A9FED1B7ADFED1B6A9FED1C6ADFED4F
:108760001A5A9FED1B5AE7EE876ABDEC048BA6EE02
:10877000A76A9FED197ADFED196AA7EEA57AA6EE32
:10878000275AE7EE276ADFED175A9FED156A9FED2E
:10879000117AE5EE275AA6EEA76AA5EEA77AF7EEBC
:1087A000006AE6EE276A67EE277AB0EE407A87EE37
:1087B000A66AA0EE067AB0EE470A38BDCAF2497141
:1087C00008EF1138047F4F3A2EC69D3D461124BD57
:1087D000A80A4E3EABAA2A3E613330BF2D57014056
:1087E00039D119C090B0A6BE9999793F2EBD3BB33F
:1087F000DB0F493FDB0FC93F2EBD3B3310B582B0C5
:10880000CDED010A019B23F00042B2F1FF4FF0EEE3
:10881000407A30DC10EE100A20F00041B1F1FF4F39
:1088200029DCB3F17E5F42D09C1704F0020444EAD5
:10883000D07431B37AB3B2F1FF4F40D0B1F1FF4FF2
:1088400029D08A1AB2F1F45F4FEAE25134DA002BF0
:1088500042DA3C3140DA9FED340A012C4ED0022C32
:1088600043D064B19FED317ADFED317A30EE070A03
:1088700030EE670A03E09DED017A37EE270A02B079
:1088800010BD022C10D09FED2B0A032C18BFB0EEA8
:10889000670A02B010BD9FED280ADFED287A002894
:1088A000B8BFB0EE670AEAE79FED210AE7E702B03A
:1088B000BDE8104000F084BD9FED1F0ACDE7B1F187
:1088C000FF4F04F1FF3420D0022C26D81C4B03EBC1
:1088D000840494ED000AD2E79DED017A87EE870AC1
:1088E00000F048FE00F06CFDB7E79FED107ADFED79
:1088F000107A30EE070A37EEC00AC0E710EE103AE1
:1089000003F1004300EE103AB9E7022C08D80D4BF2
:1089100003EB840494ED000AB1E79FED030AAEE790
:108920009FED090AABE700BF000000002EBDBB337E
:10893000DB0F4940DB0F49C0DB0FC93FDB0FC9BF6D
:1089400068BD0B005CBD0B00DB0F493F70B510EE3E
:10895000103A894A23F00044944286B0054670DDFF
:10896000864A944210EE106A22DC002BDFED847AF6
:10897000844A24F00F04B0EE407A40F3E48094423D
:1089800070EE677A09BFDFED806A9FED807A9FED18
:10899000807A77EEE67A012077EEC76A77EEE67A9C
:1089A000C5ED006A77EEC77AC5ED017A06B070BDF5
:1089B000784A944254DDB4F1FF4F49DAE215863A21
:1089C000A4EBC25307EE903ABDEEE77ADFED726A90
:1089D000B8EEC77A77EEC77A8DED037A67EEA67A9E
:1089E000BDEEE77AB8EEC77A77EEC77A8DED047AF6
:1089F00067EEA67AF5EE407AF1EE10FACDED057A43
:108A000040F09080B5EE407AF1EE10FA14BF0223E8
:108A10000123624901910221009103A8294600F037
:108A20004DF9002EC2DA95ED007AD5ED017AB1EE5E
:108A3000477AF1EE677A85ED007AC5ED017A40421A
:108A4000B4E7002285ED000A4260002006B070BD48
:108A500070EE407A0020C5ED017AC5ED007AA5E7F9
:108A600000F088FD9FED4E7A9FED456AF6EE007AA4
:108A7000E0EE077A9FED457AFDEEE77A17EE900A71
:108A8000F8EEE76A1F28A6EEC60A66EE877AB1EE10
:108A9000666A1EDC434A411E24F0FF0352F821207F
:108AA000934216D030EE677A85ED007A30EE470AB1
:108AB000002E30EE670A85ED010ABFF677AFB1EE02
:108AC000477AB1EE400A85ED007A85ED010A404211
:108AD0006CE730EE677AE21517EE103AC3F3C7532E
:108AE000C3EBD454082CDFDDDFED277A9FED287A25
:108AF000F0EE405AE6EE275A30EE650AA6EE270A57
:108B0000F0EE407AD6EE877A35EEE77A17EE103A35
:108B1000C3F3C753D21A192A06DCB0EE650A85EDF5
:108B2000007AC3E7032374E79FED1F7A9FED1F5A76
:108B3000B0EE650AA6EE070A75EEC07AE6EE077A91
:108B4000D6EE857AAEE7944270EE277A09BFDFED64
:108B50000E6A9FED0E7A9FED0E7A77EEA67A4FF0B1
:108B6000FF3077EE876A77EEE67AC5ED006A77EE3A
:108B7000877AC5ED017A19E7D80F493FE3CB164054
:108B8000800FC93FD00FC93F0044353743443537C4
:108B900008A3852E800F494300008043F4BD0B00DD
:108BA00084F9223F74BD0B0000A3852E32318D2441
:108BB000B1EEC00A704700BF10EE103A23F0004338
:108BC000B3F1485F2CDAFDEEC07A17EE903A002B35
:108BD00060D020EE007ADFED317A9FED315ADFED83
:108BE000315A9FED316ADFED316AA7EE275ADFED8A
:108BF000307AE7EE055AA7EE256AE7EE067AE7EE49
:108C0000276A67EE266A60EEC00AF6EE007AE7EEA3
:108C1000260AB7EE000AD7EE270A30EE600A704740
:108C200020EE007ADFED1D7A9FED1D5ADFED1D5A13
:108C30009FED1D6ADFED1D6A1E4AA7EE275A93427B
:108C4000DFED1B7AE5EE075AA5EE876AE6EE077AB6
:108C5000E7EE876A66EE876AD5DD174A934214DC31
:108C600003F17F4307EE903AB7EE006A36EE676A8B
:108C700060EEC00AF6EE005AD7EE257AE7EE260A35
:108C800077EEE00A36EE600A7047B6EE076AF5EE58
:108C9000027AEDE7B7EE000A704700BF4ED747AD46
:108CA000F6740F317CF293B4010DD037ABAA2A3D94
:108CB000610BB6BA9999993E0000483F2DE9F04FF3
:108CC0002DED048BDBB01C4603930691A34B6899F2
:108CD000089253F82150111D824604F1FF38C0F26A
:108CE000A282D31E44BF13460433DB100293013328
:108CF000DB000793DDE907239B1A0593029B15EB25
:108D00000801A3EB080316D401319FED957A699809
:108D100019441EAA002BA4BF50F8234007EE904A26
:108D200003F10103ACBFF8EEE77AF0EE477A8B422D
:108D3000E2EC017AEED1002DC0F2E582039B1EA980
:108D400001EB830446AE4FEA830C4046EF180AEB72
:108D50008301B8F1000FDFED827A09DB224653462A
:108D6000F3EC016A32ED017A8B42E6EE877AF7D1B5
:108D70000130B842E6EC017A04F10404E9D109AB10
:108D80000AAF03EB850907EB8503083B9FED769A55
:108D9000DFED748A059804930AEB0C0446AE009547
:108DA0005AAB03EB8503002D13ED140A4FEA850B34
:108DB00016DD06EB85033A4660EE097AB0EE407A9E
:108DC000FDEEE77A73ED016AF8EEE77AB342A7EEBB
:108DD000E87A37EEA60ABDEEC77AA2EC017AEBD1AB
:108DE000019000F01BFCB0EE408AB4EE000A28EEC1
:108DF000000A00F0C7FBF2EE007AA0EE678A019845
:108E00000028FDEEC89AF8EEE97A38EE678A79DD37
:108E100005F1FF3EC0F1080357F82E1041FA03FC9C
:108E20000CFA03F3CB1AC0F1070219EE901A43FAB9
:108E300002F26144002A47F82E3009EE901A69DCEC
:108E4000B5EE408AF1EE10FA40F0C180009B05F1CA
:108E5000FF3B5B4510DC05F18043013B07EB8303DF
:108E60000021944653F804294B4541EA0201F9D107
:108E70006246002940F0F380009B013B57F8233005
:108E8000002B40F0E880049B4FF0010C53F80429BC
:108E90000CF1010C002AF9D06B1CAC449E46039ADD
:108EA0005119029A02EB030B0BF1804B699A0BF1FB
:108EB000FF3B06EB83051EAB02EB8B0B03EB810143
:108EC000DBED017A9FED267AF8EEE77AB8F1000F34
:108ED0000BF1040BC1ED007A0A4601F1040109DB34
:108EE000534601E072ED017AF3EC016AA342A6EE6B
:108EF000A77AF7D10EF1010EE645A5EC017ADFDD88
:108F000065464DE740F09D806B1E57F823201212F6
:108F1000002A95DD19EE903A002D03F1010309EEC8
:108F2000903A40F396813968002940F08080012D05
:108F300026D03B464FF0010C53F8041F00297AD08D
:108F40000CF10103C1F580719D4247F82C1016DD2C
:108F500057F82310BB4407EB83030AE038C10B002A
:108F600000000000000080430000803B0000C93F7B
:108F70001968C1F1FF0143F8041B5B45F8D10121D9
:108F800000280CDD012800F04581022807D105F1F9
:108F9000FF3C57F82C3003F03F0347F82C30022AEF
:108FA0007FF44EAFB7EE000A30EE488A00293FF456
:108FB00047AF0992019000F031FB38EE408A099AE0
:108FC0000198B5EE408AF1EE10FA3FF43FAF0292FD
:108FD000DDE90732B0EE480A981A0195009D00F0CD
:108FE0001DFB1FED207AB4EEC70AF1EE10FADDE9A1
:108FF0000132C0F256815FED247A059960EE277A3E
:109000000831FDEEE77A0591F8EEE77A03F1010BFE
:10901000A7EEC70AFDEEE77ABDEEC00A10EE101A01
:1090200047F8231017EE903A47F82B302EE0012333
:109030004FF0000C86E70CF1010CAC457FF47CAFDF
:109040009EE7F6EE007AB4EEE78AF1EE10FA80F2CF
:10905000EF800022F4E66B1C9E469C461FE70599B4
:10906000A1F1080057F82B1005902B46009D69B917
:1090700003F18043023B07EB8303014653F80409E5
:109080000BF1FF3B08390028F8D0059105980092B4
:10909000B7EE000A00F0C2FABBF1000F009AC0F26E
:1090A00025814FEA8B0E46AB03EB0E060EF1040C46
:1090B0001FED537A07EB0C03311D73ED017AF8EEC7
:1090C000E77ABB4267EE807A20EE070A61ED017A0B
:1090D000F3D1002D1FED5B6A4FF0000420DB9248B6
:1090E000DFED927AB0EE467A3146002303E09C42EF
:1090F00008DBB0EC017AF1EC016A01339D42E6EE47
:10910000877AF4DA5AAB03EB8403A34543ED287A5C
:10911000A6F1040604F1010305D0002D1C46DEDA99
:10912000DFED827AEEE7689902291CDC002900F362
:1091300092800FD132ABDFED7D7A9C443CED017A19
:10914000634577EE877AF9D10AB1F1EE677A069B2B
:10915000C3ED007A19EE903A03F007005BB0BDEC66
:10916000048BBDE8F08F689B032BF3D1BBF1000F9C
:1091700000F0D1805AAB734432A913ED287A01EB89
:109180008B0373ED017AF0EE476A37EE277A994246
:1091900077EEC77A83ED007A77EEA67AC3ED017A8F
:1091A000EFD1BBF1010F40F3B6800BF1804B5AAB0E
:1091B0000BF1FF3B9E444FEA8B0B0BF104031EEDBA
:1091C000287A0B4433A873ED017AF0EE476A37EE44
:1091D000277A984277EEC77A83ED007A77EEA67AFF
:1091E000C3ED017AEFD10BF1080BDFED507A01EB03
:1091F0000B03083133ED017A994277EE877AF9D182
:10920000002A56D10699329A339B0A604B60C1ED11
:10921000027A9FE705F1FF3C57F82C3003F07F03FB
:1092200047F82C30BBE6082307930023029361E53F
:1092300019EE903A002D03F1010309EE903AC8BFF0
:1092400002223FF770AEF7EE007A37EEC88A0222AC
:10925000F6E5002194E632A9DFED347A01EB8303D1
:1092600033ED017A994277EE877AF9D19DED327A22
:109270008ABB069BBBF1000FC3ED007A77EE677ADD
:109280000BDD33A90123B1EC017A01339B4577EE65
:10929000877AF8DA0AB1F1EE677A069BC3ED017AB4
:1092A00058E7BDEEC00A9B4610EE101A47F823108F
:1092B000ECE6DDED326A9DED337A069BF1EE666AEF
:1092C000B1EE477AF1EE677AC3ED006A83ED017A79
:1092D000C3ED027A3EE7069BF1EE676ABBF1000F31
:1092E00077EE677AC3ED006ACBDCD4E7689B022B8C
:1092F0000DDC002B14DC7FF42DAFDFED0C7A002A9F
:109300003FF425AF21E7039B4FEA830C37E5689BC9
:10931000032B7FF41FAFDFED057A002AC9D171E777
:10932000DFED027AA2E700BF10C10B0000000000D1
:1093300010EE103A23F00043B3F1485F04DAFDEE7B
:10934000C07A17EE903A5BB360EE007A9FED157A23
:10935000DFED155A9FED156ADFED156AE7EE875AC6
:109360009FED147AA5EEA76A20EE275AE6EE276A4B
:10937000A6EEA77A30B9DFED106AE7EE876AA6EEAF
:10938000850A704727EE457AF6EE006AA0EEA67AC7
:10939000DFED0A6AD7EE270AE5EE260A30EE600A0C
:1093A000704700BFD3C92E2F342FD7B21BEF3836EA
:1093B000010D50B98988083CABAA2ABEABAA2A3E47
:1093C00038B510EE105A25F00044B4F1A14FF0EE7C
:1093D000407A0BDBB4F1FF4F5BDCDFED537A9FED9E
:1093E000530A002DC8BFB0EE670A38BD504B9C42EF
:1093F0005EDCB4F1445F4FDB4FF0FF3367EEA76AEA
:10940000DFED4C4ADFED4C5A9FED4C5A9FED4C4A34
:1094100026EEA67AB0EE666AE7EE245A5A1CDFED15
:10942000494ADFED496AA5EE875AE7EE246ADFED87
:10943000475ADFED474AE6EE875AA5EE074A9FED09
:10944000455ADFED456AA5EE875AE4EE074ADFED9F
:10945000435AE4EE876AE5EE075A66EE866A25EE21
:10946000877A3AD03E4A02EB830276EE876A92ED23
:10947000000A3C4A96EEA70A02EB8303002D93ED07
:10948000007A70EE677A37EE670AAEDAB1EE400A1C
:1094900038BD30EE000A38BD9FED337A30EE077AE2
:1094A000F7EE006AB4EEE67AF1EE10FAA4DD38BD0C
:1094B00000F060F82D4B9C4216DCA3F5D0039C42D3
:1094C00027DCF0EE007ABFEE007AA0EE277A0023C8
:1094D00030EE270AC7EE007A90E776EE876AE6EE6E
:1094E000E77AB0EE670A38BD214B9C420BDCF7EE01
:1094F000087AB7EE007AA0EE277A022330EE670AE8
:10950000C0EE077A7AE7BFEE007AC7EE007A03234F
:1095100074E7F7EE007A30EE677A30EE270A01231F
:10952000C7EE007A6AE700BFDB0FC93FDB0FC9BF98
:10953000FFFFDF3ED769853C59DA4B3D356B883DEF
:109540006E2EBA3D21A215BD6BF16EBD95879DBDF6
:109550002549123E388EE3BDABAAAA3ECDCC4CBE07
:1095600054C10B0044C10B00CAF24971FFFF973F81
:10957000FFFF1B4010EE103A23F0004300EE103ABC
:10958000704700BF10EE102AC2F3C7537F3B162B63
:1095900022F0004128DC002B18DB1A4919410A424D
:1095A00021D0DFED197A70EE277AF5EEC07AF1EE70
:1095B00010FA18DD002A04DA4FF4000040FA03F331
:1095C0001A4422EA010300EE103A7047DFED0E7AEA
:1095D00070EE277AF5EEC07AF1EE10FA03DD002A7C
:1095E00008DB9FED0A0A7047B1F1FF4FFBD330EE65
:1095F000000A7047FFEE007A002918BFB0EE670A34
:10960000704700BFFFFF7F00CAF2497100000000F1
:109610009FED010A704700BF0000C07F82B08DED52
:10962000010A019B33F000422AD0B2F1FF4F23D24E
:1096300013F0FF4F28D19DED017ADFED2A7A2A4BF6
:1096400067EE277A9842CDED017A37DB019BC3F3B1
:10965000C752193A0244FE2A1ADD9FED240A9FEDF3
:10966000247A019B002BF0EE407AB8BFB0EE470A97
:1096700020EE270A02B0704730EE000A02B07047B1
:109680009DED010A02B07047D20D0244FE2AE4DCCF
:10969000002A0BDC12F1160F17DA4CF25033984205
:1096A000DBDC9FED140A9FED147ADAE723F0FF4329
:1096B00043EAC25300EE103A02B070479FED0D0A24
:1096C000DDED017A27EE800AD8E7193223F0FF4357
:1096D00043EAC253DFED097A07EE103A27EE270A74
:1096E000CCE700BF0000004CB03CFFFFCAF249715C
:1096F000CAF249F16042A20D6042A28D000000331F
:10970000002301461A46184600F010BF002100F061
:10971000A1BE0A44914200F1FF3300D1704710B559
:1097200011F8014B03F8014F9142F9D110BD0244E9
:109730000346934200D1704703F8011BF9E700008C
:1097400038B5104B1D68AB6B0446B3B91820FDF754
:1097500025FC0246A86320B90B4B0C484221FDF7BB
:109760005DFC0B490B4BC0E900130B4B83600B23D3
:10977000838100210120C2E90401AB6B00221C613E
:109780005A6138BDD0E0032064C10B007BC10B00DF
:109790000E33CDAB34126DE6ECDE0500034611F856
:1097A000012B03F8012B002AF9D17047024B014627
:1097B000186800F003B800BFD0E0032037B50446B6
:1097C00008460D46FBF74EF9421C11462046019211
:1097D000FDF714FC044618B1019A2946FFF799FFDA
:1097E000204603B030BD10B57AB103460139841864
:1097F00013F8010B11F8012F904201D1A34201D1BE
:10980000801A10BD0028F3D1FAE71046F9E770B5C9
:1098100004460D4645EC104B164601F0E1FD51ECB7
:10982000100B7EB1C5F30A53C3F16B03002B09DDA6
:109830001B0503F17F55002405F5401522462B46F4
:10984000FAF7AAFD70BD00002DE9F04F2DED028B57
:109850009DB01F4600231893A24B13921B680593DB
:10986000044618468846FBF7FDF84FF0000A054607
:109870004FF0000BCDF85C80179B1A782B2A4ED046
:109880003BD80D2A34D8082A34D8002A3ED00023E9
:109890000A93179E3378302B40F0B080737803F032
:1098A000DF03582B68D10A9B019318AB02970093F2
:1098B0008D4A19AB17A9204600F002FF10F00707E8
:1098C000054605D0062F2CD10136002317960A93A2
:1098D000139B002B40F090850A9BEBB152460BF195
:1098E000004343EC102B1DB0BDEC028BBDE8F08FA4
:1098F000202ACCD101331793BEE72D2AC7D10122EC
:109900000A925A1C17925B78002BC2D1139BCDF898
:109910005C80002B40F06E8552465B46E1E70022FA
:10992000EEE7189A3AB135211AA801F064FE1899A9
:10993000204601F023FA013F042F06D8DFE807F0A4
:109940000A0314170A00DDE91AAB2807C0D54BF04B
:10995000004BBDE7DDE91AA3199A23F4801302F244
:10996000334243EA025BF0E7DFF880B1EDE76FF0E6
:10997000004B4FF0FF3AE8E7179B5A1C17925B78B1
:10998000302BF9D0002BA3D001234FF00009049312
:10999000179B0893CDF81C904F460A22179806781B
:1099A000A6F13003D9B209292AD905992A46FFF729
:1099B0001AFF98B3002032463D4605900346652ABB
:1099C00001D0452A18D11DB9049A02439ED0002522
:1099D000DDF85C8008F10102179298F801202B2A2B
:1099E00075D02D2A7BD04FF0000CA2F1300109294F
:1099F00040F28280CDF85C8000269DE00023C4E721
:109A0000082FD8BF079900F10100DABF02FB01332C
:109A1000079302FB093901371790BFE7179B5A19C3
:109A200017925A5D002F37D005903D46A2F13003C2
:109A3000092B12D90123C2E7179B5A1C17925A7897
:109A40000130302AF8D0A2F13103082B00F2D9847A
:109A5000179B0590002008930546303A00F101035A
:109A600014D00599194405912B4600EB050E0A21E7
:109A7000734513D12B18082B05F1010505441CDC97
:109A800007990A2303FB012307930023179A511C0C
:109A9000179152781846C9E73846D2E7082B04DCFC
:109AA000079E4E4307960133E2E703F1010CBCF138
:109AB000100FD8BF01FB09F9F5E7102DDCBF0A2311
:109AC00003FB0929E1E70023059301237CE74FF01D
:109AD000000C08F10202179298F8022085E74FF077
