:02000002B0004C
:1040000000400B00D25E0B00000006000C00050211
:0840100004010D17000000007F
:044018004C5B0B00F2
:10401C00034613F8012B002AFBD1181A01387047FC
:10402C0009480A49884208B505D0094A824202D09B
:10403C00121A01F0DBFC0748074A0021121A01F0A2
:10404C00E3FC014808BD00BF30E60320385E0B00DE
:10405C009CE603209CE60320FCE7032070B5074E8A
:10406C00074C01F0B3FBA41BA4080025AC4200D103
:10407C0070BD56F8043B98470135F7E7EC5D0B0033
:10408C00145E0B0000F016B808B500F05DF8BDE842
:10409C00084001F053BB00F073BE00F071BE00F09D
:1040AC0077BE0078B0FA80F04009704701230370A6
:1040BC007047000037B501F0BBFA4FF4E13101F065
:1040CC00A7FA002000F068FC41F288350446002075
:1040DC0000F062FC001B61F10001A84271F10003C9
:1040EC0007D201F0A5FA01F097FA10B900F0C8FD5B
:1040FC00EDE701F09DFA01F08FFA01F099FA0E4903
:10410C0001F0C1F801F006FC0623024600930B48AF
:10411C000C235A2100F09BFB28B901F089FA0849BD
:10412C0001F0B1F8FEE701F083FA064903B0BDE8EF
:10413C00304001F0A8B800BF605B0B00A8E603207C
:10414C008D5B0B00AD5B0B002DE9F0411B481C4D4A
:10415C001C4E1D4FDFF8748000F024FB00242880D7
:10416C002B88E340D8070FD43388E340D9071ED5FA
:10417C0001F05EFA21460A2201F08FF801F058FA9C
:10418C00414601F080F812E03388E340DA070ED4A0
:10419C0001F04EFA0A22214601F07FF801F048FAAC
:1041AC00394601F070F82B88E340DB07DCD501348D
:1041BC000C2CD5D12B883380BDE8F081A8E60320E8
:1041CC00ACE60320AEE60320BB5B0B00C45B0B002C
:1041DC0008B50021012000F037FD074B0022C3E990
:1041EC000022A2F580329A60032000F01DFDBDE88C
:1041FC000840024800F0AEBA9CE60320A8E6032073
:10420C0030B50025C0E9001542819DF810109DF8CD
:10421C000C20456141738273037330BDF0B5458941
:10422C00847A85B0034600688DF80C402D0A0E4642
:10423C0017468DF80D5040B15B7B019303AB009397
:10424C00012300F0DFF805B0F0BD58680028FAD063
:10425C0093F808E093F80DC0BEF1030F0CD10CF1EC
:10426C00010325F0010500938DF80C508DF80D40DD
:10427C0003AB00F029FAE6E7BEF1000F09D104F018
:10428C007F048DF80C40CDF800C003AB3A463146A4
:10429C00EFE7BEF1020F02D164F07F04F1E7BEF14B
:1042AC00010F01BF9DF80C3003F07F0343F0400376
:1042BC008DF80C30E7E7F0B40B4602B9027B042A08
:1042CC0014D800F10F05436184182946844209D0A3
:1042DC00877BDEB227B92E701B0A0135013CF5E74E
:1042EC00A673F9E72046F0BCFFF798BF0020F0BC9E
:1042FC0070477FB54689857A8DF80C500446006866
:10430C00360A0B468DF80D6040B10021CDE9002135
:10431C0003A9627B00F0E4F804B070BD606800286B
:10432C00FAD0217A647B03290DD146F00106FF21D6
:10433C00CDE900218DF80C608DF80D50621C03A99D
:10434C0000F0E4F9E8E741B965F07F058DF80C5011
:10435C00FF21CDE900212246F1E7022902D105F027
:10436C007F05F3E7012902BF9DF80C1061F03F01B6
:10437C008DF80C10ECE738B500F10F05027B2946DF
:10438C000446FFF7B6FF78B1227B29462244002071
:10439C00A2420BD00302A07B20B9907B1843013AB8
:1043AC000131F5E70878F9E74FF0FF3038BD42608E
:1043BC000022027220220170C260704710B5037A8D
:1043CC00044653B12178606800F0C1FD606800F0CC
:1043DC00C6FDB0FA80F0400910BD012100F003F8D1
:1043EC000028EFD1F8E738B5044640680D4600F0D8
:1043FC007BFD0120207225B12046BDE83840FFF737
:10440C00DDBF38BD2DE9F843DDE908961F46C368CA
:10441C00154632449A420446884602D90020BDE82B
:10442C00F8830178406800F092FD7EB960680368FB
:10443C002A46DB68414698478542EFD16068394689
:10444C0000F089FDB0FA80F04009E8E7B9F1000FFF
:10445C00ECD0606803683246DB6849469847864270
:10446C00DCD1E3E72DE9F041154604460E46D2B205
:10447C000178406800F057FD85420DD100271FFAE6
:10448C0087F8A84507F1010709D2606803685B69E2
:10449C00984706F80800F2E70020BDE8F0810120FB
:1044AC00FBE72DE9F8430746884616469946002552
:1044BC00B54212D2FA68741B944228BF1446331BBF
:1044CC00AB4294BF4B460023224608EB050138460D
:1044DC00FFF7C8FF10B12544EAE70120BDE8F883D7
:1044EC0073B51D460023CDE900339DF81C30069EA4
:1044FC000446FFF787FF40B1012332462946204688
:10450C0002B0BDE87040FFF7CCBF02B070BD000038
:10451C002DE9F04F0446006885B00D4640B10023EC
:10452C00009313460A4600F075FF05B0BDE8F08F06
:10453C00237BA068484FB7FBF0F7002B0B780CBF20
:10454C004FF0010B4FF0800B1BEA030F01EB020342
:10455C000CBF4FF001094FF00009FFB20393039B0E
:10456C00AB42E2D095F800A05E464FF0000817B1C0
:10457C00384600F001FA637B13F0FD0F41D194F93A
:10458C0010305A1C0FD01AEA060114BF0123002365
:10459C004B4508D06369606A1A6800292CD0024325
:1045AC001A604FF00109A169E36A0A6813430B60B2
:1045BC0017B1384600F0E0F994F91130013306D008
:1045CC00E3691A68A36A1A4218BF46EA0808A16987
:1045DC00E36A0A6822EA03030B6094F91130013391
:1045EC0018BF85F80080237B002B32D17600F6B201
:1045FC00002EBCD10135B2E722EA00021A608946CE
:10460C00D1E7A169E36A0A6813430B6017B1384616
:10461C0000F0B2F994F91030013308D06369616A83
:10462C001A681AEA060F14BF0A438A431A60A16972
:10463C00E36A0A6822EA03030B6094F91130013330
:10464C00CBD0E3691A68A36A1A4218BF46EA080875
:10465C00C3E77608CCE700BF20A1070007B501220D
:10466C008DF807100DF10701FFF752FF9DF80700B9
:10467C0003B05DF804FB03681BB14168184600F0F9
:10468C005BBE7047006808B100F03CBE704790F903
:10469C000E00431C03D0C9B280B201F007B97047B9
:1046AC0010B50446FFF7E7FF20460021BDE8104097
:1046BC00FFF7EDBF10B501210446FFF7E8FF2046D8
:1046CC00BDE81040FFF7DEBF2DE9F0411C46064661
:1046DC000D461746FFF7E4FF069B04EB0308444521
:1046EC0008D12F44BD420BD015F8011B3046FFF703
:1046FC00B5FFF7E714F8011B3046FFF7AFFFEEE705
:10470C003046FFF7D7FF0120BDE8F0812DE9F041DD
:10471C000D4617469DF81C8006461C46FFF7C0FF49
:10472C002F44BD420AD1069BE518AC420CD0414641
:10473C003046FFF793FF04F8010BF6E715F8011B61
:10474C003046FFF78BFFECE73046FFF7B3FF012055
:10475C00BDE8F08100220260704700B50A4689B0BE
:10476C0001230021CDE90013016802A8FFF748FDE1
:10477C0002A8FFF700FEC0B209B05DF804FB00B55B
:10478C000A4689B000230121CDE9003102230168DA
:10479C0002A8FFF735FD02A8FFF7EDFD80B209B0C6
:1047AC005DF804FB08B50021FFF7E9FFC0F30B002F
:1047BC0008BD2DE9F0434FF001088FB00024CDE97E
:1047CC0000480D46434601680646914602A85E2203
:1047DC00FFF716FD02A8FFF7CEFD5E2D074609D0A8
:1047EC00A5F17303072B05D92246214602A8FFF732
:1047FC0062FD44464FF00008012331682A46CDE99A
:10480C00008308A8FFF7FCFC4246494608A8FFF7BE
:10481C0052FD24B14246F9B202A8FFF74CFD0FB08D
:10482C00BDE8F083F8B505460F46164641242146EF
:10483C003A462846FFF7BDFF611C02343246C9B226
:10484C002846E4B2FFF7B5FF592CF0D1F8BD2DE99D
:10485C00F041044600680F4690461E4610B11021E8
:10486C00FFF71DFC1020FFF716FC054618B1424659
:10487C003946FFF79CFD256028460121FFF7B3FD63
:10488C00054618B900252846BDE8F0816322802131
:10489C002046FFF78EFF012000F092FA00225E21E5
:1048AC002046FFF786FF5D212046FFF756FF2428A0
:1048BC00E8D19DF8182031462046FFF7B3FF20467B
:1048CC0001222B21FFF775FF204601222C21FFF737
:1048DC0070FF20460E222D21FFF76BFF2046002291
:1048EC002E21FFF766FF204601222F21FFF761FFE3
:1048FC00204605223021FFF75CFF204601223121A2
:10490C00FFF757FF204600223221FFF752FF2046C7
:10491C0000223321FFF74DFF204600223421FFF700
:10492C0048FF204600223521FFF743FF2046002296
:10493C005B21FFF73EFF204610225C21FFF739FF79
:10494C00204620225D21FFF734FF8C225E21204679
:10495C00FFF72FFF97E7000008B5024B1B685B6C55
:10496C00019308BD4802030008B5024B1B685B6845
:10497C00019308BD1802030008B5024B1B68DB68E5
:10498C00019308BD1802030008B5024B1B685B6954
:10499C00019308BD1802030008B5024B1B68DB6DC0
:1049AC00019308BD1802030008B5024B1B68DB68B5
:1049BC00019308BD2C02030008B5024B1B681B6950
:1049CC00019308BD2C02030008B5024B1B68DB6881
:1049DC00019308BD2802030008B5024B1B689B69B4
:1049EC00019308BD2802030008B5024B1B68DB6964
:1049FC00019308BD2802030008B5024B1B681B6A13
:104A0C00019308BD2802030008B5024B1B685B6AC2
:104A1C00019308BD2802030008B5024B1B689B6A72
:104A2C00019308BD2802030008B5024B1B68DB6A22
:104A3C00019308BD2802030008B5024B1B681B6BD1
:104A4C00019308BD2802030008B5024B1B685B6B81
:104A5C00019308BD2802030008B5024B1B681B6CB0
:104A6C00019308BD2802030008B5024B1B681B6D9F
:104A7C00019308BD2802030008B5024B1B685B6953
:104A8C00019308BD6402030008B5024B1B689B68C8
:104A9C00019308BD6802030008B5024B1B68DB6874
:104AAC00019308BD6802030008B5024B1B68DB6963
:104ABC00019308BD3002030008B5024B1B681B6A4A
:104ACC00019308BD3002030008B5024B1B685B6AFA
:104ADC00019308BD3002030008B5024B1B689B6AAA
:104AEC00019308BD3002030008B5024B1B689B6B99
:104AFC00019308BD3002030008B5024B1B68DB6B49
:104B0C00019308BD3002030008B5024B1B681B6CF7
:104B1C00019308BD3002030008B5024B1B685B6CA7
:104B2C00019308BD3002030008B5024B1B68DB681B
:104B3C00019308BD3C02030008B5024B1B681B69BE
:104B4C00019308BD3C02030008B5024B1B685B696E
:104B5C00019308BD3C02030008B5024B1B689B691E
:104B6C00019308BD3C02030008B5024B1B68DB69CE
:104B7C00019308BD3C02030008B5024B1B681B6A7D
:104B8C00019308BD3C02030008B5024B1B689B6AED
:104B9C00019308BD3C02030008B5024B1B681B6C5B
:104BAC00019308BD3C02030008B5024B1B681B684F
:104BBC00019308BD4C02030008B5024B1B685B68EF
:104BCC00019308BD4C02030008B5024B1B681B691E
:104BDC00019308BD4C02030008B5024B1B685B69CE
:104BEC00019308BD4C02030008B5024B1B689B697E
:104BFC00019308BD4C02030008B5024B1B68DB692E
:104C0C00019308BD4C02030008B5024B1B681B6ADC
:104C1C00019308BD4C02030008B5024B1B689B6A4C
:104C2C00019308BD4C02030008B5024B1B685B687E
:104C3C00019308BD2002030008B5024B1B685B6999
:104C4C00019308BD2002030008B5024B1B68DB6A08
:104C5C00019308BD2002030008B5034B1B68D3F871
:104C6C008830019308BD00002002030008B5034BF7
:104C7C001B68D3F89430019308BD00002002030098
:104C8C0008B5024B1B689B68019308BD44020300E6
:104C9C0008B5024B1B68DB6B019308BD4402030093
:104CAC0008B5024B1B685B68019308BD400203000A
:104CBC0008B5024B1B689B68019308BD40020300BA
:104CCC0008B5024B1B68DB68019308BD400203006A
:104CDC0008B5024B1B681B69019308BD4002030019
:104CEC0008B5024B1B685B69019308BD40020300C9
:104CFC0008B5024B1B689B69019308BD4002030079
:104D0C0008B5024B1B68DB69019308BD4002030028
:104D1C0008B5024B1B681B6A019308BD40020300D7
:104D2C0008B5024B1B681B6B019308BD40020300C6
:104D3C0008B5024B1B685B6B019308BD4002030076
:104D4C0008B5024B1B681B6C019308BD40020300A5
:104D5C0008B5024B1B685B6C019308BD4002030055
:104D6C0008B5024B1B685B6D019308BD4002030044
:104D7C0008B5024B1B689B6D019308BD40020300F4
:104D8C0008B5024B1B681B68019308BD1C0203008D
:104D9C0008B5024B1B685B68019308BD1C0203003D
:104DAC0008B5024B1B681B6C019308BD1C02030069
:104DBC0008B5024B1B685B6C019308BD1C02030019
:104DCC000021FFF739BF0000024800230360FFF702
:104DDC00C3BD00BFB0E60320002240681146FFF7B8
:104DEC0097BF002240681146FFF7A2BF406800221F
:104DFC00FFF796BF4068002281F00101FFF780BFEA
:104E0C00002340681A461946FFF772BF002340681A
:104E1C001A461946FFF764BF002240681146FFF797
:104E2C0057BF002240681146FFF742BF406800227E
:104E3C000221FFF745BF002340681A46FFF730BF39
:104E4C00024B03225A60024A1A607047B4E60320F0
:104E5C00D85B0B007047F8B5064615460C468F1804
:104E6C00BC4206D0336814F8011B9B683046984747
:104E7C00F6E72846F8BD007C0022FFF7BDBD007C9C
:104E8C000021FFF7C1BD007C0021FFF7C5BD007CF0
:104E9C000021FFF7C9BD007C0021FFF7CDBD10B587
:104EAC0014210446FFF7FBF8204610BD38B5044624
:104EBC0015464FF47A730022C4E90123094B21747F
:104ECC00084623602946FFF7C7FDBF3008D16B6940
:104EDC00DB0705D56868FFF75BFFE868FFF758FF4D
:104EEC00204638BD1C5C0B000023007C1A4619467A
:104EFC00FFF76ABD7FB500221823CDE90022ADF87B
:104F0C0000300B788DF804304B680293CB68039318
:104F1C000B7A0493007C0B6905936946FFF7A4FD9B
:104F2C0007B05DF804FB7FB58DF8041000215B1A07
:104F3C004FF0640CCDE904C118BF012301A9029202
:104F4C008DF80C30FFF7D6FF07B05DF804FB007C42
:104F5C000022FFF741BD007C0022FFF745BD012177
:104F6C00FFF7F9BF054BFF210022C3E90012012016
:104F7C006421C3E902011A61704700BFBCE603203B
:104F8C00704710B518210446FFF789F8204610BD6C
:104F9C00F0B5037D062B8DB00E4600F104074FF0E3
:104FAC00000412D000F1080515F8011D0A22304644
:104FBC0000F073F9AF42044419D0002CF4D02E2128
:104FCC00304600F051F90444EEE72F236A46394687
:104FDC000A208DF80040FFF74FFD6846FFF718F8E0
:104FEC0033680246DB6869463046984704462046DB
:104FFC000DB0F0BD10B5054B0446112240F8043B32
:10500C00002100F001FD204610BD00BF485C0B00E4
:10501C000346074A10B543F8042B01F1100251F86E
:10502C00044B43F8044B9142F9D10A781A7010BD25
:10503C00485C0B0010B59DF8084044EA032343EA92
:10504C00024242EA016104234160037510BD000075
:10505C0007B5064B0360CB7800938B784A780978B8
:10506C00FFF7E8FF03B05DF804FB00BF485C0B00E2
:10507C00014B024A1A607047D0E60320545C0B00C7
:10508C00002340681A46FFF70BBE4068002202213D
:10509C00FFF716BE002240681146FFF709BE00223A
:1050AC0040681146FFF714BE002340681A461946A3
:1050BC00FFF716BE002340681A461946FFF718BEC4
:1050CC0040680021FFF73CBE40680021FFF740BE5E
:1050DC004068002281F00101FFF712BE40680022F7
:1050EC00FFF71EBE002240681146FFF721BE0022CA
:1050FC0040681146FFF70CBE40680021FFF738BE30
:10510C002DE9F04395B014460D460746FFF772FFA4
:10511C0000211C220DA8009100F076FC40230C937A
:10512C0020466B460CAA0021FFF7B6FC044600286B
:10513C004BD1024601216868FFF7CAFD0221804667
:10514C0022466868FFF7C4FD009E81462146002E6A
:10515C003BD0002939D17368022B03D00A2B11D014
:10516C00F669F4E7B8F1000FFAD0716906A80431BA
:10517C0007ADFFF76DFF0FCD3C1D0FC42B682370DF
:10518C004146EDE7B9F1000FEAD07469102201A88D
:10519C0000F03AFC06238DF8143001AD04F108033D
:1051AC001834186859682A4603C20833A3421546B6
:1051BC00F7D101A906A807ADFFF72AFF0FCD3C1DBB
:1051CC000FC42B6823704946CAE70098FFF75CFCB4
:1051DC00384615B0BDE8F083033802289ABF024B5D
:1051EC0053F8200001487047585C0B00D4E60320AC
:1051FC0008B500224068FFF7B3FDBDE80840FFF793
:10520C00EBBF0000024B034A1A6000225A60704741
:10521C00D4E603206C5C0B00F8B506460D468F18DF
:10522C000024BD420CD0336815F8011B9B68304636
:10523C009847031E01DB1C44F3E7002C08BF1C46F7
:10524C002046F8BD13B50446084659B10191FEF746
:10525C00DFFE23680199DB680246204602B0BDE8F8
:10526C001040184702B010BD03689B68184738B54A
:10527C000D210546FFF7F8FF0A2104462846FFF7E3
:10528C00F3FF204438BD38B50546FFF7DBFF044675
:10529C002846FFF7ECFF204438BD30B58BB0002317
:1052AC00012A8DF8243098BF0A2209AC0D46B1FBB7
:1052BC00F2F101FB125303F0FF03092B94BF3033BF
:1052CC003733DBB2AA4204F8013DEFD92146FFF790
:1052DC00B9FF0BB030BD0000014B00229A60704743
:1052EC00DCE603200021FFF717BC0021FFF70CBC04
:1052FC0010B5044608462170FFF7D6FB0023636007
:10530C00204610BD0078FFF7EDBF0000400830B517
:10531C001860002418688842E5B206D90134082CBC
:10532C0002D040081860F5E70725024B5B5D13704F
:10533C0030BD00BFA85C0B002DE9F04306468FB0D2
:10534C0000780C46FFF7D1FF00281BDB35781422C0
:10535C00002109A800F058FB0B23002209A92846BC
:10536C00ADF82430FFF7B0FB9DF82D3013B19DF84C
:10537C002C5055B10027B946B846012523795DB1AB
:10538C00C3B100200FB0BDE8F083DDF830809DF88C
:10539C0034909DF83570F1E7002B35D1A368434567
:1053AC0008D18DF820908DF82170BDF82020A389AC
:1053BC009A42E6D00023A1688DF80F300A9804AB0E
:1053CC000DF10F02FFF7A2FF217985B989B9A36806
:1053DC0043450ED38DF820908DF82170BDF8202018
:1053EC00A3899A4205D1049B434502D1C9E7002900
:1053FC00F9D100230193637B00939DF80F20237B4D
:10540C003078FFF779FBBCE7CDE900552B462A46EF
:10541C000121F5E730B587B004460A9D0095007868
:10542C00FFF75AFB3DB9207802A9FFF75DFB9DF809
:10543C001430DB07F7D407B030BD10B50446FFF7C6
:10544C00A3FAE060236820465B699847002808DAD5
:10545C00FFF79AFAE368C01AA3689842F2D34FF0A8
:10546C00FF3010BD2DE9F04107460C468E180D4655
:10547C00B542A5EB040807D03846FFF7DEFF031E44
:10548C0002DB05F8013BF3E74046BDE8F081000084
:10549C00054B02221A60054B054A9A600020C3E9AD
:1054AC000000FFF7C1BB00BFF8E60320ECE60320C9
:1054BC000000FFFF024B1A68024B1A60704700BFD6
:1054CC0030E60320FCE6032070474174704708B5B2
:1054DC00007CFFF759FB20EAE07008BD08B5007CA2
:1054EC00FFF72AFB20EAE07008BD08B5007CFFF747
:1054FC0033FB40EAE07008BD08B5007CFFF724FBE5
:10550C0040EAE07008BD007CFFF72EBB37B5457C48
:10551C0004462DB1207C03B0BDE83040FFF704BB3E
:10552C00007C0191FFF730FB00280199F2DC284642
:10553C0003B030BD10B514210446FEF7B0FD204673
:10554C0010BD000010B54FF47A730446084611469E
:10555C000022C4E90123044B2360012320746374EB
:10556C00FFF71AFB204610BDD45C0B00417470474A
:10557C007047704708B50021007CFFF735FB40EA07
:10558C00E07008BD08B50121007CFFF72DFB40EA57
:10559C00E07008BD08B5007CFFF71EFB20EAE07048
:1055AC0008BD08B5007CFFF70FFB20EAE07008BDD2
:1055BC0013B50446007C0191FFF70EFB00280199FE
:1055CC0001DC607C20B1207CFFF716FB20EAE07048
:1055DC0002B010BD007CFFF717BB10B514210446B8
:1055EC00FEF75DFD204610BD10B54FF47A730446EE
:1055FC0008460021C4E90113044B236001232074E5
:10560C0063741146FFF7D0FA204610BD085D0B00FD
:10561C00007C0022FFF7D0BA007CFFF7FDBA10B572
:10562C0014220446002100F0EFF9204610BD0000C2
:10563C0010B50F4C88B003A8FFF7F1FF2178BFF32A
:10564C005B8F11F001010FD120460191FEF729FD6E
:10565C00019948B103AA0748FFF7C6FF2046FEF799
:10566C0025FD054800F0BCF9024808B010BD00BF8C
:10567C0000E7032004E703207D550B00002240685F
:10568C001146FFF725BB002240681146FFF740BBCF
:10569C00002240681146FFF74BBB40680022FFF721
:1056AC003FBB4068002281F00101FFF729BB0023BA
:1056BC0040681A461946FFF71BBB002340681A4680
:1056CC001946FFF70DBB002240681146FFF7F0BAF0
:1056DC00406800220221FFF7F3BA002340681A4603
:1056EC00FFF7DEBA024B04225A60024A1A60704776
:1056FC0018E703203C5D0B00014B1860704700BF9E
:10570C0034E6032008B50B4B43B1FFF791FF036858
:10571C001B699847002801DDAFF30080064B43B1AD
:10572C0000F038F903681B699847002801DDAFF3D6
:10573C00008008BD000000000000000008B5FFF765
:10574C00E1FFFFF721F9014B186008BD34E7032096
:10575C000548064A064908B5121A00F047F9054BE8
:10576C00054A1A6008BD00BF00F4032004F40320AE
:10577C00A45E0B0000F403201E1C279A07B500231F
:10578C0000931A466FF07701FFF770FA03B05DF8DB
:10579C0004FB000007B543880A2B08D0502B0BD113
:1057AC00094B1B684BB103B05DF804EB1847FFF7CE
:1057BC00E5FF03B05DF804FB002300931A466FF07D
:1057CC007701FFF753FAF4E724E7032010B51248EA
:1057DC000021FFF7EDFA114B1A68114B9A42114B4D
:1057EC000CBF012200221A7001D0FFF7B1FFFFF7A6
:1057FC00BBF8044600F010F90B4B13B12046AFF385
:10580C00008000210848FFF743FABDE81040074824
:10581C000021FFF721BA00BF05570B0000F403204D
:10582C001E1C279A20E7032000000000A1570B0044
:10583C00232813B502D9002002B010BDA0F10B0330
:10584C00022B1AD8174C2178BFF35B8F11F0010192
:10585C000BD120460191FEF724FC019928B1124886
:10586C00FFF746FD2046FEF721FC0F4B1878FFF79B
:10587C0023F90028DFD10120DEE7012809D800F048
:10588C0049F80021007CFFF7DFF880F00100C0B27E
:10589C00D2E709380128EED800F07CF8007CFFF73D
:1058AC006BF9F2E728E703202CE7032038B5044610
:1058BC000D46FFF779F8FF2810D0062804D84D23A1
:1058CC0023FA00F0C30709D42046FFF7B1FF28B133
:1058DC0029462046BDE83840FFF76EB838BD704702
:1058EC0038B50A4B03600123044643610849202064
:1058FC0000F074F8202560600549A560284600F08A
:10590C006DF8C4E90305204638BD00BF180001003E
:10591C00785D0B0030B50E4D2978BFF35B8F11F01D
:10592C00010487B011D12846FEF7BBFB68B168466D
:10593C00FFF7D6FF6A4621460648FFF7B7FA284616
:10594C00FEF7B4FB044800F04BF8024807B030BD3A
:10595C0038E703203CE70320EB580B0070470000AE
:10596C0038B5044614252A46002100F04DF8258050
:10597C004025074925812846258200F02FF8044947
:10598C006060284600F02AF8E060204638BD00BF71
:10599C00785D0B0030B50E4D2978BFF35B8F11F09D
:1059AC00010487B011D12846FEF77BFB68B101A832
:1059BC00FFF7D6FF01AA21460648FFF7C3FD28468C
:1059CC00FEF774FB044800F00BF8024807B030BD3A
:1059DC0050E7032054E7032069590B00FEF75DBB29
:1059EC00002301461A46184600F044B80A44914276
:1059FC0000F1FF3300D1704710B511F8014B03F8DB
:105A0C00014F9142F9D110BD02440346934200D19B
:105A1C00704703F8011BF9E738B5104B1D68AB6BE9
:105A2C000446B3B91820FFF7ABF90246A86320B9B6
:105A3C000B4B0C484221FFF7B3F90B490B4BC0E958
:105A4C0000130B4B83600B23838100210120C2E9DF
:105A5C000401AB6B00221C615A6138BD34E6032093
:105A6C00795D0B00905D0B000E33CDAB34126DE6FF
:105A7C00ECDE05002DE9F843DFF8B8800646D8F8CF
:105A8C0000001F460D46914600F056F8254B1C6849
:105A9C0034B9254C1C60254B13B11B68C4F88830F5
:105AAC0063681F2B07DDD8F8000000F047F84FF0B3
:105ABC00FF30BDE8F8834EB3D4F8880088B91C4B8E
:105ACC0023B9D8F8000000F038F8F0E74FF48470F0
:105ADC00FFF756F90028F4D00023C0E94033C4F88E
:105AEC008800636840F8239001229A4000EB830100
:105AFC00D0F800311343C0F80031022EC1F8807089
:105B0C0002BFD0F804311343C0F804316368D8F8ED
:105B1C0000005A1C0233626044F8235000F00EF867
:105B2C000020C6E7F4E7032068E70320000000002C
:105B3C008D4D0B0098E603207047704770470000AE
:105B4C002D400B0069400B0091400B0095400B0061
:105B5C00000000004164616672756974204D5052FA
:105B6C003132312043617061636974697665205408
:105B7C006F7563682073656E736F722074657374D0
:105B8C00004D5052313231206E6F7420666F756E3D
:105B9C00642C20636865636B20776972696E673F5C
:105BAC00004D505231323120666F756E64210020E9
:105BBC00746F7563686564002072656C65617365EC
:105BCC00640000000000000000000000434E0B00C9
:105BDC00394E0B002F4E0B00254E0B00194E0B00AF
:105BEC000D4E0B00CD500B00D5500B00014E0B0091
:105BFC00F94D0B00EF4D0B00E54D0B00FD510B006B
:105C0C0005510B000D510B000000000000000000BE
:105C1C00614E0B00AB4E0B00834E0B00634E0B0022
:105C2C008B4E0B00934E0B009B4E0B00A34E0B00A8
:105C3C0071540B0000000000000000009D4F0B0091
:105C4C008D4F0B008F4F0B0061707000B4E603207A
:105C5C0018E70320D4E60320000000000000000039
:105C6C008D500B0097500B00A1500B00AB500B004C
:105C7C00B5500B00C1500B00CD500B00D5500B0094
:105C8C00DD500B00E9500B00F1500B00FB500B00EA
:105C9C00FD510B0005510B000D510B0000081018A5
:105CAC002028303825592D256D2D25645425483A4A
:105CBC00254D3A2553257A0061736374696D65002F
:105CCC000000000000000000D5540B0041550B00F3
:105CDC0019550B0025520B00E9540B0005550B0010
:105CEC00F7540B0013550B0071540B00D7540B00D9
:105CFC00DB540B0000000000000000007F550B007F
:105D0C00E7550B00BD550B0025520B00AF550B0092
:105D1C0081550B0091550B00E1550B0071540B0094
:105D2C00A1550B0079550B0000000000000000008D
:105D3C00E7560B00DD560B00D3560B0089560B00B3
:105D4C00C7560B00BB560B00CD500B00D5500B00AB
:105D5C00AF560B00A7560B009D560B0093560B002D
:105D6C00FD510B0005510B000D510B000052454528
:105D7C004E54206D616C6C6F632073756363656545
:105D8C00646564002F746D702F6A656E6B696E7339
:105D9C002D4743432D31302D706970656C696E65EC
:105DAC002D34385F32303230313132345F3136306D
:105DBC00363138303633392F7372632F6E65776C0A
:105DCC0069622F6E65776C69622F6C6962632F73E1
:105DDC0074646C69622F72616E642E630000000043
:105DEC00DD410B00D54D0B004D4E0B00714F0B00E0
:105DFC007D500B0011520B00E5520B009D540B0013
:085E0C00C1540B00F1560B001C
:105E1400040000001400000003000000474E550079
:105E2400351DBC2C296EAC4A962A18E82FD4088953
:045E3400A855AC0DB4
:105E3800C45C0B0038E603200000000000000000EE
:105E4800000000000000000000000000000000004A
:105E5800000000000000000000000000000000003A
:105E6800000000000000000000000000000000002A
:105E7800000000000000000000000000000000001A
:105E8800000000000000000000000000000000000A
:0C5E98000000000000000000F8E70320FC
:045EA40000000000FA
:105EAE0000000102030405060708090A0B0C0D0E7B
:105EBE000F101112131415161718191A1B1C1D1E6C
:045ECE001F20280069
:045ED20078563412B8
:04000003B000401CED
:00000001FF
