:02000002B0004C
:1040000000400B008E620B00000006000C00050251
:084010000401D51700000000B7
:04401800A45D0B0098
:10401C00034613F8012B002AFBD1181A01387047FC
:10402C0009480A49884208B505D0094A824202D09B
:10403C00121A01F084FD0748074A0021121A01F0F8
:10404C008CFD014808BD00BF48E60320F4610B005D
:10405C00B4E60320B4E60320FCE7032070B5074E5A
:10406C00074C01F03DFBA41BA4080025AC4200D179
:10407C0070BD56F8043B98470135F7E7AC610B006F
:10408C00D0610B0000F036B808B500F0B5F8BDE80B
:10409C00084001F0DDBA00F0FFBB00F0FDBB00F002
:1040AC0003BC00F001BC0078B0FA80F04009704706
:1040BC0001230370704770B5B0B10B4600F10802D4
:1040CC00026053F8084B9C420FD11C4601F11805B5
:1040DC0054F8046B42F8046BAC42F9D14A680B609B
:1040EC00002342604B600B7270BD8A680460826072
:1040FC00F4E7000037B5002300242949294804229D
:10410C0000F02AFB2246012327492848CDE9004428
:10411C0000F042FB01F016FA4FF4614101F002FA93
:10412C00204600F0D5F943F698250446002000F00F
:10413C00CFF9001B61F10001A84271F1000307D215
:10414C0001F000FA01F0F2F910B900F00DFBEDE707
:10415C0001F0F8F901F0EAF90121072001F030FB38
:10416C000121022001F02CFB0121062001F028FB8B
:10417C000121052001F024FB0121042001F020FB8A
:10418C000221002001F01CFB052000F0B5FB01F022
:10419C00D9F9074903B0BDE8304001F0A0B800BF21
:1041AC00B85D0B00C15D0B0055430B00CA5D0B00E5
:1041BC00D45D0B0070B5044600200D4600F0A8FA43
:1041CC0020B1637813B900F0CFFAFAE76378BFF344
:1041DC005B8F661C0BB9284670BD002000F098FA66
:1041EC0020B1337813B900F0BFFAFAE72378012B2A
:1041FC00F1D1207BF0E7000030B5002085B001F054
:10420C0009FB0446002835D10121072001F0E9FA09
:10421C00194B1A4A1B781A498DF8003002A83C2316
:10422C0000F0E6FC21460298FFF7C4FF039C05460C
:10423C007CB16368013B63605BB9236820469B6873
:10424C009847A368013BA3601BB923682046DB6831
:10425C00984725B101F076F90A4901F040F840F28F
:10426C00E93000F049FB0021072005B0BDE83040E3
:10427C0001F0B7BA05B030BDC0E60320E95D0B0014
:10428C00CA5D0B001D5E0B002DE9F74FD0E9008ACB
:10429C002A4CAAEB08038946DB101146284A6343D3
:1042AC009342074602D1274801F04EFB012B1C46D6
:1042BC0038BF0124E418A9EB08051CD2ECB19442D8
:1042CC0028BF1446182060430191FFF7E4FE0199C2
:1042DC0006467019FFF7EFFE45463046A94500F13A
:1042EC00180B0CD02946FFF7E6FE284601F008FC17
:1042FC0018355846F2E71446E4E72646E9E75545F3
:10430C000AD029465846FFF7D6FE284601F0F8FB9E
:10431C0018350BF1180BF2E7B8F1000F05D0B9689E
:10432C004046A1EB0801FFF7BCFE182000FB04641B
:10433C00C7E9006BBC6003B0BDE8F08FABAAAAAABA
:10434C0055555505275E0B00F0B58DB000AF002319
:10435C000846C7E903337B617960FFF759FEC31D3B
:10436C0023F00703ADEB030D79683D4D684601F072
:10437C002BFC3B49684601F04DFC0446002C3BD01D
:10438C0007F120032046BB61FFF742FE0F2804EB28
:10439C000006B86009D9002207F1080107F11800DE
:1043AC0001F08CFBBB68B8613B62B86932462146B0
:1043BC0001F0BAFBBB68BA69FB610021D154D7E9A3
:1043CC000403984210D007F11801FFF774FE3B6903
:1043DC0018333B6107F1180001F092FB29460020CD
:1043EC0001F018FC0446C9E7014607F1180207F171
:1043FC000C00FFF749FFEDE71A4D1826D7E9032308
:10440C009B1ADB106B43A34213D901F09BF8D7E93D
:10441C000332D21AD2106A43A24203D81248214660
:10442C0001F095FA06FB04F20134995800F057FF9D
:10443C00E4E701F087F80D4900F051FFD7E9034597
:10444C00A54204D0204601F05BFB1834F8E7F8686D
:10445C0018B17969091AFFF724FE3437BD46F0BD4F
:10446C00415E0B00ABAAAAAA435E0B008D5E0B004B
:10447C00084B10B500241C702146012000F040F9B7
:10448C00054B064A9A60C3E900440120BDE8104080
:10449C0000F026B9C0E60320B4E603200000FFFFBD
:1044AC0008B5024B1B685B6C019308BD4802030006
:1044BC0008B5024B1B685B68019308BD180203002A
:1044CC0008B5024B1B685B69019308BD1802030019
:1044DC0008B5024B1B68DB6D019308BD1802030085
:1044EC0008B5024B1B689B68019308BD2C020300A6
:1044FC0008B5024B1B68DB68019308BD2C02030056
:10450C0008B5024B1B681B69019308BD2C02030004
:10451C0008B5024B1B685B69019308BD2C020300B4
:10452C0008B5024B1B681B6A019308BD28020300E7
:10453C0008B5024B1B685B6A019308BD2802030097
:10454C0008B5024B1B689B6A019308BD2802030047
:10455C0008B5024B1B68DB6A019308BD28020300F7
:10456C0008B5024B1B681B6B019308BD28020300A6
:10457C0008B5024B1B685B6B019308BD2802030056
:10458C0008B5024B1B681B6C019308BD2802030085
:10459C0008B5024B1B685B69019308BD64020300FC
:1045AC0008B5024B1B689B68019308BD68020300A9
:1045BC0008B5024B1B68DB68019308BD6802030059
:1045CC0008B5024B1B68DB69019308BD3002030080
:1045DC0008B5024B1B681B6A019308BD300203002F
:1045EC0008B5024B1B68DB68019308BD3C02030055
:1045FC0008B5024B1B681B69019308BD3C02030004
:10460C0008B5024B1B685B69019308BD3C020300B3
:10461C0008B5024B1B689B69019308BD3C02030063
:10462C0008B5024B1B68DB69019308BD3C02030013
:10463C0008B5024B1B681B6A019308BD3C020300C2
:10464C0008B5024B1B689B6A019308BD3C02030032
:10465C0008B5024B1B681B6C019308BD3C020300A0
:10466C0008B5024B1B681B68019308BD4C02030084
:10467C0008B5024B1B685B68019308BD4C02030034
:10468C0008B5024B1B681B69019308BD4C02030063
:10469C0008B5024B1B685B69019308BD4C02030013
:1046AC0008B5024B1B689B69019308BD4C020300C3
:1046BC0008B5024B1B68DB69019308BD4C02030073
:1046CC0008B5024B1B681B6A019308BD4C02030022
:1046DC0008B5024B1B689B6A019308BD4C02030092
:1046EC0008B5024B1B685B68019308BD20020300F0
:1046FC0008B5024B1B685B69019308BD20020300DF
:10470C0008B5024B1B68DB6A019308BD200203004D
:10471C0008B5024B1B68DB6C019308BD200203003B
:10472C0008B5024B1B685B6D019308BD20020300AA
:10473C0008B5034B1B68D3F88830019308BD000003
:10474C002002030008B5034B1B68D3F89430019387
:10475C0008BD00002002030008B5024B1B681B6853
:10476C00019308BD4402030008B5024B1B689B680B
:10477C00019308BD4402030008B5024B1B685B693A
:10478C00019308BD4402030008B5024B1B681B6A69
:10479C00019308BD4402030008B5024B1B685B6A19
:1047AC00019308BD4402030008B5024B1B68DB6B88
:1047BC00019308BD4402030008B5024B1B685B68FB
:1047CC00019308BD4002030008B5024B1B689B68AF
:1047DC00019308BD4002030008B5024B1B68DB685F
:1047EC00019308BD4002030008B5024B1B681B690E
:1047FC00019308BD4002030008B5024B1B685B69BE
:10480C00019308BD4002030008B5024B1B689B696D
:10481C00019308BD4002030008B5024B1B68DB691D
:10482C00019308BD4002030008B5024B1B681B6ACC
:10483C00019308BD4002030008B5024B1B681B6BBB
:10484C00019308BD4002030008B5024B1B685B6B6B
:10485C00019308BD4002030008B5024B1B681B6C9A
:10486C00019308BD4002030008B5024B1B685B6C4A
:10487C00019308BD4002030008B5024B1B685B6D39
:10488C00019308BD4002030008B5024B1B689B6DE9
:10489C00019308BD4002030008B5024B1B681B685E
:1048AC00019308BD1C02030008B5024B1B685B6832
:1048BC00019308BD1C02030008B5024B1B68DB6AA0
:1048CC00019308BD1C02030008B5024B1B681B6B4F
:1048DC00019308BD1C02030008B5024B1B681B6C3E
:1048EC00019308BD1C02030008B5024B1B685B6CEE
:1048FC00019308BD1C0203000021FFF7F9BE38B577
:10490C00046805467CB16368013B63605BB923684E
:10491C0020469B689847A368013BA3601BB923689A
:10492C002046DB689847284638BD10B58368044696
:10493C000BB901F028F8C3689847A3681BB1032290
:10494C0021462046984720461021BDE81040FFF72D
:10495C00A8BB10B58368044613B1032201469847DF
:10496C00204610BD13B50B460246D0E900016C463B
:10497C0084E8030093E8030082E8030094E8030052
:10498C0083E8030002B010BD024800230360FFF768
:10499C0087BD00BFC4E6032070470020704710B5E8
:1049AC0010210446FFF77DFB204610BD08B5FFF72C
:1049BC00F6FF08BD30B500224FF69C74026084806F
:1049CC008D888C800C68858004600A6030BD10B5C1
:1049DC0004460068FFF768FF204610BD38B5C46870
:1049EC00F4B12378022B03D104F10C00FFF7EFFF95
:1049FC00656835B12846FFF7ACFF10212846FFF754
:104A0C0050FBA56835B12846FFF7A3FF10212846B7
:104A1C00FFF747FB20461421BDE83840FFF741BBA8
:104A2C0038BD0B6803604B68436013B15A680132A0
:104A3C005A60704737B5044668460D46FFF7F1FFDC
:104A4C00009B019A23606260002301A801930093EC
:104A5C00FFF755FF35B1281DFFF751FF08212846F8
:104A6C00FFF71FFB204603B030BD826810B50AB9B2
:104A7C0000F089FFBDE81040C368184708B500680E
:104A8C0000F11001FFF7F1FF08BD826810B50AB9FB
:104A9C0000F079FFBDE81040C368184708B50068FE
:104AAC0000F11001FFF7F1FF08BD000038B500233D
:104ABC000446036010200D46FFF7EDFA28B10123E0
:104ACC00C0E90133024B0360C5602060204638BD4D
:104ADC00A05E0B0038B5002383608B6804460D463E
:104AEC002BB102229847EB68E360AB68A3602046C9
:104AFC0038BD0000F0B589B004686846FFF75AFF6E
:104B0C004FF00203D4E84F2F002A03D1C4E8413FF1
:104B1C000029F7D125D104F10C0569462846FFF789
:104B2C0049FFBFF35B8F01236370002004F108037E
:104B3C00BFF35B8F53E8006F43E80002002AF9D102
:104B4C00BFF35B8F6EB1FFF7E3FD78B129463046BA
:104B5C00FFF78BFF3046FFF7FCFE10213046FFF7C6
:104B6C00A0FA6846FFF733FF09B0F0BD314602A842
:104B7C00FFF7B0FFE068B4F9105008B101F02CF861
:104B8C0006901020ADF81C50FFF785FA0546E8B1E9
:104B9C00002787601820FFF77EFA044688B101468B
:104BAC00876002A8FFF7DEFE049BA268A360059B4A
:104BBC00049206A9E268E36004F110000592FFF785
:104BCC00F9FE084BEB60084B2C60AB6006A8FFF7B6
:104BDC00FEFE02A8FFF7BDFE002229460348FFF7A0
:104BEC009FFDB7E7894A0B000D4D0B0037490B00B1
:104BFC002DE9F04F8BB005469DF850A00F4690461E
:104C0C009946FFF7B9FD07AE834638BB4FF62E73B6
:104C1C00059005A93046ADF81830FFF7CBFE1420EF
:104C2C00FFF739FA044648B1022303700123C0E9A7
:104C3C0001BB437031460C30FFF7BCFE28462146C1
:104C4C0040F8044BFFF732FF3046FFF7C0FE05A8D3
:104C5C00FFF7BDFE28460BB0BDE8F08F0C230024F7
:104C6C001420CDE908440793FFF715FA014618B153
:104C7C00C0E901440470447004A80391FFF716FFC7
:104C8C001E4B08930820FFF706FA044610B103A93F
:104C9C00FFF7C7FE00965FFA8AF34A46414638464C
:104CAC000994FFF771FDB8B9039B5B7803F0FF0221
:104CBC0093B94FF69C7305A903A80592ADF818306B
:104CCC00FFF718FF05A8FFF782FE05A80999FFF763
:104CDC00B1FE06A8FFF713FE03A905A8FFF7A1FE76
:104CEC00059B069A2B606A60002306A80693059321
:104CFC00FFF705FE04A8FFF702FEABE7D14D0B0052
:104D0C00012AF8B5054603D10B6803600020F8BDF5
:104D1C00022A10D0032AF9D10468002CF6D004F131
:104D2C001000FFF754FE2046FFF713FE1821204613
:104D3C00FFF7B7F9EAE718200E68FFF7ACF904465D
:104D4C0050B13146FFF7C6FE3069B6F9147008B1A0
:104D5C0000F042FF2061A7822C60D7E738B5002312
:104D6C0083608B6804460D462BB102229847EB6892
:104D7C00E360AB68A360204638BD012A70B50446D9
:104D8C0003D10B680360002070BD022A0CD0032AEB
:104D9C00F9D10468002CF6D02046FFF7DAFD142177
:104DAC002046FFF77EF9EEE714200E68FFF773F943
:104DBC00054620B13146FFF7D1FF337C2B742560BB
:104DCC00E1E70000F0B589B004460D4601A8114694
:104DDC00FFF730FEA4B124B21DB1284600F0FCFE52
:104DEC00054601A803A90395ADF81040FFF782FE14
:104DFC0003A8FFF7ECFD02A8FFF781FD09B0F0BD99
:104E0C00019D0123D5E84F2F002A03D1C5E8413F6E
:104E1C000029F7D1EFD12B73BFF35B8F6B702B1D78
:104E2C00BFF35B8F53E8006F43E80042002AF9D1CF
:104E3C00BFF35B8F002EDED02046FFF769FC0746E0
:104E4C0060B105F10C013046FFF71FFE3046FFF74D
:104E5C0080FD10213046FFF724F9CCE7314603A83A
:104E6C00FFF77CFF2B7B8DF81C301020FFF713F91C
:104E7C000546D0B187601420FFF70DF9044678B1D0
:104E8C008760014603A8FFF76DFD059BA268A36030
:104E9C00069B0592E268E3609DF81C300692237431
:104EAC00064BEB60064B2C60AB6003A8FFF751FD83
:104EBC00002229460348FFF733FCC7E7A94A0B0039
:104ECC00874D0B0037490B00002240681146FFF755
:104EDC00ABBC002240681146FFF7B6BC406800220C
:104EEC00FFF7AABC4068002281F00101FFF794BCD7
:104EFC00002340681A461946FFF786BC0023406819
:104F0C001A461946FFF778BC002240681146FFF795
:104F1C006BBC002240681146FFF756BC406800226B
:104F2C000221FFF759BC002340681A46FFF744BC26
:104F3C00024B03225A60024A1A607047C8E60320EB
:104F4C00BC5E0B007047F8B5064615460C468F182C
:104F5C00BC4206D0336814F8011B9B683046984756
:104F6C00F6E72846F8BD007C0022FFF7D9BA007C92
:104F7C000021FFF7DDBA007C0021FFF7E1BA007CCD
:104F8C000021FFF7E5BA007C0021FFF7E9BA10B564
:104F9C0014210446FFF785F8204610BD38B50446A9
:104FAC0015464FF47A730022C4E90123094B21748E
:104FBC00084623602946FFF7E3FABF3008D16B6936
:104FCC00DB0705D56868FFF76FFCE868FFF76CFC3A
:104FDC00204638BD005F0B00704710B51821044601
:104FEC00FFF75FF8204610BDF0B5037D062B8DB0A2
:104FFC000E4600F104074FF0000412D000F1080532
:10500C0015F8011D0A22304600F073F9AF42044432
:10501C0019D0002CF4D02E21304600F051F9044464
:10502C00EEE72F236A4639460A208DF80040FFF739
:10503C00AFFA6846FEF7ECFF33680246DB68694658
:10504C0030469847044620460DB0F0BD10B5054BD0
:10505C000446112240F8043B002100F07EFD20465E
:10506C0010BD00BF2C5F0B000346074A10B543F878
:10507C00042B01F1100251F8044B43F8044B9142FC
:10508C00F9D10A781A7010BD2C5F0B0010B59DF881
:10509C00084044EA032343EA024242EA0161042342
:1050AC004160037510BD000007B5064B0360CB785B
:1050BC0000938B784A780978FFF7E8FF03B05DF826
:1050CC0004FB00BF2C5F0B00014B024A1A607047B7
:1050DC00D0E60320385F0B00002340681A46FFF728
:1050EC006BBB406800220221FFF776BB00224068B0
:1050FC001146FFF769BB002240681146FFF774BBED
:10510C00002340681A461946FFF776BB0023406817
:10511C001A461946FFF778BB40680021FFF79CBB85
:10512C0040680021FFF7A0BB4068002281F001011C
:10513C00FFF772BB40680022FFF77EBB002240687D
:10514C001146FFF781BB002240681146FFF76CBB8C
:10515C0040680021FFF798BB2DE9F04395B0144649
:10516C000D460746FFF772FF00211C220DA8009187
:10517C0000F0F3FC40230C9320466B460CAA002154
:10518C00FFF716FA044600284BD102460121686845
:10519C00FFF72AFB0221804622466868FFF724FBB2
:1051AC00009E81462146002E3BD0002939D17368E0
:1051BC00022B03D00A2B11D0F669F4E7B8F1000FDB
:1051CC00FAD0716906A8043107ADFFF76DFF0FCD5A
:1051DC003C1D0FC42B6823704146EDE7B9F1000F5D
:1051EC00EAD07469102201A800F0B7FC06238DF8F0
:1051FC00143001AD04F108031834186859682A46B4
:10520C0003C20833A3421546F7D101A906A807AD7E
:10521C00FFF72AFF0FCD3C1D0FC42B6823704946A6
:10522C00CAE70098FFF7BCF9384615B0BDE8F08323
:10523C00033802289ABF024B53F8200001487047EC
:10524C003C5F0B00D4E6032008B500224068FFF752
:10525C0013FBBDE80840FFF7EBBF0000024B034A0D
:10526C001A6000225A607047D4E60320505F0B008E
:10527C00F8B506460D468F180024BD420CD0336895
:10528C0015F8011B9B6830469847031E01DB1C4434
:10529C00F3E7002C08BF1C462046F8BD13B50446A6
:1052AC00084659B10191FEF7B3FE23680199DB68FA
:1052BC000246204602B0BDE81040184702B010BDAF
:1052CC0003689B68184738B50D210546FFF7F8FFB2
:1052DC000A2104462846FFF7F3FF204438BD38B5B1
:1052EC000546FFF7DBFF04462846FFF7ECFF20449A
:1052FC0038BD30B58BB00023012A8DF8243098BF0F
:10530C000A2209AC0D46B1FBF2F101FB125303F07A
:10531C00FF03092B94BF30333733DBB2AA4204F8B6
:10532C00013DEFD92146FFF7B9FF0BB030BD0000AE
:10533C00014B00229A607047DCE6032010B504464E
:10534C0008462170FFF73CF900236360204610BD2E
:10535C0010B50446FFF7B4F8E060236820465B699B
:10536C009847002808DAFFF7ABF8E368C01AA3687F
:10537C009842F2D34FF0FF3010BD2DE9F0410746B3
:10538C000C468E180D46B542A5EB040807D03846DE
:10539C00FFF7DEFF031E02DB05F8013BF3E7404697
:1053AC00BDE8F081054B02221A60054B054A9A6054
:1053BC000020C3E90000FFF793B900BFF8E6032013
:1053CC00ECE603200000FFFF024B1A68024B1A6048
:1053DC00704700BF48E60320FCE603207047417489
:1053EC00704708B5007CFFF72BF920EAE07008BD88
:1053FC0008B5007CFFF7FCF820EAE07008BD08B5A2
:10540C00007CFFF705F940EAE07008BD08B5007CA8
:10541C00FFF7F6F840EAE07008BD007CFFF700B932
:10542C0037B5457C04462DB1207C03B0BDE8304037
:10543C00FFF7D6B8007C0191FFF702F9002801991B
:10544C00F2DC284603B030BD10B514210446FEF73B
:10545C0028FE204610BD000010B54FF47A730446A8
:10546C00084611460022C4E90123044B23600123A2
:10547C0020746374FFF7ECF8204610BDB05F0B008E
:10548C00417470477047704708B50021007CFFF7E6
:10549C0007F940EAE07008BD08B50121007CFFF770
:1054AC00FFF840EAE07008BD08B5007CFFF7F0F8A3
:1054BC0020EAE07008BD08B5007CFFF7E1F820EAAF
:1054CC00E07008BD13B50446007C0191FFF7E0F8CD
:1054DC000028019901DC607C20B1207CFFF7E8F802
:1054EC0020EAE07002B010BD007CFFF7E9B810B5FF
:1054FC0014210446FEF7D5FD204610BD10B54FF41F
:10550C007A73044608460021C4E90113044B236056
:10551C000123207463741146FFF7A2F8204610BDD6
:10552C00E45F0B00007C0022FFF7A2B8007CFFF7C1
:10553C00CFB810B514220446002100F00EFB204613
:10554C0010BD000010B50F4C88B003A8FFF7F1FF99
:10555C002178BFF35B8F11F001010FD1204601912F
:10556C00FEF7A1FD019948B103AA0748FFF7C6FF52
:10557C002046FEF79DFD054800F0DBFA024808B016
:10558C0010BD00BF00E7032004E7032091540B007B
:10559C00002240681146FFF727B9002240681146E7
:1055AC00FFF742B9002240681146FFF74DB9406839
:1055BC000022FFF741B94068002281F00101FFF79A
:1055CC002BB9002340681A461946FFF71DB9002372
:1055DC0040681A461946FFF70FB900224068114679
:1055EC00FFF7F2B8406800220221FFF7F5B800235C
:1055FC0040681A46FFF7E0B8024B04225A60024A90
:10560C001A60704718E7032018600B00014B1860F4
:10561C00704700BF4CE6032008B50B4B43B1FFF7B6
:10562C0091FF03681B699847002801DDAFF30080E8
:10563C00064B43B100F05CF903681B6998470028DE
:10564C0001DDAFF3008008BD000000000000000089
:10565C0008B5FFF7E1FFFEF733FF014B186008BDFB
:10566C0034E703200548064A064908B5121A00F02B
:10567C0066FA054B054A1A6008BD00BF00F403200A
:10568C0004F4032060620B0000F403201E1C279A14
:10569C0007B5002300931A466FF07701FFF752F815
:1056AC0003B05DF804FB000007B543880A2B08D053
:1056BC00502B0BD1094B1B684BB103B05DF804EBBD
:1056CC001847FFF7E5FF03B05DF804FB00230093D8
:1056DC001A466FF07701FFF735F8F4E724E703205B
:1056EC0010B512480021FFF7FFF8114B1A68114B47
:1056FC009A42114B0CBF012200221A7001D0FFF705
:10570C00B1FFFEF7D5FE044600F030FA0B4B13B197
:10571C002046AFF3008000210848FFF745F8BDE8AC
:10572C00104007480021FFF703B800BF19560B00C3
:10573C0000F403201E1C279A20E703200000000021
:10574C00B5560B00232813B502D9002002B010BDAA
:10575C00A0F10B03022B1AD8174C2178BFF35B8FE7
:10576C0011F001010BD120460191FEF79CFC01992F
:10577C0028B11248FFF7E2FD2046FEF799FC0F4BCB
:10578C001878FEF725FF0028DFD10120DEE701287D
:10579C0009D800F06DF80021007CFEF7E9FE80F0DE
:1057AC000100C0B2D2E709380128EED800F0A0F809
:1057BC00007CFEF73DFFF2E728E703202CE70320EF
:1057CC00232838B504460D460AD8FF2908D0FFF720
:1057DC00B9FF28B129462046BDE83840FEF780BE07
:1057EC0038BD38B504460D46FEF782FEFF2810D0B2
:1057FC00062804D84D2323FA00F0C30709D4204609
:10580C00FFF7A0FF28B129462046BDE83840FEF737
:10581C0077BE38BD10B50446FEF76AFE031FDBB237
:10582C00012B08D92046FFF78DFF20B12046BDE89B
:10583C001040FEF76DBE002010BD704738B50A4B06
:10584C0003600123044643610849202000F074F8EA
:10585C00202560600549A560284600F06DF8C4E974
:10586C000305204638BD00BF1800010054600B0032
:10587C0030B50E4D2978BFF35B8F11F0010487B062
:10588C0011D12846FEF70FFC68B16846FFF7D6FF2A
:10589C006A4621460648FFF781FB2846FEF708FCBE
:1058AC00044800F046F9024807B030BD38E7032041
:1058BC003CE7032047580B007047000038B50446FE
:1058CC0014252A46002100F048F925804025074977
:1058DC0025812846258200F02FF80449606028466F
:1058EC0000F02AF8E060204638BD00BF54600B0081
:1058FC0030B50E4D2978BFF35B8F11F0010487B0E2
:10590C0011D12846FEF7CFFB68B101A8FFF7D6FFEF
:10591C0001AA21460648FFF79FFD2846FEF7C8FB63
:10592C00044800F006F9024807B030BD50E70320E8
:10593C0054E70320C5580B00FEF7AFBB08B5FEF7C4
:10594C00BBFF08B5FEF7B8FF08B5FEF7B5FF0FB4FF
:10595C0080B584B000AF07F1180454F8042B7A60BA
:10596C001046FEF755FB00F2072323F00703ADEBBF
:10597C00030D00F500717A68FC602346684600F060
:10598C0057F8FEF799FF08B5FEF796FF80B59CB067
:10599C00064600AF0C46A41B0E496922381D00F0C8
:1059AC00CEF804F1700323F00703ADEB030D6D4645
:1059BC006822391D284600F0C2F82246314605F10E
:1059CC0068002C4400F0BBF8002384F868302846AB
:1059DC00FFF7B7FF55600B002DE9F04100AF84B025
:1059EC006D4605F10C04DFF8448023464FF00A0C99
:1059FC00B2FBFCF60CFB162E18F80EE003F801EDCA
:105A0C009646BEF1090F3246F2D8E41A8C4209D8F8
:105A1C00C4F10C032246E91800F091F82046BD466B
:105A2C00BDE8F0814FF0FF34F8E700BFBE600B001B
:105A3C0001392DE9F0410746154600EB01080446F3
:105A4C002A7892B344452AD2252A07D16A78732A38
:105A5C0009D07A2A12D0252A00D1013515F8012B4C
:105A6C0004F8012BECE753F8042B013A12F8011F50
:105A7C00C9B1444513D004F8011BF7E7AA78752A7D
:105A8C00ECD11E46A8EB040156F8042B2046FFF778
:105A9C00A3FF002803DD044403353346D0E7214639
:105AAC003846FFF773FF0235CAE72270E01BBDE8EA
:105ABC00F0810AB100F043B87047000008B50B68DC
:105ACC00B3F1804F02D30D48FFF73EFF93420BD941
:105ADC00B3EB420F4FEA420006D2B0F1804F2ABF1F
:105AEC006FF0404308600B600868013001D5FFF788
:105AFC0025FFBDE80840FEF7CEBA00BFC9600B0019
:105B0C0050F8083B834202D01846FEF7C8BA7047DB
:105B1C00012A10B404D10A785DF8044B0270704766
:105B2C005DF8044BFFF7C5BF08B5521AFFF7F0FF3D
:105B3C0008BD002301461A46184600F0C7B80A44AF
:105B4C00914200F1FF3300D1704710B511F8014BB1
:105B5C0003F8014F9142F9D110BD02440346934220
:105B6C0000D1704703F8011BF9E7000038B5104B62
:105B7C001D68AB6B0446B3B91820FEF78DFE0246C8
:105B8C00A86320B90B4B0C484221FEF7A5FE0B492C
:105B9C000B4BC0E900130B4B83600B23838100215B
:105BAC000120C2E90401AB6B00221C615A6138BDB3
:105BBC004CE60320E1600B00F8600B000E33CDAB1C
:105BCC0034126DE6ECDE0500034611F8012B03F8E8
:105BDC00012B002AF9D17047024B0146186800F0DE
:105BEC0003B800BF4CE6032037B5044608460D4603
:105BFC00FEF70EFA421C114620460192FEF764FE97
:105C0C00044618B1019A2946FFF799FF204603B0C4
:105C1C0030BD0000164B73B51E68B46D0546FCB95B
:105C2C0050200191FEF738FE0199B065024620B96B
:105C3C00104B11485721FEF74FFEC0E90044C0E954
:105C4C000244C0E90444C0E90A44C0E90C44C0E978
:105C5C000E44C0E91044C0E91244846104774462E4
:105C6C00B26D0123284602B0BDE8704000F006B8C2
:105C7C004CE60320E1600B0051610B00F0B508B954
:105C8C00106888B10446204614F8015B0F4617F8DB
:105C9C00016B1EB965B91560284605E0B542F6D111
:105CAC00002BF0D114600370F0BD1C460CE015B94C
:105CBC0014F8013B0E4616F8015BAB42F7D1002BF2
:105CCC00F3D0002304F8013C1460EDE72DE9F84310
:105CDC00DFF8B8800646D8F800001F460D469146FE
:105CEC0000F056F8254B1C6834B9254C1C60254B2C
:105CFC0013B11B68C4F8883063681F2B07DDD8F814
:105D0C00000000F047F84FF0FF30BDE8F8834EB3C9
:105D1C00D4F8880088B91C4B23B9D8F8000000F0DF
:105D2C0038F8F0E74FF48470FEF7B6FD0028F4D095
:105D3C000023C0E94033C4F88800636840F823901E
:105D4C0001229A4000EB8301D0F800311343C0F8D4
:105D5C000031022EC1F8807002BFD0F80431134319
:105D6C00C0F804316368D8F800005A1C0233626032
:105D7C0044F8235000F00EF80020C6E7F4E70320A7
:105D8C0068E7032000000000A5480B00B0E60320E4
:105D9C0070477047704700002D400B0069400B00A6
:105DAC0091400B0095400B00000000004D45204039
:105DBC00204D544C006C6F636174696F6E0072659A
:105DCC00666572746F6D6500436F6D706C6574659C
:105DDC006420766F69642073657475700034352E99
:105DEC00343738363238382C2D37332E363137306D
:105DFC0032342C34352E343935333638382C2D3763
:105E0C00332E353737393936343030303030303254
:105E1C00007075626C697368656400766563746F95
:105E2C00723A3A5F4D5F7265616C6C6F635F696E5D
:105E3C0073657274002C00766563746F723A3A5F06
:105E4C004D5F72616E67655F636865636B3A205F77
:105E5C005F6E2028776869636820697320257A75DE
:105E6C0029203E3D20746869732D3E73697A65283C
:105E7C00292028776869636820697320257A752939
:105E8C0000726563656976656400000000000000BF
:105E9C0000000000A5490B00AB490B00E9490B00C1
:105EAC00B9490B00A7490B000000000000000000DE
:105EBC00334F0B00294F0B001F4F0B00154F0B00DE
:105ECC00094F0B00FD4E0B0025510B002D510B0003
:105EDC00F14E0B00E94E0B00DF4E0B00D54E0B00C4
:105EEC0055520B005D510B0065510B00000000007A
:105EFC0000000000514F0B009B4F0B00734F0B0029
:105F0C00534F0B007B4F0B00834F0B008B4F0B0041
:105F1C00934F0B0087530B000000000000000000A3
:105F2C00F54F0B00E54F0B00E74F0B006170700055
:105F3C00C8E6032018E70320D4E603200000000085
:105F4C0000000000E5500B00EF500B00F9500B0067
:105F5C0003510B000D510B0019510B0025510B0077
:105F6C002D510B0035510B0041510B0049510B00C9
:105F7C0053510B0055520B005D510B0065510B003A
:105F8C0025592D256D2D25645425483A254D3A2546
:105F9C0053257A0061736374696D6500000000001D
:105FAC0000000000E9530B0055540B002D540B005E
:105FBC007D520B00FD530B0019540B000B540B00BE
:105FCC0027540B0087530B00EB530B00EF530B00C4
:105FDC00000000000000000093540B00FB540B0069
:105FEC00D1540B007D520B00C3540B0095540B0085
:105FFC00A5540B00F5540B0087530B00B5540B0044
:10600C008D540B000000000000000000FB550B003D
:10601C00F1550B00E7550B009D550B00DB550B00A4
:10602C00CF550B0025510B002D510B00C3550B0008
:10603C00BB550B00B1550B00A7550B0055520B006F
:10604C005D510B0065510B00006E6F7420656E6F17
:10605C0075676820737061636520666F7220666F68
:10606C00726D617420657870616E73696F6E202833
:10607C00506C65617365207375626D69742066750B
:10608C006C6C20627567207265706F72742061741D
:10609C002068747470733A2F2F6763632E676E7564
:1060AC002E6F72672F627567732F293A0A20202092
:1060BC002000303132333435363738390062617371
:1060CC0069635F737472696E673A3A5F4D5F6372AE
:1060DC0065617465005245454E54206D616C6C6F62
:1060EC006320737563636565646564002F746D70FC
:1060FC002F6A656E6B696E732D4743432D31302DBE
:10610C00706970656C696E652D34385F3230323071
:10611C00313132345F313630363138303633392F15
:10612C007372632F6E65776C69622F6E65776C691D
:10613C00622F6C6962632F7374646C69622F726175
:10614C006E642E63002F746D702F6A656E6B696EB2
:10615C00732D4743432D31302D706970656C696E1A
:10616C00652D34385F32303230313132345F313674
:10617C0030363138303633392F7372632F6E657782
:10618C006C69622F6E65776C69622F6C6962632F24
:10619C00737472696E672F737472746F6B2E6300F5
:1061AC007D440B0095490B003D4F0B00D5500B0067
:1061BC0069520B003D530B00B1530B00D5530B0030
:0461CC0005560B0069
:1061D000040000001400000003000000474E5500BA
:1061E0001CD220BFE3762BDF0B0D2C42B9C65DFE1F
:0461F000A78F7DA454
:1061F400A05F0B0050E60320000000000000000038
:10620400000000000000000000000000000000008A
:10621400000000000000000000000000000000007A
:10622400000000000000000000000000000000006A
:10623400000000000000000000000000000000005A
:10624400000000000000000000000000000000004A
:0C6254000000000000000000F8E703203C
:04626000000000003A
:10626A0000000102030405060708090A0B0C0D0EBB
:10627A000F101112131415161718191A1B1C1D1EAC
:04628A001F202800A9
:04628E0078563412F8
:04000003B000401CED
:00000001FF
